{
  "abi": [
    {
      "anonymous": false,
      "inputs": [
        {
          "indexed": true,
          "internalType": "address",
          "name": "previousOwner",
          "type": "address"
        },
        {
          "indexed": true,
          "internalType": "address",
          "name": "newOwner",
          "type": "address"
        }
      ],
      "name": "OwnershipTransferred",
      "type": "event"
    },
    {
      "anonymous": false,
      "inputs": [
        {
          "indexed": false,
          "internalType": "address",
          "name": "owner",
          "type": "address"
        },
        {
          "indexed": false,
          "internalType": "address",
          "name": "tokenAddress",
          "type": "address"
        },
        {
          "indexed": false,
          "internalType": "address",
          "name": "royaltyAddress",
          "type": "address"
        }
      ],
      "name": "RoyaltyOverride",
      "type": "event"
    },
    {
      "inputs": [
        {
          "internalType": "address",
          "name": "tokenAddress",
          "type": "address"
        }
      ],
      "name": "getRoyaltyLookupAddress",
      "outputs": [
        {
          "internalType": "address",
          "name": "",
          "type": "address"
        }
      ],
      "stateMutability": "view",
      "type": "function"
    },
    {
      "inputs": [],
      "name": "initialize",
      "outputs": [],
      "stateMutability": "nonpayable",
      "type": "function"
    },
    {
      "inputs": [
        {
          "internalType": "address",
          "name": "tokenAddress",
          "type": "address"
        }
      ],
      "name": "overrideAllowed",
      "outputs": [
        {
          "internalType": "bool",
          "name": "",
          "type": "bool"
        }
      ],
      "stateMutability": "view",
      "type": "function"
    },
    {
      "inputs": [],
      "name": "owner",
      "outputs": [
        {
          "internalType": "address",
          "name": "",
          "type": "address"
        }
      ],
      "stateMutability": "view",
      "type": "function"
    },
    {
      "inputs": [],
      "name": "renounceOwnership",
      "outputs": [],
      "stateMutability": "nonpayable",
      "type": "function"
    },
    {
      "inputs": [
        {
          "internalType": "address",
          "name": "tokenAddress",
          "type": "address"
        },
        {
          "internalType": "address",
          "name": "royaltyLookupAddress",
          "type": "address"
        }
      ],
      "name": "setRoyaltyLookupAddress",
      "outputs": [],
      "stateMutability": "nonpayable",
      "type": "function"
    },
    {
      "inputs": [
        {
          "internalType": "bytes4",
          "name": "interfaceId",
          "type": "bytes4"
        }
      ],
      "name": "supportsInterface",
      "outputs": [
        {
          "internalType": "bool",
          "name": "",
          "type": "bool"
        }
      ],
      "stateMutability": "view",
      "type": "function"
    },
    {
      "inputs": [
        {
          "internalType": "address",
          "name": "newOwner",
          "type": "address"
        }
      ],
      "name": "transferOwnership",
      "outputs": [],
      "stateMutability": "nonpayable",
      "type": "function"
    }
  ],
  "bytecode": {
    "object": "0x608060405234801561001057600080fd5b506112b2806100206000396000f3fe608060405234801561001057600080fd5b50600436106100885760003560e01c80638129fc1c1161005b5780638129fc1c146100e55780638da5cb5b146100ed578063de5488af1461012c578063f2fde38b1461013f57600080fd5b806301ffc9a71461008d57806326bd8982146100b557806370e06281146100ca578063715018a6146100dd575b600080fd5b6100a061009b366004611148565b610152565b60405190151581526020015b60405180910390f35b6100c86100c33660046111ac565b6101eb565b005b6100a06100d83660046111e5565b6103d0565b6100c8610b5a565b6100c8610be7565b60335473ffffffffffffffffffffffffffffffffffffffff165b60405173ffffffffffffffffffffffffffffffffffffffff90911681526020016100ac565b61010761013a3660046111e5565b610d0b565b6100c861014d3660046111e5565b610d48565b60007fffffffff0000000000000000000000000000000000000000000000000000000082167f880963ac0000000000000000000000000000000000000000000000000000000014806101e557507f01ffc9a7000000000000000000000000000000000000000000000000000000007fffffffff000000000000000000000000000000000000000000000000000000008316145b92915050565b73ffffffffffffffffffffffffffffffffffffffff82163b15158015610245575073ffffffffffffffffffffffffffffffffffffffff81163b151580610245575073ffffffffffffffffffffffffffffffffffffffff8116155b6102b0576040517f08c379a000000000000000000000000000000000000000000000000000000000815260206004820152600d60248201527f496e76616c696420696e7075740000000000000000000000000000000000000060448201526064015b60405180910390fd5b6102b9826103d0565b61031f576040517f08c379a000000000000000000000000000000000000000000000000000000000815260206004820152601160248201527f5065726d697373696f6e2064656e69656400000000000000000000000000000060448201526064016102a7565b73ffffffffffffffffffffffffffffffffffffffff828116600090815260656020526040902080547fffffffffffffffffffffffff0000000000000000000000000000000000000000169183169190911790557f22fb05840ad0d4b2be640c56e11065f26b799d2918d8f81190416f62b154b9c6336040805173ffffffffffffffffffffffffffffffffffffffff928316815282861660208201529184169082015260600160405180910390a15050565b60335460009073ffffffffffffffffffffffffffffffffffffffff163314156103fb57506001919050565b610425827f553e757e00000000000000000000000000000000000000000000000000000000610e75565b80156104d6575073ffffffffffffffffffffffffffffffffffffffff82166324d7806c336040517fffffffff0000000000000000000000000000000000000000000000000000000060e084901b16815273ffffffffffffffffffffffffffffffffffffffff9091166004820152602401602060405180830381865afa1580156104b2573d6000803e3d6000fd5b505050506040513d601f19601f820116820180604052508101906104d69190611202565b156104e357506001919050565b8173ffffffffffffffffffffffffffffffffffffffff16638da5cb5b6040518163ffffffff1660e01b8152600401602060405180830381865afa925050508015610568575060408051601f3d9081017fffffffffffffffffffffffffffffffffffffffffffffffffffffffffffffffe016820190925261056591810190611224565b60015b6105715761059a565b73ffffffffffffffffffffffffffffffffffffffff81163314156105985750600192915050565b505b73ffffffffffffffffffffffffffffffffffffffff82166391d148546000336040517fffffffff0000000000000000000000000000000000000000000000000000000060e085901b168152600481019290925273ffffffffffffffffffffffffffffffffffffffff166024820152604401602060405180830381865afa925050508015610662575060408051601f3d9081017fffffffffffffffffffffffffffffffffffffffffffffffffffffffffffffffe016820190925261065f91810190611202565b60015b61066b5761067c565b801561067a5750600192915050565b505b8173ffffffffffffffffffffffffffffffffffffffff1663be772d4c6040518163ffffffff1660e01b8152600401602060405180830381865afa925050508015610701575060408051601f3d9081017fffffffffffffffffffffffffffffffffffffffffffffffffffffffffffffffe01682019092526106fe91810190611224565b60015b61070a576107dc565b73ffffffffffffffffffffffffffffffffffffffff811663e37ce6fa336040517fffffffff0000000000000000000000000000000000000000000000000000000060e084901b16815273ffffffffffffffffffffffffffffffffffffffff9091166004820152602401602060405180830381865afa9250505080156107ca575060408051601f3d9081017fffffffffffffffffffffffffffffffffffffffffffffffffffffffffffffffe01682019092526107c791810190611202565b60015b6107d3576107da565b9392505050565b505b8173ffffffffffffffffffffffffffffffffffffffff1663f7a2da236040518163ffffffff1660e01b8152600401602060405180830381865afa925050508015610861575060408051601f3d9081017fffffffffffffffffffffffffffffffffffffffffffffffffffffffffffffffe016820190925261085e91810190611224565b60015b61086a57610930565b73ffffffffffffffffffffffffffffffffffffffff81166324d7806c336040517fffffffff0000000000000000000000000000000000000000000000000000000060e084901b16815273ffffffffffffffffffffffffffffffffffffffff9091166004820152602401602060405180830381865afa92505050801561092a575060408051601f3d9081017fffffffffffffffffffffffffffffffffffffffffffffffffffffffffffffffe016820190925261092791810190611202565b60015b6107d357505b8173ffffffffffffffffffffffffffffffffffffffff1663748365ef6040518163ffffffff1660e01b8152600401602060405180830381865afa9250505080156109b5575060408051601f3d9081017fffffffffffffffffffffffffffffffffffffffffffffffffffffffffffffffe01682019092526109b291810190611224565b60015b6109be57610a9b565b73ffffffffffffffffffffffffffffffffffffffff811663c395fcb3336040517fffffffff0000000000000000000000000000000000000000000000000000000060e084901b16815273ffffffffffffffffffffffffffffffffffffffff9091166004820152602401602060405180830381865afa925050508015610a7e575060408051601f3d9081017fffffffffffffffffffffffffffffffffffffffffffffffffffffffffffffffe0168201909252610a7b91810190611202565b60015b610a8757610a99565b8015610a97575060019392505050565b505b505b8173ffffffffffffffffffffffffffffffffffffffff1663f851a4406040518163ffffffff1660e01b8152600401602060405180830381865afa925050508015610b20575060408051601f3d9081017fffffffffffffffffffffffffffffffffffffffffffffffffffffffffffffffe0168201909252610b1d91810190611224565b60015b610b2957610b52565b73ffffffffffffffffffffffffffffffffffffffff8116331415610b505750600192915050565b505b506000919050565b60335473ffffffffffffffffffffffffffffffffffffffff163314610bdb576040517f08c379a000000000000000000000000000000000000000000000000000000000815260206004820181905260248201527f4f776e61626c653a2063616c6c6572206973206e6f7420746865206f776e657260448201526064016102a7565b610be56000610e91565b565b600054610100900460ff16610c025760005460ff1615610c06565b303b155b610c92576040517f08c379a000000000000000000000000000000000000000000000000000000000815260206004820152602e60248201527f496e697469616c697a61626c653a20636f6e747261637420697320616c72656160448201527f647920696e697469616c697a656400000000000000000000000000000000000060648201526084016102a7565b600054610100900460ff16158015610cd157600080547fffffffffffffffffffffffffffffffffffffffffffffffffffffffffffff0000166101011790555b610cd9610f08565b8015610d0857600080547fffffffffffffffffffffffffffffffffffffffffffffffffffffffffffff00ff1690555b50565b73ffffffffffffffffffffffffffffffffffffffff8082166000908152606560205260408120549091168015610d415792915050565b5090919050565b60335473ffffffffffffffffffffffffffffffffffffffff163314610dc9576040517f08c379a000000000000000000000000000000000000000000000000000000000815260206004820181905260248201527f4f776e61626c653a2063616c6c6572206973206e6f7420746865206f776e657260448201526064016102a7565b73ffffffffffffffffffffffffffffffffffffffff8116610e6c576040517f08c379a000000000000000000000000000000000000000000000000000000000815260206004820152602660248201527f4f776e61626c653a206e6577206f776e657220697320746865207a65726f206160448201527f646472657373000000000000000000000000000000000000000000000000000060648201526084016102a7565b610d0881610e91565b6000610e8083610fa8565b80156107d357506107d3838361100c565b6033805473ffffffffffffffffffffffffffffffffffffffff8381167fffffffffffffffffffffffff0000000000000000000000000000000000000000831681179093556040519116919082907f8be0079c531659141344cd1fd0a4f28419497f9722a3daafe3b4186f6b6457e090600090a35050565b600054610100900460ff16610f9f576040517f08c379a000000000000000000000000000000000000000000000000000000000815260206004820152602b60248201527f496e697469616c697a61626c653a20636f6e7472616374206973206e6f74206960448201527f6e697469616c697a696e6700000000000000000000000000000000000000000060648201526084016102a7565b610be533610e91565b6000610fd4827f01ffc9a70000000000000000000000000000000000000000000000000000000061100c565b80156101e55750611005827fffffffff0000000000000000000000000000000000000000000000000000000061100c565b1592915050565b604080517fffffffff00000000000000000000000000000000000000000000000000000000831660248083019190915282518083039091018152604490910182526020810180517bffffffffffffffffffffffffffffffffffffffffffffffffffffffff167f01ffc9a7000000000000000000000000000000000000000000000000000000001790529051600091908290819073ffffffffffffffffffffffffffffffffffffffff871690617530906110c6908690611241565b6000604051808303818686fa925050503d8060008114611102576040519150601f19603f3d011682016040523d82523d6000602084013e611107565b606091505b509150915060208151101561112257600093505050506101e5565b81801561113e57508080602001905181019061113e9190611202565b9695505050505050565b60006020828403121561115a57600080fd5b81357fffffffff00000000000000000000000000000000000000000000000000000000811681146107d357600080fd5b73ffffffffffffffffffffffffffffffffffffffff81168114610d0857600080fd5b600080604083850312156111bf57600080fd5b82356111ca8161118a565b915060208301356111da8161118a565b809150509250929050565b6000602082840312156111f757600080fd5b81356107d38161118a565b60006020828403121561121457600080fd5b815180151581146107d357600080fd5b60006020828403121561123657600080fd5b81516107d38161118a565b6000825160005b818110156112625760208186018101518583015201611248565b81811115611271576000828501525b50919091019291505056fea26469706673582212206ae0734fb312ec5356b24c614265c16cd782038248f67378634c1b6b7a1c470264736f6c634300080a0033",
    "linkReferences": {}
  },
  "methodIdentifiers": {
    "getRoyaltyLookupAddress(address)": "de5488af",
    "initialize()": "8129fc1c",
    "overrideAllowed(address)": "70e06281",
    "owner()": "8da5cb5b",
    "renounceOwnership()": "715018a6",
    "setRoyaltyLookupAddress(address,address)": "26bd8982",
    "supportsInterface(bytes4)": "01ffc9a7",
    "transferOwnership(address)": "f2fde38b"
  },
  "id": 11
}