{
  "abi": [
    {
      "inputs": [
        {
          "internalType": "address",
          "name": "_erc721TransferHelper",
          "type": "address"
        },
        {
          "internalType": "address",
          "name": "_royaltyEngine",
          "type": "address"
        },
        {
          "internalType": "address",
          "name": "_protocolFeeSettings",
          "type": "address"
        },
        {
          "internalType": "address",
          "name": "_weth",
          "type": "address"
        }
      ],
      "stateMutability": "nonpayable",
      "type": "constructor"
    },
    {
      "anonymous": false,
      "inputs": [
        {
          "indexed": true,
          "internalType": "address",
          "name": "tokenContract",
          "type": "address"
        },
        {
          "indexed": true,
          "internalType": "uint256",
          "name": "tokenId",
          "type": "uint256"
        },
        {
          "indexed": false,
          "internalType": "bool",
          "name": "firstBid",
          "type": "bool"
        },
        {
          "indexed": false,
          "internalType": "bool",
          "name": "extended",
          "type": "bool"
        },
        {
          "components": [
            {
              "internalType": "address",
              "name": "seller",
              "type": "address"
            },
            {
              "internalType": "uint96",
              "name": "reservePrice",
              "type": "uint96"
            },
            {
              "internalType": "address",
              "name": "sellerFundsRecipient",
              "type": "address"
            },
            {
              "internalType": "uint96",
              "name": "highestBid",
              "type": "uint96"
            },
            {
              "internalType": "address",
              "name": "highestBidder",
              "type": "address"
            },
            {
              "internalType": "uint48",
              "name": "duration",
              "type": "uint48"
            },
            {
              "internalType": "uint48",
              "name": "startTime",
              "type": "uint48"
            },
            {
              "internalType": "address",
              "name": "listingFeeRecipient",
              "type": "address"
            },
            {
              "internalType": "uint80",
              "name": "firstBidTime",
              "type": "uint80"
            },
            {
              "internalType": "uint16",
              "name": "listingFeeBps",
              "type": "uint16"
            }
          ],
          "indexed": false,
          "internalType": "struct ReserveAuctionListingEth.Auction",
          "name": "auction",
          "type": "tuple"
        }
      ],
      "name": "AuctionBid",
      "type": "event"
    },
    {
      "anonymous": false,
      "inputs": [
        {
          "indexed": true,
          "internalType": "address",
          "name": "tokenContract",
          "type": "address"
        },
        {
          "indexed": true,
          "internalType": "uint256",
          "name": "tokenId",
          "type": "uint256"
        },
        {
          "components": [
            {
              "internalType": "address",
              "name": "seller",
              "type": "address"
            },
            {
              "internalType": "uint96",
              "name": "reservePrice",
              "type": "uint96"
            },
            {
              "internalType": "address",
              "name": "sellerFundsRecipient",
              "type": "address"
            },
            {
              "internalType": "uint96",
              "name": "highestBid",
              "type": "uint96"
            },
            {
              "internalType": "address",
              "name": "highestBidder",
              "type": "address"
            },
            {
              "internalType": "uint48",
              "name": "duration",
              "type": "uint48"
            },
            {
              "internalType": "uint48",
              "name": "startTime",
              "type": "uint48"
            },
            {
              "internalType": "address",
              "name": "listingFeeRecipient",
              "type": "address"
            },
            {
              "internalType": "uint80",
              "name": "firstBidTime",
              "type": "uint80"
            },
            {
              "internalType": "uint16",
              "name": "listingFeeBps",
              "type": "uint16"
            }
          ],
          "indexed": false,
          "internalType": "struct ReserveAuctionListingEth.Auction",
          "name": "auction",
          "type": "tuple"
        }
      ],
      "name": "AuctionCanceled",
      "type": "event"
    },
    {
      "anonymous": false,
      "inputs": [
        {
          "indexed": true,
          "internalType": "address",
          "name": "tokenContract",
          "type": "address"
        },
        {
          "indexed": true,
          "internalType": "uint256",
          "name": "tokenId",
          "type": "uint256"
        },
        {
          "components": [
            {
              "internalType": "address",
              "name": "seller",
              "type": "address"
            },
            {
              "internalType": "uint96",
              "name": "reservePrice",
              "type": "uint96"
            },
            {
              "internalType": "address",
              "name": "sellerFundsRecipient",
              "type": "address"
            },
            {
              "internalType": "uint96",
              "name": "highestBid",
              "type": "uint96"
            },
            {
              "internalType": "address",
              "name": "highestBidder",
              "type": "address"
            },
            {
              "internalType": "uint48",
              "name": "duration",
              "type": "uint48"
            },
            {
              "internalType": "uint48",
              "name": "startTime",
              "type": "uint48"
            },
            {
              "internalType": "address",
              "name": "listingFeeRecipient",
              "type": "address"
            },
            {
              "internalType": "uint80",
              "name": "firstBidTime",
              "type": "uint80"
            },
            {
              "internalType": "uint16",
              "name": "listingFeeBps",
              "type": "uint16"
            }
          ],
          "indexed": false,
          "internalType": "struct ReserveAuctionListingEth.Auction",
          "name": "auction",
          "type": "tuple"
        }
      ],
      "name": "AuctionCreated",
      "type": "event"
    },
    {
      "anonymous": false,
      "inputs": [
        {
          "indexed": true,
          "internalType": "address",
          "name": "tokenContract",
          "type": "address"
        },
        {
          "indexed": true,
          "internalType": "uint256",
          "name": "tokenId",
          "type": "uint256"
        },
        {
          "components": [
            {
              "internalType": "address",
              "name": "seller",
              "type": "address"
            },
            {
              "internalType": "uint96",
              "name": "reservePrice",
              "type": "uint96"
            },
            {
              "internalType": "address",
              "name": "sellerFundsRecipient",
              "type": "address"
            },
            {
              "internalType": "uint96",
              "name": "highestBid",
              "type": "uint96"
            },
            {
              "internalType": "address",
              "name": "highestBidder",
              "type": "address"
            },
            {
              "internalType": "uint48",
              "name": "duration",
              "type": "uint48"
            },
            {
              "internalType": "uint48",
              "name": "startTime",
              "type": "uint48"
            },
            {
              "internalType": "address",
              "name": "listingFeeRecipient",
              "type": "address"
            },
            {
              "internalType": "uint80",
              "name": "firstBidTime",
              "type": "uint80"
            },
            {
              "internalType": "uint16",
              "name": "listingFeeBps",
              "type": "uint16"
            }
          ],
          "indexed": false,
          "internalType": "struct ReserveAuctionListingEth.Auction",
          "name": "auction",
          "type": "tuple"
        }
      ],
      "name": "AuctionEnded",
      "type": "event"
    },
    {
      "anonymous": false,
      "inputs": [
        {
          "indexed": true,
          "internalType": "address",
          "name": "tokenContract",
          "type": "address"
        },
        {
          "indexed": true,
          "internalType": "uint256",
          "name": "tokenId",
          "type": "uint256"
        },
        {
          "components": [
            {
              "internalType": "address",
              "name": "seller",
              "type": "address"
            },
            {
              "internalType": "uint96",
              "name": "reservePrice",
              "type": "uint96"
            },
            {
              "internalType": "address",
              "name": "sellerFundsRecipient",
              "type": "address"
            },
            {
              "internalType": "uint96",
              "name": "highestBid",
              "type": "uint96"
            },
            {
              "internalType": "address",
              "name": "highestBidder",
              "type": "address"
            },
            {
              "internalType": "uint48",
              "name": "duration",
              "type": "uint48"
            },
            {
              "internalType": "uint48",
              "name": "startTime",
              "type": "uint48"
            },
            {
              "internalType": "address",
              "name": "listingFeeRecipient",
              "type": "address"
            },
            {
              "internalType": "uint80",
              "name": "firstBidTime",
              "type": "uint80"
            },
            {
              "internalType": "uint16",
              "name": "listingFeeBps",
              "type": "uint16"
            }
          ],
          "indexed": false,
          "internalType": "struct ReserveAuctionListingEth.Auction",
          "name": "auction",
          "type": "tuple"
        }
      ],
      "name": "AuctionReservePriceUpdated",
      "type": "event"
    },
    {
      "anonymous": false,
      "inputs": [
        {
          "indexed": true,
          "internalType": "address",
          "name": "tokenContract",
          "type": "address"
        },
        {
          "indexed": true,
          "internalType": "uint256",
          "name": "tokenId",
          "type": "uint256"
        },
        {
          "indexed": false,
          "internalType": "address",
          "name": "recipient",
          "type": "address"
        },
        {
          "indexed": false,
          "internalType": "uint256",
          "name": "amount",
          "type": "uint256"
        }
      ],
      "name": "RoyaltyPayout",
      "type": "event"
    },
    {
      "inputs": [
        {
          "internalType": "address",
          "name": "_tokenContract",
          "type": "address"
        },
        {
          "internalType": "uint256",
          "name": "_tokenId",
          "type": "uint256"
        },
        {
          "internalType": "uint256",
          "name": "_amount",
          "type": "uint256"
        },
        {
          "internalType": "address",
          "name": "_payoutCurrency",
          "type": "address"
        }
      ],
      "name": "_handleRoyaltyEnginePayout",
      "outputs": [
        {
          "internalType": "uint256",
          "name": "",
          "type": "uint256"
        }
      ],
      "stateMutability": "payable",
      "type": "function"
    },
    {
      "inputs": [
        {
          "internalType": "address",
          "name": "",
          "type": "address"
        },
        {
          "internalType": "uint256",
          "name": "",
          "type": "uint256"
        }
      ],
      "name": "auctionForNFT",
      "outputs": [
        {
          "internalType": "address",
          "name": "seller",
          "type": "address"
        },
        {
          "internalType": "uint96",
          "name": "reservePrice",
          "type": "uint96"
        },
        {
          "internalType": "address",
          "name": "sellerFundsRecipient",
          "type": "address"
        },
        {
          "internalType": "uint96",
          "name": "highestBid",
          "type": "uint96"
        },
        {
          "internalType": "address",
          "name": "highestBidder",
          "type": "address"
        },
        {
          "internalType": "uint48",
          "name": "duration",
          "type": "uint48"
        },
        {
          "internalType": "uint48",
          "name": "startTime",
          "type": "uint48"
        },
        {
          "internalType": "address",
          "name": "listingFeeRecipient",
          "type": "address"
        },
        {
          "internalType": "uint80",
          "name": "firstBidTime",
          "type": "uint80"
        },
        {
          "internalType": "uint16",
          "name": "listingFeeBps",
          "type": "uint16"
        }
      ],
      "stateMutability": "view",
      "type": "function"
    },
    {
      "inputs": [
        {
          "internalType": "address",
          "name": "_tokenContract",
          "type": "address"
        },
        {
          "internalType": "uint256",
          "name": "_tokenId",
          "type": "uint256"
        }
      ],
      "name": "cancelAuction",
      "outputs": [],
      "stateMutability": "nonpayable",
      "type": "function"
    },
    {
      "inputs": [
        {
          "internalType": "address",
          "name": "_tokenContract",
          "type": "address"
        },
        {
          "internalType": "uint256",
          "name": "_tokenId",
          "type": "uint256"
        },
        {
          "internalType": "uint256",
          "name": "_duration",
          "type": "uint256"
        },
        {
          "internalType": "uint256",
          "name": "_reservePrice",
          "type": "uint256"
        },
        {
          "internalType": "address",
          "name": "_sellerFundsRecipient",
          "type": "address"
        },
        {
          "internalType": "uint256",
          "name": "_startTime",
          "type": "uint256"
        },
        {
          "internalType": "uint256",
          "name": "_listingFeeBps",
          "type": "uint256"
        },
        {
          "internalType": "address",
          "name": "_listingFeeRecipient",
          "type": "address"
        }
      ],
      "name": "createAuction",
      "outputs": [],
      "stateMutability": "nonpayable",
      "type": "function"
    },
    {
      "inputs": [
        {
          "internalType": "address",
          "name": "_tokenContract",
          "type": "address"
        },
        {
          "internalType": "uint256",
          "name": "_tokenId",
          "type": "uint256"
        }
      ],
      "name": "createBid",
      "outputs": [],
      "stateMutability": "payable",
      "type": "function"
    },
    {
      "inputs": [],
      "name": "erc721TransferHelper",
      "outputs": [
        {
          "internalType": "contract ERC721TransferHelper",
          "name": "",
          "type": "address"
        }
      ],
      "stateMutability": "view",
      "type": "function"
    },
    {
      "inputs": [],
      "name": "name",
      "outputs": [
        {
          "internalType": "string",
          "name": "",
          "type": "string"
        }
      ],
      "stateMutability": "view",
      "type": "function"
    },
    {
      "inputs": [],
      "name": "registrar",
      "outputs": [
        {
          "internalType": "address",
          "name": "",
          "type": "address"
        }
      ],
      "stateMutability": "view",
      "type": "function"
    },
    {
      "inputs": [
        {
          "internalType": "address",
          "name": "_tokenContract",
          "type": "address"
        },
        {
          "internalType": "uint256",
          "name": "_tokenId",
          "type": "uint256"
        },
        {
          "internalType": "uint256",
          "name": "_reservePrice",
          "type": "uint256"
        }
      ],
      "name": "setAuctionReservePrice",
      "outputs": [],
      "stateMutability": "nonpayable",
      "type": "function"
    },
    {
      "inputs": [
        {
          "internalType": "address",
          "name": "_royaltyEngine",
          "type": "address"
        }
      ],
      "name": "setRoyaltyEngineAddress",
      "outputs": [],
      "stateMutability": "nonpayable",
      "type": "function"
    },
    {
      "inputs": [
        {
          "internalType": "address",
          "name": "_tokenContract",
          "type": "address"
        },
        {
          "internalType": "uint256",
          "name": "_tokenId",
          "type": "uint256"
        }
      ],
      "name": "settleAuction",
      "outputs": [],
      "stateMutability": "nonpayable",
      "type": "function"
    },
    {
      "inputs": [
        {
          "internalType": "bytes4",
          "name": "_interfaceId",
          "type": "bytes4"
        }
      ],
      "name": "supportsInterface",
      "outputs": [
        {
          "internalType": "bool",
          "name": "",
          "type": "bool"
        }
      ],
      "stateMutability": "pure",
      "type": "function"
    }
  ],
  "bytecode": {
    "object": "0x61010060405260016000553480156200001757600080fd5b5060405162003527380380620035278339810160408190526200003a916200025a565b6040518060400160405280601b81526020017f526573657276652041756374696f6e204c697374696e67204554480000000000815250838383876001600160a01b031663e3e606f06040518163ffffffff1660e01b8152600401602060405180830381865afa158015620000b2573d6000803e3d6000fd5b505050506040513d601f19601f82011682018060405250810190620000d89190620002c2565b6001600160a01b0316632b20e3976040518163ffffffff1660e01b8152600401602060405180830381865afa15801562000116573d6000803e3d6000fd5b505050506040513d601f19601f820116820180604052508101906200013c9190620002c2565b6001600160a01b03918216608052600180546001600160a01b0319169483169490941790935590811660c0521660a0528051620001819060029060208401906200019b565b5050506001600160a01b0390921660e05250620003269050565b828054620001a990620002e9565b90600052602060002090601f016020900481019282620001cd576000855562000218565b82601f10620001e857805160ff191683800117855562000218565b8280016001018555821562000218579182015b8281111562000218578251825591602001919060010190620001fb565b50620002269291506200022a565b5090565b5b808211156200022657600081556001016200022b565b6001600160a01b03811681146200025757600080fd5b50565b600080600080608085870312156200027157600080fd5b84516200027e8162000241565b6020860151909450620002918162000241565b6040860151909350620002a48162000241565b6060860151909250620002b78162000241565b939692955090935050565b600060208284031215620002d557600080fd5b8151620002e28162000241565b9392505050565b600181811c90821680620002fe57607f821691505b602082108114156200032057634e487b7160e01b600052602260045260246000fd5b50919050565b60805160a05160c05160e0516131ab6200037c600039600081816103f90152610cc001526000818161209901526121450152600081816101350152611b5f01526000818161234701526123df01526131ab6000f3fe6080604052600436106100c75760003560e01c80639128c22c11610074578063b249bb301161004e578063b249bb30146103a7578063cbe98dba146103c7578063f7cd1d9b146103e757600080fd5b80639128c22c146101d157806395351f36146101f2578063a90832a11461021257600080fd5b80635138b08c116100a55780635138b08c1461017c57806370a7eba91461019e578063859b97fe146101b157600080fd5b806301ffc9a7146100cc57806306fdde03146101015780632b20e39714610123575b600080fd5b3480156100d857600080fd5b506100ec6100e73660046128fb565b61041b565b60405190151581526020015b60405180910390f35b34801561010d57600080fd5b506101166104b4565b6040516100f89190612969565b34801561012f57600080fd5b506101577f000000000000000000000000000000000000000000000000000000000000000081565b60405173ffffffffffffffffffffffffffffffffffffffff90911681526020016100f8565b34801561018857600080fd5b5061019c6101973660046129df565b610542565b005b61019c6101ac3660046129df565b61099e565b3480156101bd57600080fd5b5061019c6101cc3660046129df565b610fa6565b6101e46101df366004612a0b565b61137d565b6040519081526020016100f8565b3480156101fe57600080fd5b5061019c61020d366004612a55565b611622565b34801561021e57600080fd5b5061031761022d3660046129df565b60036020818152600093845260408085209091529183529120805460018201546002830154929093015473ffffffffffffffffffffffffffffffffffffffff8083169474010000000000000000000000000000000000000000938490046bffffffffffffffffffffffff908116958383169592839004909116938382169383830465ffffffffffff908116947a01000000000000000000000000000000000000000000000000000090940416929082169190810469ffffffffffffffffffff16907e01000000000000000000000000000000000000000000000000000000000000900461ffff168a565b6040805173ffffffffffffffffffffffffffffffffffffffff9b8c1681526bffffffffffffffffffffffff9a8b166020820152988b1690890152979095166060870152928716608086015265ffffffffffff91821660a08601521660c08401529390931660e082015269ffffffffffffffffffff90921661010083015261ffff16610120820152610140016100f8565b3480156103b357600080fd5b5061019c6103c2366004612ad1565b611b47565b3480156103d357600080fd5b5061019c6103e2366004612aee565b611d09565b3480156103f357600080fd5b506101577f000000000000000000000000000000000000000000000000000000000000000081565b60007fffffffff0000000000000000000000000000000000000000000000000000000082167ffad85e570000000000000000000000000000000000000000000000000000000014806104ae57507f01ffc9a7000000000000000000000000000000000000000000000000000000007fffffffff000000000000000000000000000000000000000000000000000000008316145b92915050565b600280546104c190612b23565b80601f01602080910402602001604051908101604052809291908181526020018280546104ed90612b23565b801561053a5780601f1061050f5761010080835404028352916020019161053a565b820191906000526020600020905b81548152906001019060200180831161051d57829003601f168201915b505050505081565b6000546001146105b3576040517f08c379a000000000000000000000000000000000000000000000000000000000815260206004820152600a60248201527f5245454e5452414e43590000000000000000000000000000000000000000000060448201526064015b60405180910390fd5b6002600081815573ffffffffffffffffffffffffffffffffffffffff84811682526003602081815260408085208786528252938490208451610140810186528154808616825274010000000000000000000000000000000000000000908190046bffffffffffffffffffffffff9081169483019490945260018301548087169783019790975295869004909216606083015294850154808416608083015284810465ffffffffffff90811660a08401527a0100000000000000000000000000000000000000000000000000009091041660c082015293015490811660e084015290810469ffffffffffffffffffff1661010083018190527e0100000000000000000000000000000000000000000000000000000000000090910461ffff166101208301528061073e576040517f08c379a000000000000000000000000000000000000000000000000000000000815260206004820152601360248201527f41554354494f4e5f4e4f545f535441525445440000000000000000000000000060448201526064016105aa565b60a08201516107559065ffffffffffff1682612ba6565b4210156107be576040517f08c379a000000000000000000000000000000000000000000000000000000000815260206004820152601060248201527f41554354494f4e5f4e4f545f4f5645520000000000000000000000000000000060448201526064016105aa565b60006107e3858585606001516bffffffffffffffffffffffff166000620493e0611f44565b5090506107f181600061204a565b60e084015190915073ffffffffffffffffffffffffffffffffffffffff81161561085857600061271085610120015161ffff168461082f9190612bbe565b6108399190612bfb565b905061084a8282600061c3506121e8565b6108548184612c36565b9250505b61086b846040015183600061c3506121e8565b60808401516040517f23b872dd00000000000000000000000000000000000000000000000000000000815230600482015273ffffffffffffffffffffffffffffffffffffffff918216602482015260448101879052908716906323b872dd90606401600060405180830381600087803b1580156108e757600080fd5b505af11580156108fb573d6000803e3d6000fd5b50505050848673ffffffffffffffffffffffffffffffffffffffff167f63f2e8137a051fe1c1458eb3c749d1e217f48dee1c1a37eba679273cc635ca42866040516109469190612c4d565b60405180910390a350505073ffffffffffffffffffffffffffffffffffffffff909216600090815260036020818152604080842094845293905291812081815560018082018390556002820183905592018190555550565b600054600114610a0a576040517f08c379a000000000000000000000000000000000000000000000000000000000815260206004820152600a60248201527f5245454e5452414e43590000000000000000000000000000000000000000000060448201526064016105aa565b6002600090815573ffffffffffffffffffffffffffffffffffffffff8084168252600360209081526040808420858552909152909120805490911680610aac576040517f08c379a000000000000000000000000000000000000000000000000000000000815260206004820152601660248201527f41554354494f4e5f444f45535f4e4f545f45584953540000000000000000000060448201526064016105aa565b60028201547a010000000000000000000000000000000000000000000000000000900465ffffffffffff16421015610b40576040517f08c379a000000000000000000000000000000000000000000000000000000000815260206004820152601360248201527f41554354494f4e5f4e4f545f535441525445440000000000000000000000000060448201526064016105aa565b6003820154600283015469ffffffffffffffffffff7401000000000000000000000000000000000000000092839004169165ffffffffffff910416600082610d235784547401000000000000000000000000000000000000000090046bffffffffffffffffffffffff16341015610c13576040517f08c379a000000000000000000000000000000000000000000000000000000000815260206004820152601560248201527f524553455256455f50524943455f4e4f545f4d4554000000000000000000000060448201526064016105aa565b506003840180547fffff00000000000000000000ffffffffffffffffffffffffffffffffffffffff16740100000000000000000000000000000000000000004269ffffffffffffffffffff16021790556040517f15dacbea00000000000000000000000000000000000000000000000000000000815273ffffffffffffffffffffffffffffffffffffffff87811660048301528481166024830152306044830152606482018790526001917f0000000000000000000000000000000000000000000000000000000000000000909116906315dacbea90608401600060405180830381600087803b158015610d0657600080fd5b505af1158015610d1a573d6000803e3d6000fd5b50505050610e60565b610d2d8284612ba6565b4210610d95576040517f08c379a000000000000000000000000000000000000000000000000000000000815260206004820152600c60248201527f41554354494f4e5f4f564552000000000000000000000000000000000000000060448201526064016105aa565b60018501547401000000000000000000000000000000000000000090046bffffffffffffffffffffffff166064600a820204810134811115610e33576040517f08c379a000000000000000000000000000000000000000000000000000000000815260206004820152601360248201527f4d494e494d554d5f4249445f4e4f545f4d45540000000000000000000000000060448201526064016105aa565b6002870154610e5d9073ffffffffffffffffffffffffffffffffffffffff1683600061c3506121e8565b50505b6001850180546bffffffffffffffffffffffff3416740100000000000000000000000000000000000000000273ffffffffffffffffffffffffffffffffffffffff9091161790556002850180547fffffffffffffffffffffffff0000000000000000000000000000000000000000163317905560004284840103610384811015610f435760028701805465ffffffffffff74010000000000000000000000000000000000000000808304821661038486900301909116027fffffffffffff000000000000ffffffffffffffffffffffffffffffffffffffff909116179055600191505b878973ffffffffffffffffffffffffffffffffffffffff167fc82b4e00ded4316af839e6d3e19e6f3cacb51a22c743ef508470d89b7046e7da85858b604051610f8e93929190612d85565b60405180910390a35050600160005550505050505050565b600054600114611012576040517f08c379a000000000000000000000000000000000000000000000000000000000815260206004820152600a60248201527f5245454e5452414e43590000000000000000000000000000000000000000000060448201526064016105aa565b6002600081815573ffffffffffffffffffffffffffffffffffffffff84811682526003602081815260408085208786528252938490208451610140810186528154808616825274010000000000000000000000000000000000000000908190046bffffffffffffffffffffffff9081169483019490945260018301548087169783019790975295869004909216606083015294850154808416608083015284810465ffffffffffff90811660a08401527a0100000000000000000000000000000000000000000000000000009091041660c082015293015490811660e084015290810469ffffffffffffffffffff1661010083018190527e0100000000000000000000000000000000000000000000000000000000000090910461ffff166101208301521561119d576040517f08c379a000000000000000000000000000000000000000000000000000000000815260206004820152600f60248201527f41554354494f4e5f53544152544544000000000000000000000000000000000060448201526064016105aa565b805173ffffffffffffffffffffffffffffffffffffffff1633148061127b57506040517f6352211e0000000000000000000000000000000000000000000000000000000081526004810183905273ffffffffffffffffffffffffffffffffffffffff841690636352211e90602401602060405180830381865afa158015611228573d6000803e3d6000fd5b505050506040513d601f19601f8201168201806040525081019061124c9190612e2b565b73ffffffffffffffffffffffffffffffffffffffff163373ffffffffffffffffffffffffffffffffffffffff16145b6112e1576040517f08c379a000000000000000000000000000000000000000000000000000000000815260206004820152601a60248201527f4f4e4c595f53454c4c45525f4f525f544f4b454e5f4f574e455200000000000060448201526064016105aa565b818373ffffffffffffffffffffffffffffffffffffffff167f3cd98da27031b43bc858c944e715af0224d928b768ac872218c3cbc0246199c6836040516113289190612c4d565b60405180910390a35073ffffffffffffffffffffffffffffffffffffffff9091166000908152600360208181526040808420948452939052918120818155600180820183905560028201839055920181905555565b600033301461140e576040517f08c379a000000000000000000000000000000000000000000000000000000000815260206004820152602d60248201527f5f68616e646c65526f79616c7479456e67696e655061796f7574206f6e6c792060448201527f73656c662063616c6c61626c650000000000000000000000000000000000000060648201526084016105aa565b6001546040517ff533b80200000000000000000000000000000000000000000000000000000000815273ffffffffffffffffffffffffffffffffffffffff87811660048301526024820187905260448201869052600092839291169063f533b802906064016000604051808303816000875af1158015611492573d6000803e3d6000fd5b505050506040513d6000823e601f3d9081017fffffffffffffffffffffffffffffffffffffffffffffffffffffffffffffffe01682016040526114d89190810190612f55565b81519193509150806114ef5785935050505061161a565b85600080805b848110156116105786818151811061150f5761150f61301a565b6020026020010151925085818151811061152b5761152b61301a565b602002602001015191508184101561159f576040517f08c379a000000000000000000000000000000000000000000000000000000000815260206004820152600960248201527f696e736f6c76656e74000000000000000000000000000000000000000000000060448201526064016105aa565b6115ad83838b61c3506121e8565b6040805173ffffffffffffffffffffffffffffffffffffffff8581168252602082018590528d92908f16917f866e6ef8682ddf5f1025e64dfdb45527077f7be70fa9ef680b7ffd8cf4ab9c50910160405180910390a392819003926001016114f5565b5091955050505050505b949350505050565b60005460011461168e576040517f08c379a000000000000000000000000000000000000000000000000000000000815260206004820152600a60248201527f5245454e5452414e43590000000000000000000000000000000000000000000060448201526064016105aa565b600260009081556040517f6352211e0000000000000000000000000000000000000000000000000000000081526004810189905273ffffffffffffffffffffffffffffffffffffffff8a1690636352211e90602401602060405180830381865afa158015611700573d6000803e3d6000fd5b505050506040513d601f19601f820116820180604052508101906117249190612e2b565b90503373ffffffffffffffffffffffffffffffffffffffff821614806117db57506040517fe985e9c500000000000000000000000000000000000000000000000000000000815273ffffffffffffffffffffffffffffffffffffffff82811660048301523360248301528a169063e985e9c590604401602060405180830381865afa1580156117b7573d6000803e3d6000fd5b505050506040513d601f19601f820116820180604052508101906117db9190613049565b611841576040517f08c379a000000000000000000000000000000000000000000000000000000000815260206004820152601c60248201527f4f4e4c595f544f4b454e5f4f574e45525f4f525f4f50455241544f520000000060448201526064016105aa565b73ffffffffffffffffffffffffffffffffffffffff85166118be576040517f08c379a000000000000000000000000000000000000000000000000000000000815260206004820152601760248201527f494e56414c49445f46554e44535f524543495049454e5400000000000000000060448201526064016105aa565b61271083111561192a576040517f08c379a000000000000000000000000000000000000000000000000000000000815260206004820152601360248201527f494e56414c49445f4c495354494e475f4645450000000000000000000000000060448201526064016105aa565b6000600360008b73ffffffffffffffffffffffffffffffffffffffff1673ffffffffffffffffffffffffffffffffffffffff16815260200190815260200160002060008a81526020019081526020016000209050818160000160006101000a81548173ffffffffffffffffffffffffffffffffffffffff021916908373ffffffffffffffffffffffffffffffffffffffff160217905550868160000160146101000a8154816bffffffffffffffffffffffff02191690836bffffffffffffffffffffffff160217905550858160010160006101000a81548173ffffffffffffffffffffffffffffffffffffffff021916908373ffffffffffffffffffffffffffffffffffffffff160217905550878160020160146101000a81548165ffffffffffff021916908365ffffffffffff1602179055508481600201601a6101000a81548165ffffffffffff021916908365ffffffffffff160217905550828160030160006101000a81548173ffffffffffffffffffffffffffffffffffffffff021916908373ffffffffffffffffffffffffffffffffffffffff1602179055508381600301601e6101000a81548161ffff021916908361ffff160217905550888a73ffffffffffffffffffffffffffffffffffffffff167f8d594ef04d912286e9ef35545765b4942b8c5955a05d2acd1347f5fef31ba10183604051611b2e919061306b565b60405180910390a3505060016000555050505050505050565b3373ffffffffffffffffffffffffffffffffffffffff7f00000000000000000000000000000000000000000000000000000000000000001614611c0c576040517f08c379a000000000000000000000000000000000000000000000000000000000815260206004820152602660248201527f736574526f79616c7479456e67696e6541646472657373206f6e6c792072656760448201527f697374726172000000000000000000000000000000000000000000000000000060648201526084016105aa565b611c36817fcb23f81600000000000000000000000000000000000000000000000000000000612438565b611cc2576040517f08c379a000000000000000000000000000000000000000000000000000000000815260206004820152603d60248201527f736574526f79616c7479456e67696e6541646472657373206d757374206d617460448201527f63682049526f79616c7479456e67696e65563120696e7465726661636500000060648201526084016105aa565b600180547fffffffffffffffffffffffff00000000000000000000000000000000000000001673ffffffffffffffffffffffffffffffffffffffff92909216919091179055565b600054600114611d75576040517f08c379a000000000000000000000000000000000000000000000000000000000815260206004820152600a60248201527f5245454e5452414e43590000000000000000000000000000000000000000000060448201526064016105aa565b6002600090815573ffffffffffffffffffffffffffffffffffffffff841681526003602081815260408084208685529091529091209081015474010000000000000000000000000000000000000000900469ffffffffffffffffffff1615611e39576040517f08c379a000000000000000000000000000000000000000000000000000000000815260206004820152600f60248201527f41554354494f4e5f53544152544544000000000000000000000000000000000060448201526064016105aa565b805473ffffffffffffffffffffffffffffffffffffffff163314611eb9576040517f08c379a000000000000000000000000000000000000000000000000000000000815260206004820152600b60248201527f4f4e4c595f53454c4c455200000000000000000000000000000000000000000060448201526064016105aa565b80546bffffffffffffffffffffffff8316740100000000000000000000000000000000000000000273ffffffffffffffffffffffffffffffffffffffff91821617825560405184918616907f70def19a51ef96d3b2bfacea88d97cc15f04747fd77a4453df24a182734492f890611f3190859061306b565b60405180910390a3505060016000555050565b60008080831580611f5457505a84115b611f5e5783611f60565b5a5b6040517f9128c22c00000000000000000000000000000000000000000000000000000000815273ffffffffffffffffffffffffffffffffffffffff808b166004830152602482018a905260448201899052871660648201529091503090639128c22c90839060840160206040518083038160008887f193505050508015612022575060408051601f3d9081017fffffffffffffffffffffffffffffffffffffffffffffffffffffffffffffffe016820190925261201f918101906130ff565b60015b612033578560009250925050612040565b9250600191506120409050565b9550959350505050565b6040517f61b485f600000000000000000000000000000000000000000000000000000000815230600482015260248101839052600090819073ffffffffffffffffffffffffffffffffffffffff7f000000000000000000000000000000000000000000000000000000000000000016906361b485f690604401602060405180830381865afa1580156120e0573d6000803e3d6000fd5b505050506040513d601f19601f8201168201806040525081019061210491906130ff565b90508061211457839150506104ae565b6040517f86ab6fb90000000000000000000000000000000000000000000000000000000081523060048201526000907f000000000000000000000000000000000000000000000000000000000000000073ffffffffffffffffffffffffffffffffffffffff16906386ab6fb9906024016040805180830381865afa1580156121a0573d6000803e3d6000fd5b505050506040513d601f19601f820116820180604052508101906121c49190613118565b9150506121d581838661c3506121e8565b6121df8286612c36565b95945050505050565b821580612209575073ffffffffffffffffffffffffffffffffffffffff8416155b1561221357612432565b73ffffffffffffffffffffffffffffffffffffffff821661241157824710156122be576040517f08c379a000000000000000000000000000000000000000000000000000000000815260206004820152602160248201527f5f68616e646c654f7574676f696e675472616e7366657220696e736f6c76656e60448201527f740000000000000000000000000000000000000000000000000000000000000060648201526084016105aa565b60008115806122cc57505a82115b6122d657816122d8565b5a5b905060008573ffffffffffffffffffffffffffffffffffffffff16858390604051600060405180830381858888f193505050503d8060008114612337576040519150601f19603f3d011682016040523d82523d6000602084013e61233c565b606091505b505090508061240a577f000000000000000000000000000000000000000000000000000000000000000073ffffffffffffffffffffffffffffffffffffffff1663d0e30db0866040518263ffffffff1660e01b81526004016000604051808303818588803b1580156123ad57600080fd5b505af11580156123c1573d6000803e3d6000fd5b5061240a93505073ffffffffffffffffffffffffffffffffffffffff7f00000000000000000000000000000000000000000000000000000000000000001691508890508761245b565b5050612432565b61243273ffffffffffffffffffffffffffffffffffffffff8316858561245b565b50505050565b6000612443836124ed565b801561245457506124548383612551565b9392505050565b6040805173ffffffffffffffffffffffffffffffffffffffff8416602482015260448082018490528251808303909101815260649091019091526020810180517bffffffffffffffffffffffffffffffffffffffffffffffffffffffff167fa9059cbb000000000000000000000000000000000000000000000000000000001790526124e890849061268d565b505050565b6000612519827f01ffc9a700000000000000000000000000000000000000000000000000000000612551565b80156104ae575061254a827fffffffff00000000000000000000000000000000000000000000000000000000612551565b1592915050565b604080517fffffffff00000000000000000000000000000000000000000000000000000000831660248083019190915282518083039091018152604490910182526020810180517bffffffffffffffffffffffffffffffffffffffffffffffffffffffff167f01ffc9a7000000000000000000000000000000000000000000000000000000001790529051600091908290819073ffffffffffffffffffffffffffffffffffffffff8716906175309061260b908690613159565b6000604051808303818686fa925050503d8060008114612647576040519150601f19603f3d011682016040523d82523d6000602084013e61264c565b606091505b509150915060208151101561266757600093505050506104ae565b8180156126835750808060200190518101906126839190613049565b9695505050505050565b60006126ef826040518060400160405280602081526020017f5361666545524332303a206c6f772d6c6576656c2063616c6c206661696c65648152508573ffffffffffffffffffffffffffffffffffffffff166127999092919063ffffffff16565b8051909150156124e8578080602001905181019061270d9190613049565b6124e8576040517f08c379a000000000000000000000000000000000000000000000000000000000815260206004820152602a60248201527f5361666545524332303a204552433230206f7065726174696f6e20646964206e60448201527f6f7420737563636565640000000000000000000000000000000000000000000060648201526084016105aa565b606061161a84846000858573ffffffffffffffffffffffffffffffffffffffff85163b612822576040517f08c379a000000000000000000000000000000000000000000000000000000000815260206004820152601d60248201527f416464726573733a2063616c6c20746f206e6f6e2d636f6e747261637400000060448201526064016105aa565b6000808673ffffffffffffffffffffffffffffffffffffffff16858760405161284b9190613159565b60006040518083038185875af1925050503d8060008114612888576040519150601f19603f3d011682016040523d82523d6000602084013e61288d565b606091505b509150915061289d8282866128a8565b979650505050505050565b606083156128b7575081612454565b8251156128c75782518084602001fd5b816040517f08c379a00000000000000000000000000000000000000000000000000000000081526004016105aa9190612969565b60006020828403121561290d57600080fd5b81357fffffffff000000000000000000000000000000000000000000000000000000008116811461245457600080fd5b60005b83811015612958578181015183820152602001612940565b838111156124325750506000910152565b602081526000825180602084015261298881604085016020870161293d565b601f017fffffffffffffffffffffffffffffffffffffffffffffffffffffffffffffffe0169190910160400192915050565b73ffffffffffffffffffffffffffffffffffffffff811681146129dc57600080fd5b50565b600080604083850312156129f257600080fd5b82356129fd816129ba565b946020939093013593505050565b60008060008060808587031215612a2157600080fd5b8435612a2c816129ba565b935060208501359250604085013591506060850135612a4a816129ba565b939692955090935050565b600080600080600080600080610100898b031215612a7257600080fd5b8835612a7d816129ba565b97506020890135965060408901359550606089013594506080890135612aa2816129ba565b935060a0890135925060c0890135915060e0890135612ac0816129ba565b809150509295985092959890939650565b600060208284031215612ae357600080fd5b8135612454816129ba565b600080600060608486031215612b0357600080fd5b8335612b0e816129ba565b95602085013595506040909401359392505050565b600181811c90821680612b3757607f821691505b60208210811415612b71577f4e487b7100000000000000000000000000000000000000000000000000000000600052602260045260246000fd5b50919050565b7f4e487b7100000000000000000000000000000000000000000000000000000000600052601160045260246000fd5b60008219821115612bb957612bb9612b77565b500190565b6000817fffffffffffffffffffffffffffffffffffffffffffffffffffffffffffffffff0483118215151615612bf657612bf6612b77565b500290565b600082612c31577f4e487b7100000000000000000000000000000000000000000000000000000000600052601260045260246000fd5b500490565b600082821015612c4857612c48612b77565b500390565b815173ffffffffffffffffffffffffffffffffffffffff16815261014081016020830151612c8b60208401826bffffffffffffffffffffffff169052565b506040830151612cb3604084018273ffffffffffffffffffffffffffffffffffffffff169052565b506060830151612cd360608401826bffffffffffffffffffffffff169052565b506080830151612cfb608084018273ffffffffffffffffffffffffffffffffffffffff169052565b5060a0830151612d1560a084018265ffffffffffff169052565b5060c0830151612d2f60c084018265ffffffffffff169052565b5060e0830151612d5760e084018273ffffffffffffffffffffffffffffffffffffffff169052565b506101008381015169ffffffffffffffffffff16908301526101209283015161ffff16929091019190915290565b83151581528215156020820152815473ffffffffffffffffffffffffffffffffffffffff808216604084015260a091821c606084015260018401548082166080850152821c82840152600284015480821660c085015280831c65ffffffffffff1660e085015260d01c61010084015260038401549081166101208401529081901c69ffffffffffffffffffff1661014083015260f01c610160820152610180810161161a565b600060208284031215612e3d57600080fd5b8151612454816129ba565b7f4e487b7100000000000000000000000000000000000000000000000000000000600052604160045260246000fd5b604051601f82017fffffffffffffffffffffffffffffffffffffffffffffffffffffffffffffffe016810167ffffffffffffffff81118282101715612ebe57612ebe612e48565b604052919050565b600067ffffffffffffffff821115612ee057612ee0612e48565b5060051b60200190565b600082601f830112612efb57600080fd5b81516020612f10612f0b83612ec6565b612e77565b82815260059290921b84018101918181019086841115612f2f57600080fd5b8286015b84811015612f4a5780518352918301918301612f33565b509695505050505050565b60008060408385031215612f6857600080fd5b825167ffffffffffffffff80821115612f8057600080fd5b818501915085601f830112612f9457600080fd5b81516020612fa4612f0b83612ec6565b82815260059290921b84018101918181019089841115612fc357600080fd5b948201945b83861015612fea578551612fdb816129ba565b82529482019490820190612fc8565b9188015191965090935050508082111561300357600080fd5b5061301085828601612eea565b9150509250929050565b7f4e487b7100000000000000000000000000000000000000000000000000000000600052603260045260246000fd5b60006020828403121561305b57600080fd5b8151801515811461245457600080fd5b815473ffffffffffffffffffffffffffffffffffffffff808216835260a091821c602084015260018401548082166040850152821c60608401526002840154808216608085015280831c65ffffffffffff168385015260d01c60c0840152600384015490811660e08401529081901c69ffffffffffffffffffff1661010083015260f01c61012082015261014081016104ae565b60006020828403121561311157600080fd5b5051919050565b6000806040838503121561312b57600080fd5b825161ffff8116811461313d57600080fd5b602084015190925061314e816129ba565b809150509250929050565b6000825161316b81846020870161293d565b919091019291505056fea26469706673582212203db33c54b903e70c9a64256f806c34e2f214093901cbf149fa516259cb8e049564736f6c634300080a0033",
    "linkReferences": {}
  },
  "methodIdentifiers": {
    "_handleRoyaltyEnginePayout(address,uint256,uint256,address)": "9128c22c",
    "auctionForNFT(address,uint256)": "a90832a1",
    "cancelAuction(address,uint256)": "859b97fe",
    "createAuction(address,uint256,uint256,uint256,address,uint256,uint256,address)": "95351f36",
    "createBid(address,uint256)": "70a7eba9",
    "erc721TransferHelper()": "f7cd1d9b",
    "name()": "06fdde03",
    "registrar()": "2b20e397",
    "setAuctionReservePrice(address,uint256,uint256)": "cbe98dba",
    "setRoyaltyEngineAddress(address)": "b249bb30",
    "settleAuction(address,uint256)": "5138b08c",
    "supportsInterface(bytes4)": "01ffc9a7"
  },
  "id": 51
}