{
  "abi": [
    {
      "inputs": [
        {
          "internalType": "address",
          "name": "_erc20TransferHelper",
          "type": "address"
        },
        {
          "internalType": "address",
          "name": "_erc721TransferHelper",
          "type": "address"
        },
        {
          "internalType": "address",
          "name": "_royaltyEngine",
          "type": "address"
        },
        {
          "internalType": "address",
          "name": "_protocolFeeSettings",
          "type": "address"
        },
        {
          "internalType": "address",
          "name": "_wethAddress",
          "type": "address"
        }
      ],
      "stateMutability": "nonpayable",
      "type": "constructor"
    },
    {
      "anonymous": false,
      "inputs": [
        {
          "indexed": true,
          "internalType": "address",
          "name": "userA",
          "type": "address"
        },
        {
          "indexed": true,
          "internalType": "address",
          "name": "userB",
          "type": "address"
        },
        {
          "components": [
            {
              "internalType": "address",
              "name": "tokenContract",
              "type": "address"
            },
            {
              "internalType": "uint256",
              "name": "tokenId",
              "type": "uint256"
            },
            {
              "internalType": "uint256",
              "name": "amount",
              "type": "uint256"
            }
          ],
          "indexed": false,
          "internalType": "struct UniversalExchangeEventV1.ExchangeDetails",
          "name": "a",
          "type": "tuple"
        },
        {
          "components": [
            {
              "internalType": "address",
              "name": "tokenContract",
              "type": "address"
            },
            {
              "internalType": "uint256",
              "name": "tokenId",
              "type": "uint256"
            },
            {
              "internalType": "uint256",
              "name": "amount",
              "type": "uint256"
            }
          ],
          "indexed": false,
          "internalType": "struct UniversalExchangeEventV1.ExchangeDetails",
          "name": "b",
          "type": "tuple"
        }
      ],
      "name": "ExchangeExecuted",
      "type": "event"
    },
    {
      "anonymous": false,
      "inputs": [
        {
          "indexed": true,
          "internalType": "address",
          "name": "tokenContract",
          "type": "address"
        },
        {
          "indexed": true,
          "internalType": "uint256",
          "name": "tokenId",
          "type": "uint256"
        },
        {
          "indexed": true,
          "internalType": "uint256",
          "name": "id",
          "type": "uint256"
        },
        {
          "components": [
            {
              "internalType": "address",
              "name": "maker",
              "type": "address"
            },
            {
              "internalType": "address",
              "name": "currency",
              "type": "address"
            },
            {
              "internalType": "uint16",
              "name": "findersFeeBps",
              "type": "uint16"
            },
            {
              "internalType": "uint256",
              "name": "amount",
              "type": "uint256"
            }
          ],
          "indexed": false,
          "internalType": "struct OffersV1.Offer",
          "name": "offer",
          "type": "tuple"
        }
      ],
      "name": "OfferCanceled",
      "type": "event"
    },
    {
      "anonymous": false,
      "inputs": [
        {
          "indexed": true,
          "internalType": "address",
          "name": "tokenContract",
          "type": "address"
        },
        {
          "indexed": true,
          "internalType": "uint256",
          "name": "tokenId",
          "type": "uint256"
        },
        {
          "indexed": true,
          "internalType": "uint256",
          "name": "id",
          "type": "uint256"
        },
        {
          "components": [
            {
              "internalType": "address",
              "name": "maker",
              "type": "address"
            },
            {
              "internalType": "address",
              "name": "currency",
              "type": "address"
            },
            {
              "internalType": "uint16",
              "name": "findersFeeBps",
              "type": "uint16"
            },
            {
              "internalType": "uint256",
              "name": "amount",
              "type": "uint256"
            }
          ],
          "indexed": false,
          "internalType": "struct OffersV1.Offer",
          "name": "offer",
          "type": "tuple"
        }
      ],
      "name": "OfferCreated",
      "type": "event"
    },
    {
      "anonymous": false,
      "inputs": [
        {
          "indexed": true,
          "internalType": "address",
          "name": "tokenContract",
          "type": "address"
        },
        {
          "indexed": true,
          "internalType": "uint256",
          "name": "tokenId",
          "type": "uint256"
        },
        {
          "indexed": true,
          "internalType": "uint256",
          "name": "id",
          "type": "uint256"
        },
        {
          "indexed": false,
          "internalType": "address",
          "name": "taker",
          "type": "address"
        },
        {
          "indexed": false,
          "internalType": "address",
          "name": "finder",
          "type": "address"
        },
        {
          "components": [
            {
              "internalType": "address",
              "name": "maker",
              "type": "address"
            },
            {
              "internalType": "address",
              "name": "currency",
              "type": "address"
            },
            {
              "internalType": "uint16",
              "name": "findersFeeBps",
              "type": "uint16"
            },
            {
              "internalType": "uint256",
              "name": "amount",
              "type": "uint256"
            }
          ],
          "indexed": false,
          "internalType": "struct OffersV1.Offer",
          "name": "offer",
          "type": "tuple"
        }
      ],
      "name": "OfferFilled",
      "type": "event"
    },
    {
      "anonymous": false,
      "inputs": [
        {
          "indexed": true,
          "internalType": "address",
          "name": "tokenContract",
          "type": "address"
        },
        {
          "indexed": true,
          "internalType": "uint256",
          "name": "tokenId",
          "type": "uint256"
        },
        {
          "indexed": true,
          "internalType": "uint256",
          "name": "id",
          "type": "uint256"
        },
        {
          "components": [
            {
              "internalType": "address",
              "name": "maker",
              "type": "address"
            },
            {
              "internalType": "address",
              "name": "currency",
              "type": "address"
            },
            {
              "internalType": "uint16",
              "name": "findersFeeBps",
              "type": "uint16"
            },
            {
              "internalType": "uint256",
              "name": "amount",
              "type": "uint256"
            }
          ],
          "indexed": false,
          "internalType": "struct OffersV1.Offer",
          "name": "offer",
          "type": "tuple"
        }
      ],
      "name": "OfferUpdated",
      "type": "event"
    },
    {
      "anonymous": false,
      "inputs": [
        {
          "indexed": true,
          "internalType": "address",
          "name": "tokenContract",
          "type": "address"
        },
        {
          "indexed": true,
          "internalType": "uint256",
          "name": "tokenId",
          "type": "uint256"
        },
        {
          "indexed": false,
          "internalType": "address",
          "name": "recipient",
          "type": "address"
        },
        {
          "indexed": false,
          "internalType": "uint256",
          "name": "amount",
          "type": "uint256"
        }
      ],
      "name": "RoyaltyPayout",
      "type": "event"
    },
    {
      "inputs": [
        {
          "internalType": "address",
          "name": "_tokenContract",
          "type": "address"
        },
        {
          "internalType": "uint256",
          "name": "_tokenId",
          "type": "uint256"
        },
        {
          "internalType": "uint256",
          "name": "_amount",
          "type": "uint256"
        },
        {
          "internalType": "address",
          "name": "_payoutCurrency",
          "type": "address"
        }
      ],
      "name": "_handleRoyaltyEnginePayout",
      "outputs": [
        {
          "internalType": "uint256",
          "name": "",
          "type": "uint256"
        }
      ],
      "stateMutability": "payable",
      "type": "function"
    },
    {
      "inputs": [
        {
          "internalType": "address",
          "name": "_tokenContract",
          "type": "address"
        },
        {
          "internalType": "uint256",
          "name": "_tokenId",
          "type": "uint256"
        },
        {
          "internalType": "uint256",
          "name": "_offerId",
          "type": "uint256"
        }
      ],
      "name": "cancelOffer",
      "outputs": [],
      "stateMutability": "nonpayable",
      "type": "function"
    },
    {
      "inputs": [
        {
          "internalType": "address",
          "name": "_tokenContract",
          "type": "address"
        },
        {
          "internalType": "uint256",
          "name": "_tokenId",
          "type": "uint256"
        },
        {
          "internalType": "address",
          "name": "_currency",
          "type": "address"
        },
        {
          "internalType": "uint256",
          "name": "_amount",
          "type": "uint256"
        },
        {
          "internalType": "uint16",
          "name": "_findersFeeBps",
          "type": "uint16"
        }
      ],
      "name": "createOffer",
      "outputs": [
        {
          "internalType": "uint256",
          "name": "",
          "type": "uint256"
        }
      ],
      "stateMutability": "payable",
      "type": "function"
    },
    {
      "inputs": [],
      "name": "erc20TransferHelper",
      "outputs": [
        {
          "internalType": "contract ERC20TransferHelper",
          "name": "",
          "type": "address"
        }
      ],
      "stateMutability": "view",
      "type": "function"
    },
    {
      "inputs": [],
      "name": "erc721TransferHelper",
      "outputs": [
        {
          "internalType": "contract ERC721TransferHelper",
          "name": "",
          "type": "address"
        }
      ],
      "stateMutability": "view",
      "type": "function"
    },
    {
      "inputs": [
        {
          "internalType": "address",
          "name": "_tokenContract",
          "type": "address"
        },
        {
          "internalType": "uint256",
          "name": "_tokenId",
          "type": "uint256"
        },
        {
          "internalType": "uint256",
          "name": "_offerId",
          "type": "uint256"
        },
        {
          "internalType": "address",
          "name": "_currency",
          "type": "address"
        },
        {
          "internalType": "uint256",
          "name": "_amount",
          "type": "uint256"
        },
        {
          "internalType": "address",
          "name": "_finder",
          "type": "address"
        }
      ],
      "name": "fillOffer",
      "outputs": [],
      "stateMutability": "nonpayable",
      "type": "function"
    },
    {
      "inputs": [],
      "name": "name",
      "outputs": [
        {
          "internalType": "string",
          "name": "",
          "type": "string"
        }
      ],
      "stateMutability": "view",
      "type": "function"
    },
    {
      "inputs": [],
      "name": "offerCount",
      "outputs": [
        {
          "internalType": "uint256",
          "name": "",
          "type": "uint256"
        }
      ],
      "stateMutability": "view",
      "type": "function"
    },
    {
      "inputs": [
        {
          "internalType": "address",
          "name": "",
          "type": "address"
        },
        {
          "internalType": "uint256",
          "name": "",
          "type": "uint256"
        },
        {
          "internalType": "uint256",
          "name": "",
          "type": "uint256"
        }
      ],
      "name": "offers",
      "outputs": [
        {
          "internalType": "address",
          "name": "maker",
          "type": "address"
        },
        {
          "internalType": "address",
          "name": "currency",
          "type": "address"
        },
        {
          "internalType": "uint16",
          "name": "findersFeeBps",
          "type": "uint16"
        },
        {
          "internalType": "uint256",
          "name": "amount",
          "type": "uint256"
        }
      ],
      "stateMutability": "view",
      "type": "function"
    },
    {
      "inputs": [
        {
          "internalType": "address",
          "name": "",
          "type": "address"
        },
        {
          "internalType": "uint256",
          "name": "",
          "type": "uint256"
        },
        {
          "internalType": "uint256",
          "name": "",
          "type": "uint256"
        }
      ],
      "name": "offersForNFT",
      "outputs": [
        {
          "internalType": "uint256",
          "name": "",
          "type": "uint256"
        }
      ],
      "stateMutability": "view",
      "type": "function"
    },
    {
      "inputs": [],
      "name": "registrar",
      "outputs": [
        {
          "internalType": "address",
          "name": "",
          "type": "address"
        }
      ],
      "stateMutability": "view",
      "type": "function"
    },
    {
      "inputs": [
        {
          "internalType": "address",
          "name": "_tokenContract",
          "type": "address"
        },
        {
          "internalType": "uint256",
          "name": "_tokenId",
          "type": "uint256"
        },
        {
          "internalType": "uint256",
          "name": "_offerId",
          "type": "uint256"
        },
        {
          "internalType": "address",
          "name": "_currency",
          "type": "address"
        },
        {
          "internalType": "uint256",
          "name": "_amount",
          "type": "uint256"
        }
      ],
      "name": "setOfferAmount",
      "outputs": [],
      "stateMutability": "payable",
      "type": "function"
    },
    {
      "inputs": [
        {
          "internalType": "address",
          "name": "_royaltyEngine",
          "type": "address"
        }
      ],
      "name": "setRoyaltyEngineAddress",
      "outputs": [],
      "stateMutability": "nonpayable",
      "type": "function"
    }
  ],
  "bytecode": {
    "object": "0x61012060405260016000553480156200001757600080fd5b5060405162002f9138038062002f918339810160408190526200003a9162000251565b6040518060400160405280600c81526020016b04f66666572733a2076312e360a41b815250838383876001600160a01b031663e3e606f06040518163ffffffff1660e01b8152600401602060405180830381865afa158015620000a1573d6000803e3d6000fd5b505050506040513d601f19601f82011682018060405250810190620000c79190620002d1565b6001600160a01b0316632b20e3976040518163ffffffff1660e01b8152600401602060405180830381865afa15801562000105573d6000803e3d6000fd5b505050506040513d601f19601f820116820180604052508101906200012b9190620002d1565b6001600160a01b038a811660805291821660a052600180546001600160a01b0319169483169490941790935590811660e0521660c05280516200017690600290602084019062000192565b5050506001600160a01b03909216610100525062000335915050565b828054620001a090620002f8565b90600052602060002090601f016020900481019282620001c457600085556200020f565b82601f10620001df57805160ff19168380011785556200020f565b828001600101855582156200020f579182015b828111156200020f578251825591602001919060010190620001f2565b506200021d92915062000221565b5090565b5b808211156200021d576000815560010162000222565b6001600160a01b03811681146200024e57600080fd5b50565b600080600080600060a086880312156200026a57600080fd5b8551620002778162000238565b60208701519095506200028a8162000238565b60408701519094506200029d8162000238565b6060870151909350620002b08162000238565b6080870151909250620002c38162000238565b809150509295509295909350565b600060208284031215620002e457600080fd5b8151620002f18162000238565b9392505050565b600181811c908216806200030d57607f821691505b602082108114156200032f57634e487b7160e01b600052602260045260246000fd5b50919050565b60805160a05160c05160e05161010051612bf46200039d6000396000818161034501526112e4015260008181611dc20152611e6e01526000818161015a01526114e201526000818161182901526118c10152600081816101d90152611ab70152612bf46000f3fe6080604052600436106100d25760003560e01c80638f9d32511161007f578063b249bb3011610059578063b249bb301461022e578063e3b436771461024e578063ebe4634414610313578063f7cd1d9b1461033357600080fd5b80638f9d3251146101c75780639128c22c146101fb57806396bd5a881461020e57600080fd5b80632b20e397116100b05780632b20e3971461014857806354242338146101a15780637157fe1d146101b457600080fd5b806306fdde03146100d75780630e030d6a146101025780631115c24d14610124575b600080fd5b3480156100e357600080fd5b506100ec610367565b6040516100f99190612402565b60405180910390f35b34801561010e57600080fd5b5061012261011d366004612478565b6103f5565b005b34801561013057600080fd5b5061013a60035481565b6040519081526020016100f9565b34801561015457600080fd5b5061017c7f000000000000000000000000000000000000000000000000000000000000000081565b60405173ffffffffffffffffffffffffffffffffffffffff90911681526020016100f9565b6101226101af3660046124ad565b61065a565b61013a6101c236600461250f565b61097a565b3480156101d357600080fd5b5061017c7f000000000000000000000000000000000000000000000000000000000000000081565b61013a61020936600461256e565b610c0f565b34801561021a57600080fd5b506101226102293660046125b8565b610eb4565b34801561023a57600080fd5b5061012261024936600461261f565b6114ca565b34801561025a57600080fd5b506102d2610269366004612478565b600460209081526000938452604080852082529284528284209052825290208054600182015460029092015473ffffffffffffffffffffffffffffffffffffffff918216929182169174010000000000000000000000000000000000000000900461ffff169084565b6040805173ffffffffffffffffffffffffffffffffffffffff958616815294909316602085015261ffff9091169183019190915260608201526080016100f9565b34801561031f57600080fd5b5061013a61032e366004612478565b61168c565b34801561033f57600080fd5b5061017c7f000000000000000000000000000000000000000000000000000000000000000081565b600280546103749061263c565b80601f01602080910402602001604051908101604052809291908181526020018280546103a09061263c565b80156103ed5780601f106103c2576101008083540402835291602001916103ed565b820191906000526020600020905b8154815290600101906020018083116103d057829003601f168201915b505050505081565b600054600114610466576040517f08c379a000000000000000000000000000000000000000000000000000000000815260206004820152600a60248201527f5245454e5452414e43590000000000000000000000000000000000000000000060448201526064015b60405180910390fd5b6002600081815573ffffffffffffffffffffffffffffffffffffffff858116825260046020908152604080842087855282528084208685528252928390208351608081018552815484168082526001830154948516938201939093527401000000000000000000000000000000000000000090930461ffff1693830193909352919092015460608301523314610558576040517f08c379a000000000000000000000000000000000000000000000000000000000815260206004820152601960248201527f63616e63656c4f66666572206d757374206265206d616b657200000000000000604482015260640161045d565b61057181600001518260600151836020015160006116ca565b81838573ffffffffffffffffffffffffffffffffffffffff167fcb93d56cb08ecaf9e15d6148b9ed9c4eddcc476cc2ecf8068c32ec1c408443d8846040516105b99190612690565b60405180910390a45073ffffffffffffffffffffffffffffffffffffffff909216600090815260046020908152604080832093835292815282822093825292909252812080547fffffffffffffffffffffffff0000000000000000000000000000000000000000168155600180820180547fffffffffffffffffffff0000000000000000000000000000000000000000000016905560029091018290559055565b6000546001146106c6576040517f08c379a000000000000000000000000000000000000000000000000000000000815260206004820152600a60248201527f5245454e5452414e435900000000000000000000000000000000000000000000604482015260640161045d565b6002600090815573ffffffffffffffffffffffffffffffffffffffff8087168252600460209081526040808420888552825280842087855290915290912080549091163314610771576040517f08c379a000000000000000000000000000000000000000000000000000000000815260206004820152601c60248201527f7365744f66666572416d6f756e74206d757374206265206d616b657200000000604482015260640161045d565b600181015473ffffffffffffffffffffffffffffffffffffffff8481169116141561089757600281015482158015906107aa5750808314155b610810576040517f08c379a000000000000000000000000000000000000000000000000000000000815260206004820152601e60248201527f7365744f66666572416d6f756e7420696e76616c6964205f616d6f756e740000604482015260640161045d565b808311156108525760018201548184039061084290829073ffffffffffffffffffffffffffffffffffffffff1661191a565b6002830180549091019055610891565b81546001830154848303916108849173ffffffffffffffffffffffffffffffffffffffff9182169184911660006116ca565b6002830180549190910390555b5061091d565b8054600282015460018301546108c99273ffffffffffffffffffffffffffffffffffffffff90811692911660006116ca565b6108d3828461191a565b6001810180547fffffffffffffffffffffffff00000000000000000000000000000000000000001673ffffffffffffffffffffffffffffffffffffffff8516179055600281018290555b83858773ffffffffffffffffffffffffffffffffffffffff167f78b8e43aa2037c628f2647707ac279be38396d24a1c5084977dd3ee0fc6c0e008460405161096591906126dd565b60405180910390a45050600160005550505050565b600080546001146109e7576040517f08c379a000000000000000000000000000000000000000000000000000000000815260206004820152600a60248201527f5245454e5452414e435900000000000000000000000000000000000000000000604482015260640161045d565b600260005561271061ffff83161115610a82576040517f08c379a000000000000000000000000000000000000000000000000000000000815260206004820152603f60248201527f6372656174654f666665722066696e646572732066656520627073206d75737460448201527f206265206c657373207468616e206f7220657175616c20746f20313030303000606482015260840161045d565b610a8c838561191a565b600360008154610a9b90612756565b909155506040805160808101825233815273ffffffffffffffffffffffffffffffffffffffff868116602080840191825261ffff808816858701908152606086018a81528d86166000818152600486528981208f825286528981206003805483528188528b83209a518b54908b167fffffffffffffffffffffffff0000000000000000000000000000000000000000909116178b5597516001808c018054975190981674010000000000000000000000000000000000000000027fffffffffffffffffffff0000000000000000000000000000000000000000000090971691909a1617949094179094559051600290970196909655858252600583528682208c83528352868220845481549687018255908352838320909501949094559154808352929052839020925190928892917f934b27a1f1b0d83e3e6ed7ecfbec90d5ab9e42ebe9c32a3d03f448305aef6eab91610bf5916126dd565b60405180910390a450600354600160005595945050505050565b6000333014610ca0576040517f08c379a000000000000000000000000000000000000000000000000000000000815260206004820152602d60248201527f5f68616e646c65526f79616c7479456e67696e655061796f7574206f6e6c792060448201527f73656c662063616c6c61626c6500000000000000000000000000000000000000606482015260840161045d565b6001546040517ff533b80200000000000000000000000000000000000000000000000000000000815273ffffffffffffffffffffffffffffffffffffffff87811660048301526024820187905260448201869052600092839291169063f533b802906064016000604051808303816000875af1158015610d24573d6000803e3d6000fd5b505050506040513d6000823e601f3d9081017fffffffffffffffffffffffffffffffffffffffffffffffffffffffffffffffe0168201604052610d6a919081019061289c565b8151919350915080610d8157859350505050610eac565b85600080805b84811015610ea257868181518110610da157610da1612961565b60200260200101519250858181518110610dbd57610dbd612961565b6020026020010151915081841015610e31576040517f08c379a000000000000000000000000000000000000000000000000000000000815260206004820152600960248201527f696e736f6c76656e740000000000000000000000000000000000000000000000604482015260640161045d565b610e3f83838b61c3506116ca565b6040805173ffffffffffffffffffffffffffffffffffffffff8581168252602082018590528d92908f16917f866e6ef8682ddf5f1025e64dfdb45527077f7be70fa9ef680b7ffd8cf4ab9c50910160405180910390a39281900392600101610d87565b5091955050505050505b949350505050565b600054600114610f20576040517f08c379a000000000000000000000000000000000000000000000000000000000815260206004820152600a60248201527f5245454e5452414e435900000000000000000000000000000000000000000000604482015260640161045d565b6002600081815573ffffffffffffffffffffffffffffffffffffffff88811682526004602090815260408084208a855282528084208985528252928390208351608081018552815484168082526001830154948516938201939093527401000000000000000000000000000000000000000090930461ffff169383019390935291909201546060830152611010576040517f08c379a000000000000000000000000000000000000000000000000000000000815260206004820152601e60248201527f66696c6c4f66666572206d75737420626520616374697665206f666665720000604482015260640161045d565b6040517f6352211e00000000000000000000000000000000000000000000000000000000815260048101879052339073ffffffffffffffffffffffffffffffffffffffff891690636352211e90602401602060405180830381865afa15801561107d573d6000803e3d6000fd5b505050506040513d601f19601f820116820180604052508101906110a19190612990565b73ffffffffffffffffffffffffffffffffffffffff161461111e576040517f08c379a000000000000000000000000000000000000000000000000000000000815260206004820152601d60248201527f66696c6c4f66666572206d75737420626520746f6b656e206f776e6572000000604482015260640161045d565b8373ffffffffffffffffffffffffffffffffffffffff16816020015173ffffffffffffffffffffffffffffffffffffffff161480156111605750828160600151145b6111ec576040517f08c379a000000000000000000000000000000000000000000000000000000000815260206004820152602e60248201527f66696c6c4f66666572205f63757272656e63792026205f616d6f756e74206d7560448201527f7374206d61746368206f66666572000000000000000000000000000000000000606482015260840161045d565b60006112048888846060015185602001516000611c6d565b509050611215818360200151611d73565b905073ffffffffffffffffffffffffffffffffffffffff831615611277576000612710836040015161ffff168361124c91906129ad565b61125691906129ea565b90506112698482856020015160006116ca565b6112738183612a25565b9150505b6112883382846020015160006116ca565b81516040517f15dacbea00000000000000000000000000000000000000000000000000000000815273ffffffffffffffffffffffffffffffffffffffff8a811660048301523360248301529182166044820152606481018990527f0000000000000000000000000000000000000000000000000000000000000000909116906315dacbea90608401600060405180830381600087803b15801561132a57600080fd5b505af115801561133e573d6000803e3d6000fd5b5050604080516060808201835260208088015173ffffffffffffffffffffffffffffffffffffffff90811684526000828501528883015184860152845192830185528e811683529082018d905260018285015287519351929550909350339216907f1f432c9454edd444f55492be01e3fa82aa88bfa28e120a039be204253c10c36e906113ce9086908690612a3c565b60405180910390a387898b73ffffffffffffffffffffffffffffffffffffffff167f8d496f5c680daaaf5bdacfec3235619ed8eb52d6c31419098dfb83010f37ca2233898960405161142293929190612aa4565b60405180910390a450505073ffffffffffffffffffffffffffffffffffffffff90961660009081526004602090815260408083209783529681528682209582529490945250505090812080547fffffffffffffffffffffffff0000000000000000000000000000000000000000168155600180820180547fffffffffffffffffffff000000000000000000000000000000000000000000001690556002909101829055905550565b3373ffffffffffffffffffffffffffffffffffffffff7f0000000000000000000000000000000000000000000000000000000000000000161461158f576040517f08c379a000000000000000000000000000000000000000000000000000000000815260206004820152602660248201527f736574526f79616c7479456e67696e6541646472657373206f6e6c792072656760448201527f6973747261720000000000000000000000000000000000000000000000000000606482015260840161045d565b6115b9817fcb23f81600000000000000000000000000000000000000000000000000000000611f13565b611645576040517f08c379a000000000000000000000000000000000000000000000000000000000815260206004820152603d60248201527f736574526f79616c7479456e67696e6541646472657373206d757374206d617460448201527f63682049526f79616c7479456e67696e65563120696e74657266616365000000606482015260840161045d565b600180547fffffffffffffffffffffffff00000000000000000000000000000000000000001673ffffffffffffffffffffffffffffffffffffffff92909216919091179055565b600560205282600052604060002060205281600052604060002081815481106116b457600080fd5b9060005260206000200160009250925050505481565b8215806116eb575073ffffffffffffffffffffffffffffffffffffffff8416155b156116f557611914565b73ffffffffffffffffffffffffffffffffffffffff82166118f357824710156117a0576040517f08c379a000000000000000000000000000000000000000000000000000000000815260206004820152602160248201527f5f68616e646c654f7574676f696e675472616e7366657220696e736f6c76656e60448201527f7400000000000000000000000000000000000000000000000000000000000000606482015260840161045d565b60008115806117ae57505a82115b6117b857816117ba565b5a5b905060008573ffffffffffffffffffffffffffffffffffffffff16858390604051600060405180830381858888f193505050503d8060008114611819576040519150601f19603f3d011682016040523d82523d6000602084013e61181e565b606091505b50509050806118ec577f000000000000000000000000000000000000000000000000000000000000000073ffffffffffffffffffffffffffffffffffffffff1663d0e30db0866040518263ffffffff1660e01b81526004016000604051808303818588803b15801561188f57600080fd5b505af11580156118a3573d6000803e3d6000fd5b506118ec93505073ffffffffffffffffffffffffffffffffffffffff7f000000000000000000000000000000000000000000000000000000000000000016915088905087611f36565b5050611914565b61191473ffffffffffffffffffffffffffffffffffffffff83168585611f36565b50505050565b73ffffffffffffffffffffffffffffffffffffffff81166119c957813410156119c5576040517f08c379a000000000000000000000000000000000000000000000000000000000815260206004820152603b60248201527f5f68616e646c65496e636f6d696e675472616e73666572206d73672076616c7560448201527f65206c657373207468616e20657870656374656420616d6f756e740000000000606482015260840161045d565b5050565b6040517f70a08231000000000000000000000000000000000000000000000000000000008152306004820152819060009073ffffffffffffffffffffffffffffffffffffffff8316906370a0823190602401602060405180830381865afa158015611a38573d6000803e3d6000fd5b505050506040513d601f19601f82011682018060405250810190611a5c9190612b15565b6040517fd9fc4b6100000000000000000000000000000000000000000000000000000000815273ffffffffffffffffffffffffffffffffffffffff8581166004830152336024830152306044830152606482018790529192507f00000000000000000000000000000000000000000000000000000000000000009091169063d9fc4b6190608401600060405180830381600087803b158015611afd57600080fd5b505af1158015611b11573d6000803e3d6000fd5b50506040517f70a082310000000000000000000000000000000000000000000000000000000081523060048201526000925073ffffffffffffffffffffffffffffffffffffffff851691506370a0823190602401602060405180830381865afa158015611b82573d6000803e3d6000fd5b505050506040513d601f19601f82011682018060405250810190611ba69190612b15565b905080611bb38684612b2e565b14611c66576040517f08c379a000000000000000000000000000000000000000000000000000000000815260206004820152604c60248201527f5f68616e646c65496e636f6d696e675472616e7366657220746f6b656e20747260448201527f616e736665722063616c6c20646964206e6f74207472616e736665722065787060648201527f656374656420616d6f756e740000000000000000000000000000000000000000608482015260a40161045d565b5050505050565b60008080831580611c7d57505a84115b611c875783611c89565b5a5b6040517f9128c22c00000000000000000000000000000000000000000000000000000000815273ffffffffffffffffffffffffffffffffffffffff808b166004830152602482018a905260448201899052871660648201529091503090639128c22c90839060840160206040518083038160008887f193505050508015611d4b575060408051601f3d9081017fffffffffffffffffffffffffffffffffffffffffffffffffffffffffffffffe0168201909252611d4891810190612b15565b60015b611d5c578560009250925050611d69565b925060019150611d699050565b9550959350505050565b6040517f61b485f600000000000000000000000000000000000000000000000000000000815230600482015260248101839052600090819073ffffffffffffffffffffffffffffffffffffffff7f000000000000000000000000000000000000000000000000000000000000000016906361b485f690604401602060405180830381865afa158015611e09573d6000803e3d6000fd5b505050506040513d601f19601f82011682018060405250810190611e2d9190612b15565b905080611e3d5783915050611f0d565b6040517f86ab6fb90000000000000000000000000000000000000000000000000000000081523060048201526000907f000000000000000000000000000000000000000000000000000000000000000073ffffffffffffffffffffffffffffffffffffffff16906386ab6fb9906024016040805180830381865afa158015611ec9573d6000803e3d6000fd5b505050506040513d601f19601f82011682018060405250810190611eed9190612b46565b915050611efe81838661c3506116ca565b611f088286612a25565b925050505b92915050565b6000611f1e83611fc8565b8015611f2f5750611f2f838361202c565b9392505050565b6040805173ffffffffffffffffffffffffffffffffffffffff8416602482015260448082018490528251808303909101815260649091019091526020810180517bffffffffffffffffffffffffffffffffffffffffffffffffffffffff167fa9059cbb00000000000000000000000000000000000000000000000000000000179052611fc3908490612168565b505050565b6000611ff4827f01ffc9a70000000000000000000000000000000000000000000000000000000061202c565b8015611f0d5750612025827fffffffff0000000000000000000000000000000000000000000000000000000061202c565b1592915050565b604080517fffffffff00000000000000000000000000000000000000000000000000000000831660248083019190915282518083039091018152604490910182526020810180517bffffffffffffffffffffffffffffffffffffffffffffffffffffffff167f01ffc9a7000000000000000000000000000000000000000000000000000000001790529051600091908290819073ffffffffffffffffffffffffffffffffffffffff871690617530906120e6908690612b80565b6000604051808303818686fa925050503d8060008114612122576040519150601f19603f3d011682016040523d82523d6000602084013e612127565b606091505b50915091506020815110156121425760009350505050611f0d565b81801561215e57508080602001905181019061215e9190612b9c565b9695505050505050565b60006121ca826040518060400160405280602081526020017f5361666545524332303a206c6f772d6c6576656c2063616c6c206661696c65648152508573ffffffffffffffffffffffffffffffffffffffff166122749092919063ffffffff16565b805190915015611fc357808060200190518101906121e89190612b9c565b611fc3576040517f08c379a000000000000000000000000000000000000000000000000000000000815260206004820152602a60248201527f5361666545524332303a204552433230206f7065726174696f6e20646964206e60448201527f6f74207375636365656400000000000000000000000000000000000000000000606482015260840161045d565b6060610eac84846000858573ffffffffffffffffffffffffffffffffffffffff85163b6122fd576040517f08c379a000000000000000000000000000000000000000000000000000000000815260206004820152601d60248201527f416464726573733a2063616c6c20746f206e6f6e2d636f6e7472616374000000604482015260640161045d565b6000808673ffffffffffffffffffffffffffffffffffffffff1685876040516123269190612b80565b60006040518083038185875af1925050503d8060008114612363576040519150601f19603f3d011682016040523d82523d6000602084013e612368565b606091505b5091509150612378828286612383565b979650505050505050565b60608315612392575081611f2f565b8251156123a25782518084602001fd5b816040517f08c379a000000000000000000000000000000000000000000000000000000000815260040161045d9190612402565b60005b838110156123f15781810151838201526020016123d9565b838111156119145750506000910152565b60208152600082518060208401526124218160408501602087016123d6565b601f017fffffffffffffffffffffffffffffffffffffffffffffffffffffffffffffffe0169190910160400192915050565b73ffffffffffffffffffffffffffffffffffffffff8116811461247557600080fd5b50565b60008060006060848603121561248d57600080fd5b833561249881612453565b95602085013595506040909401359392505050565b600080600080600060a086880312156124c557600080fd5b85356124d081612453565b9450602086013593506040860135925060608601356124ee81612453565b949793965091946080013592915050565b61ffff8116811461247557600080fd5b600080600080600060a0868803121561252757600080fd5b853561253281612453565b945060208601359350604086013561254981612453565b9250606086013591506080860135612560816124ff565b809150509295509295909350565b6000806000806080858703121561258457600080fd5b843561258f81612453565b9350602085013592506040850135915060608501356125ad81612453565b939692955090935050565b60008060008060008060c087890312156125d157600080fd5b86356125dc81612453565b9550602087013594506040870135935060608701356125fa81612453565b92506080870135915060a087013561261181612453565b809150509295509295509295565b60006020828403121561263157600080fd5b8135611f2f81612453565b600181811c9082168061265057607f821691505b6020821081141561268a577f4e487b7100000000000000000000000000000000000000000000000000000000600052602260045260246000fd5b50919050565b60808101611f0d828473ffffffffffffffffffffffffffffffffffffffff8082511683528060208301511660208401525061ffff6040820151166040830152606081015160608301525050565b60808101611f0d8284805473ffffffffffffffffffffffffffffffffffffffff90811683526001820154908116602084015260a01c61ffff16604083015260020154606090910152565b7f4e487b7100000000000000000000000000000000000000000000000000000000600052601160045260246000fd5b60007fffffffffffffffffffffffffffffffffffffffffffffffffffffffffffffffff82141561278857612788612727565b5060010190565b7f4e487b7100000000000000000000000000000000000000000000000000000000600052604160045260246000fd5b604051601f82017fffffffffffffffffffffffffffffffffffffffffffffffffffffffffffffffe016810167ffffffffffffffff811182821017156128055761280561278f565b604052919050565b600067ffffffffffffffff8211156128275761282761278f565b5060051b60200190565b600082601f83011261284257600080fd5b815160206128576128528361280d565b6127be565b82815260059290921b8401810191818101908684111561287657600080fd5b8286015b84811015612891578051835291830191830161287a565b509695505050505050565b600080604083850312156128af57600080fd5b825167ffffffffffffffff808211156128c757600080fd5b818501915085601f8301126128db57600080fd5b815160206128eb6128528361280d565b82815260059290921b8401810191818101908984111561290a57600080fd5b948201945b8386101561293157855161292281612453565b8252948201949082019061290f565b9188015191965090935050508082111561294a57600080fd5b5061295785828601612831565b9150509250929050565b7f4e487b7100000000000000000000000000000000000000000000000000000000600052603260045260246000fd5b6000602082840312156129a257600080fd5b8151611f2f81612453565b6000817fffffffffffffffffffffffffffffffffffffffffffffffffffffffffffffffff04831182151516156129e5576129e5612727565b500290565b600082612a20577f4e487b7100000000000000000000000000000000000000000000000000000000600052601260045260246000fd5b500490565b600082821015612a3757612a37612727565b500390565b825173ffffffffffffffffffffffffffffffffffffffff168152602080840151908201526040808401519082015260c08101825173ffffffffffffffffffffffffffffffffffffffff16606083015260208301516080830152604083015160a0830152611f2f565b73ffffffffffffffffffffffffffffffffffffffff84811682528316602082015260c08101610eac604083018473ffffffffffffffffffffffffffffffffffffffff8082511683528060208301511660208401525061ffff6040820151166040830152606081015160608301525050565b600060208284031215612b2757600080fd5b5051919050565b60008219821115612b4157612b41612727565b500190565b60008060408385031215612b5957600080fd5b8251612b64816124ff565b6020840151909250612b7581612453565b809150509250929050565b60008251612b928184602087016123d6565b9190910192915050565b600060208284031215612bae57600080fd5b81518015158114611f2f57600080fdfea26469706673582212200e0361d3d2218cc0997ad83c298c6206a4ec5c122c07451abe2ff325c183b42764736f6c634300080a0033",
    "linkReferences": {}
  },
  "methodIdentifiers": {
    "_handleRoyaltyEnginePayout(address,uint256,uint256,address)": "9128c22c",
    "cancelOffer(address,uint256,uint256)": "0e030d6a",
    "createOffer(address,uint256,address,uint256,uint16)": "7157fe1d",
    "erc20TransferHelper()": "8f9d3251",
    "erc721TransferHelper()": "f7cd1d9b",
    "fillOffer(address,uint256,uint256,address,uint256,address)": "96bd5a88",
    "name()": "06fdde03",
    "offerCount()": "1115c24d",
    "offers(address,uint256,uint256)": "e3b43677",
    "offersForNFT(address,uint256,uint256)": "ebe46344",
    "registrar()": "2b20e397",
    "setOfferAmount(address,uint256,uint256,address,uint256)": "54242338",
    "setRoyaltyEngineAddress(address)": "b249bb30"
  },
  "id": 39
}