{
  "abi": [
    {
      "anonymous": false,
      "inputs": [
        {
          "indexed": true,
          "internalType": "address",
          "name": "previousOwner",
          "type": "address"
        },
        {
          "indexed": true,
          "internalType": "address",
          "name": "newOwner",
          "type": "address"
        }
      ],
      "name": "OwnershipTransferred",
      "type": "event"
    },
    {
      "inputs": [
        {
          "internalType": "address",
          "name": "tokenAddress",
          "type": "address"
        },
        {
          "internalType": "uint256",
          "name": "tokenId",
          "type": "uint256"
        },
        {
          "internalType": "uint256",
          "name": "value",
          "type": "uint256"
        }
      ],
      "name": "_getRoyaltyAndSpec",
      "outputs": [
        {
          "internalType": "address payable[]",
          "name": "recipients",
          "type": "address[]"
        },
        {
          "internalType": "uint256[]",
          "name": "amounts",
          "type": "uint256[]"
        },
        {
          "internalType": "int16",
          "name": "spec",
          "type": "int16"
        },
        {
          "internalType": "address",
          "name": "royaltyAddress",
          "type": "address"
        },
        {
          "internalType": "bool",
          "name": "addToCache",
          "type": "bool"
        }
      ],
      "stateMutability": "view",
      "type": "function"
    },
    {
      "inputs": [
        {
          "internalType": "address",
          "name": "tokenAddress",
          "type": "address"
        }
      ],
      "name": "getCachedRoyaltySpec",
      "outputs": [
        {
          "internalType": "int16",
          "name": "",
          "type": "int16"
        }
      ],
      "stateMutability": "view",
      "type": "function"
    },
    {
      "inputs": [
        {
          "internalType": "address",
          "name": "tokenAddress",
          "type": "address"
        },
        {
          "internalType": "uint256",
          "name": "tokenId",
          "type": "uint256"
        },
        {
          "internalType": "uint256",
          "name": "value",
          "type": "uint256"
        }
      ],
      "name": "getRoyalty",
      "outputs": [
        {
          "internalType": "address payable[]",
          "name": "recipients",
          "type": "address[]"
        },
        {
          "internalType": "uint256[]",
          "name": "amounts",
          "type": "uint256[]"
        }
      ],
      "stateMutability": "nonpayable",
      "type": "function"
    },
    {
      "inputs": [
        {
          "internalType": "address",
          "name": "tokenAddress",
          "type": "address"
        },
        {
          "internalType": "uint256",
          "name": "tokenId",
          "type": "uint256"
        },
        {
          "internalType": "uint256",
          "name": "value",
          "type": "uint256"
        }
      ],
      "name": "getRoyaltyView",
      "outputs": [
        {
          "internalType": "address payable[]",
          "name": "recipients",
          "type": "address[]"
        },
        {
          "internalType": "uint256[]",
          "name": "amounts",
          "type": "uint256[]"
        }
      ],
      "stateMutability": "view",
      "type": "function"
    },
    {
      "inputs": [
        {
          "internalType": "address",
          "name": "royaltyRegistry_",
          "type": "address"
        }
      ],
      "name": "initialize",
      "outputs": [],
      "stateMutability": "nonpayable",
      "type": "function"
    },
    {
      "inputs": [
        {
          "internalType": "address",
          "name": "tokenAddress",
          "type": "address"
        }
      ],
      "name": "invalidateCachedRoyaltySpec",
      "outputs": [],
      "stateMutability": "nonpayable",
      "type": "function"
    },
    {
      "inputs": [],
      "name": "owner",
      "outputs": [
        {
          "internalType": "address",
          "name": "",
          "type": "address"
        }
      ],
      "stateMutability": "view",
      "type": "function"
    },
    {
      "inputs": [],
      "name": "renounceOwnership",
      "outputs": [],
      "stateMutability": "nonpayable",
      "type": "function"
    },
    {
      "inputs": [],
      "name": "royaltyRegistry",
      "outputs": [
        {
          "internalType": "address",
          "name": "",
          "type": "address"
        }
      ],
      "stateMutability": "view",
      "type": "function"
    },
    {
      "inputs": [
        {
          "internalType": "bytes4",
          "name": "interfaceId",
          "type": "bytes4"
        }
      ],
      "name": "supportsInterface",
      "outputs": [
        {
          "internalType": "bool",
          "name": "",
          "type": "bool"
        }
      ],
      "stateMutability": "view",
      "type": "function"
    },
    {
      "inputs": [
        {
          "internalType": "address",
          "name": "newOwner",
          "type": "address"
        }
      ],
      "name": "transferOwnership",
      "outputs": [],
      "stateMutability": "nonpayable",
      "type": "function"
    }
  ],
  "bytecode": {
    "object": "0x608060405234801561001057600080fd5b50611c37806100206000396000f3fe608060405234801561001057600080fd5b50600436106100c95760003560e01c80637dec6f2e11610081578063c4d66de81161005b578063c4d66de8146101dd578063f2fde38b146101f0578063f533b8021461020357600080fd5b80637dec6f2e1461016b5780638da5cb5b1461017e578063a11b0712146101bd57600080fd5b806371100f52116100b257806371100f5214610117578063715018a61461013b5780637488f1211461014557600080fd5b806301ffc9a7146100ce5780633e104014146100f6575b600080fd5b6100e16100dc3660046115eb565b610216565b60405190151581526020015b60405180910390f35b61010961010436600461164f565b6102af565b6040516100ed929190611705565b61012a61012536600461164f565b6103f3565b6040516100ed959493929190611733565b610143610b36565b005b610158610153366004611791565b610bc3565b60405160019190910b81526020016100ed565b610143610179366004611791565b610c8a565b60335473ffffffffffffffffffffffffffffffffffffffff165b60405173ffffffffffffffffffffffffffffffffffffffff90911681526020016100ed565b6066546101989073ffffffffffffffffffffffffffffffffffffffff1681565b6101436101eb366004611791565b610d6d565b6101436101fe366004611791565b610f05565b61010961021136600461164f565b611035565b60007fffffffff0000000000000000000000000000000000000000000000000000000082167fcb23f8160000000000000000000000000000000000000000000000000000000014806102a957507f01ffc9a7000000000000000000000000000000000000000000000000000000007fffffffff000000000000000000000000000000000000000000000000000000008316145b92915050565b6040517f71100f5200000000000000000000000000000000000000000000000000000000815273ffffffffffffffffffffffffffffffffffffffff841660048201526024810183905260448101829052606090819030906371100f5290620186a0906064016000604051808303818786fa9350505050801561037157506040513d6000823e601f3d9081017fffffffffffffffffffffffffffffffffffffffffffffffffffffffffffffffe016820160405261036e9190810190611934565b60015b6103dc576040517f08c379a000000000000000000000000000000000000000000000000000000000815260206004820152601660248201527f496e76616c696420726f79616c747920616d6f756e740000000000000000000060448201526064015b60405180910390fd5b509294509092506103eb915050565b935093915050565b60608060008080333014610463576040517f08c379a000000000000000000000000000000000000000000000000000000000815260206004820152600b60248201527f4f6e6c7920456e67696e6500000000000000000000000000000000000000000060448201526064016103d3565b6066546040517fde5488af00000000000000000000000000000000000000000000000000000000815273ffffffffffffffffffffffffffffffffffffffff8a811660048301529091169063de5488af90602401602060405180830381865afa1580156104d3573d6000803e3d6000fd5b505050506040513d601f19601f820116820180604052508101906104f791906119d5565b73ffffffffffffffffffffffffffffffffffffffff811660009081526065602052604081205460010b9450909250831380159061055757507fffffffffffffffffffffffffffffffffffffffffffffffffffffffffffffffff600184900b135b1561084157506040517f2a55205a000000000000000000000000000000000000000000000000000000008152600481018790526024810186905260019073ffffffffffffffffffffffffffffffffffffffff831690632a55205a906044016040805180830381865afa92505050801561060b575060408051601f3d9081017fffffffffffffffffffffffffffffffffffffffffffffffffffffffffffffffe0168201909252610608918101906119f2565b60015b61061457610736565b87811061067d576040517f08c379a000000000000000000000000000000000000000000000000000000000815260206004820152601660248201527f496e76616c696420726f79616c747920616d6f756e740000000000000000000060448201526064016103d3565b6040805160018082528183019092529060208083019080368337505060408051600180825281830190925292995090506020808301908036833701905050955081876000815181106106d1576106d1611a20565b602002602001019073ffffffffffffffffffffffffffffffffffffffff16908173ffffffffffffffffffffffffffffffffffffffff1681525050808660008151811061071f5761071f611a20565b60209081029190910101525060019350610b2b9050565b6040517ff662207400000000000000000000000000000000000000000000000000000000815273ffffffffffffffffffffffffffffffffffffffff89811660048301526024820189905283169063f662207490604401600060405180830381865afa9250505080156107e857506040513d6000823e601f3d9081017fffffffffffffffffffffffffffffffffffffffffffffffffffffffffffffffe01682016040526107e59190810190611a4f565b60015b6107f157610819565b80518251146107ff57600080fd5b8161080a89836111c2565b60029650965096505050610b2b565b7fffffffffffffffffffffffffffffffffffffffffffffffffffffffffffffffff9250610b2b565b506000600183900b7fffffffffffffffffffffffffffffffffffffffffffffffffffffffffffffffff141561087557610b2b565b600183810b1415610a3c576040517f2a55205a0000000000000000000000000000000000000000000000000000000081526004810188905260248101879052600090819073ffffffffffffffffffffffffffffffffffffffff851690632a55205a906044016040805180830381865afa1580156108f6573d6000803e3d6000fd5b505050506040513d601f19601f8201168201806040525081019061091a91906119f2565b91509150878110610987576040517f08c379a000000000000000000000000000000000000000000000000000000000815260206004820152601660248201527f496e76616c696420726f79616c747920616d6f756e740000000000000000000060448201526064016103d3565b6040805160018082528183019092529060208083019080368337505060408051600180825281830190925292995090506020808301908036833701905050955081876000815181106109db576109db611a20565b602002602001019073ffffffffffffffffffffffffffffffffffffffff16908173ffffffffffffffffffffffffffffffffffffffff16815250508086600081518110610a2957610a29611a20565b6020026020010181815250505050610b2b565b600183900b60021415610b2b576040517ff662207400000000000000000000000000000000000000000000000000000000815273ffffffffffffffffffffffffffffffffffffffff8981166004830152602482018990526060919084169063f662207490604401600060405180830381865afa158015610ac0573d6000803e3d6000fd5b505050506040513d6000823e601f3d9081017fffffffffffffffffffffffffffffffffffffffffffffffffffffffffffffffe0168201604052610b069190810190611a4f565b8051825192985090925014610b1a57600080fd5b85610b2588836111c2565b95509550505b939792965093509350565b60335473ffffffffffffffffffffffffffffffffffffffff163314610bb7576040517f08c379a000000000000000000000000000000000000000000000000000000000815260206004820181905260248201527f4f776e61626c653a2063616c6c6572206973206e6f7420746865206f776e657260448201526064016103d3565b610bc16000611311565b565b6066546040517fde5488af00000000000000000000000000000000000000000000000000000000815273ffffffffffffffffffffffffffffffffffffffff8381166004830152600092839291169063de5488af90602401602060405180830381865afa158015610c37573d6000803e3d6000fd5b505050506040513d601f19601f82011682018060405250810190610c5b91906119d5565b73ffffffffffffffffffffffffffffffffffffffff1660009081526065602052604090205460010b9392505050565b6066546040517fde5488af00000000000000000000000000000000000000000000000000000000815273ffffffffffffffffffffffffffffffffffffffff8381166004830152600092169063de5488af90602401602060405180830381865afa158015610cfb573d6000803e3d6000fd5b505050506040513d601f19601f82011682018060405250810190610d1f91906119d5565b73ffffffffffffffffffffffffffffffffffffffff16600090815260656020526040902080547fffffffffffffffffffffffffffffffffffffffffffffffffffffffffffff00001690555050565b600054610100900460ff16610d885760005460ff1615610d8c565b303b155b610e18576040517f08c379a000000000000000000000000000000000000000000000000000000000815260206004820152602e60248201527f496e697469616c697a61626c653a20636f6e747261637420697320616c72656160448201527f647920696e697469616c697a656400000000000000000000000000000000000060648201526084016103d3565b600054610100900460ff16158015610e5757600080547fffffffffffffffffffffffffffffffffffffffffffffffffffffffffffff0000166101011790555b610e5f611388565b610e89827f880963ac00000000000000000000000000000000000000000000000000000000611428565b610e9257600080fd5b606680547fffffffffffffffffffffffff00000000000000000000000000000000000000001673ffffffffffffffffffffffffffffffffffffffff84161790558015610f0157600080547fffffffffffffffffffffffffffffffffffffffffffffffffffffffffffff00ff1690555b5050565b60335473ffffffffffffffffffffffffffffffffffffffff163314610f86576040517f08c379a000000000000000000000000000000000000000000000000000000000815260206004820181905260248201527f4f776e61626c653a2063616c6c6572206973206e6f7420746865206f776e657260448201526064016103d3565b73ffffffffffffffffffffffffffffffffffffffff8116611029576040517f08c379a000000000000000000000000000000000000000000000000000000000815260206004820152602660248201527f4f776e61626c653a206e6577206f776e657220697320746865207a65726f206160448201527f646472657373000000000000000000000000000000000000000000000000000060648201526084016103d3565b61103281611311565b50565b6040517f71100f5200000000000000000000000000000000000000000000000000000000815273ffffffffffffffffffffffffffffffffffffffff841660048201526024810183905260448101829052606090819030906371100f529061c350906064016000604051808303818786fa935050505080156110f657506040513d6000823e601f3d9081017fffffffffffffffffffffffffffffffffffffffffffffffffffffffffffffffe01682016040526110f39190810190611934565b60015b61115c576040517f08c379a000000000000000000000000000000000000000000000000000000000815260206004820152601660248201527f496e76616c696420726f79616c747920616d6f756e740000000000000000000060448201526064016103d3565b80156103dc575073ffffffffffffffffffffffffffffffffffffffff16600090815260656020526040902080547fffffffffffffffffffffffffffffffffffffffffffffffffffffffffffff00001661ffff9290921691909117905590925090506103eb565b6060815167ffffffffffffffff8111156111de576111de6117ae565b604051908082528060200260200182016040528015611207578160200160208202803683370190505b5090506000805b83518110156112a05761271084828151811061122c5761122c611a20565b60200260200101518661123f9190611ae2565b6112499190611b1f565b83828151811061125b5761125b611a20565b60200260200101818152505082818151811061127957611279611a20565b60200260200101518261128c9190611b5a565b91508061129881611b72565b91505061120e565b5083811061130a576040517f08c379a000000000000000000000000000000000000000000000000000000000815260206004820152601660248201527f496e76616c696420726f79616c747920616d6f756e740000000000000000000060448201526064016103d3565b5092915050565b6033805473ffffffffffffffffffffffffffffffffffffffff8381167fffffffffffffffffffffffff0000000000000000000000000000000000000000831681179093556040519116919082907f8be0079c531659141344cd1fd0a4f28419497f9722a3daafe3b4186f6b6457e090600090a35050565b600054610100900460ff1661141f576040517f08c379a000000000000000000000000000000000000000000000000000000000815260206004820152602b60248201527f496e697469616c697a61626c653a20636f6e7472616374206973206e6f74206960448201527f6e697469616c697a696e6700000000000000000000000000000000000000000060648201526084016103d3565b610bc133611311565b60006114338361144b565b8015611444575061144483836114af565b9392505050565b6000611477827f01ffc9a7000000000000000000000000000000000000000000000000000000006114af565b80156102a957506114a8827fffffffff000000000000000000000000000000000000000000000000000000006114af565b1592915050565b604080517fffffffff00000000000000000000000000000000000000000000000000000000831660248083019190915282518083039091018152604490910182526020810180517bffffffffffffffffffffffffffffffffffffffffffffffffffffffff167f01ffc9a7000000000000000000000000000000000000000000000000000000001790529051600091908290819073ffffffffffffffffffffffffffffffffffffffff87169061753090611569908690611bab565b6000604051808303818686fa925050503d80600081146115a5576040519150601f19603f3d011682016040523d82523d6000602084013e6115aa565b606091505b50915091506020815110156115c557600093505050506102a9565b8180156115e15750808060200190518101906115e19190611be6565b9695505050505050565b6000602082840312156115fd57600080fd5b81357fffffffff000000000000000000000000000000000000000000000000000000008116811461144457600080fd5b73ffffffffffffffffffffffffffffffffffffffff8116811461103257600080fd5b60008060006060848603121561166457600080fd5b833561166f8161162d565b95602085013595506040909401359392505050565b600081518084526020808501945080840160005b838110156116ca57815173ffffffffffffffffffffffffffffffffffffffff1687529582019590820190600101611698565b509495945050505050565b600081518084526020808501945080840160005b838110156116ca578151875295820195908201906001016116e9565b6040815260006117186040830185611684565b828103602084015261172a81856116d5565b95945050505050565b60a08152600061174660a0830188611684565b828103602084015261175881886116d5565b60019690960b6040840152505073ffffffffffffffffffffffffffffffffffffffff929092166060830152151560809091015292915050565b6000602082840312156117a357600080fd5b81356114448161162d565b7f4e487b7100000000000000000000000000000000000000000000000000000000600052604160045260246000fd5b604051601f82017fffffffffffffffffffffffffffffffffffffffffffffffffffffffffffffffe016810167ffffffffffffffff81118282101715611824576118246117ae565b604052919050565b600067ffffffffffffffff821115611846576118466117ae565b5060051b60200190565b600082601f83011261186157600080fd5b815160206118766118718361182c565b6117dd565b82815260059290921b8401810191818101908684111561189557600080fd5b8286015b848110156118b95780516118ac8161162d565b8352918301918301611899565b509695505050505050565b600082601f8301126118d557600080fd5b815160206118e56118718361182c565b82815260059290921b8401810191818101908684111561190457600080fd5b8286015b848110156118b95780518352918301918301611908565b8051801515811461192f57600080fd5b919050565b600080600080600060a0868803121561194c57600080fd5b855167ffffffffffffffff8082111561196457600080fd5b61197089838a01611850565b9650602088015191508082111561198657600080fd5b50611993888289016118c4565b94505060408601518060010b81146119aa57600080fd5b60608701519093506119bb8161162d565b91506119c96080870161191f565b90509295509295909350565b6000602082840312156119e757600080fd5b81516114448161162d565b60008060408385031215611a0557600080fd5b8251611a108161162d565b6020939093015192949293505050565b7f4e487b7100000000000000000000000000000000000000000000000000000000600052603260045260246000fd5b60008060408385031215611a6257600080fd5b825167ffffffffffffffff80821115611a7a57600080fd5b611a8686838701611850565b93506020850151915080821115611a9c57600080fd5b50611aa9858286016118c4565b9150509250929050565b7f4e487b7100000000000000000000000000000000000000000000000000000000600052601160045260246000fd5b6000817fffffffffffffffffffffffffffffffffffffffffffffffffffffffffffffffff0483118215151615611b1a57611b1a611ab3565b500290565b600082611b55577f4e487b7100000000000000000000000000000000000000000000000000000000600052601260045260246000fd5b500490565b60008219821115611b6d57611b6d611ab3565b500190565b60007fffffffffffffffffffffffffffffffffffffffffffffffffffffffffffffffff821415611ba457611ba4611ab3565b5060010190565b6000825160005b81811015611bcc5760208186018101518583015201611bb2565b81811115611bdb576000828501525b509190910192915050565b600060208284031215611bf857600080fd5b6114448261191f56fea2646970667358221220a5e75b577ce97a5d5741f2cc139d674ba2c7d5b66d94a9d9413eb0069d2eb0d064736f6c634300080a0033",
    "linkReferences": {}
  },
  "methodIdentifiers": {
    "_getRoyaltyAndSpec(address,uint256,uint256)": "71100f52",
    "getCachedRoyaltySpec(address)": "7488f121",
    "getRoyalty(address,uint256,uint256)": "f533b802",
    "getRoyaltyView(address,uint256,uint256)": "3e104014",
    "initialize(address)": "c4d66de8",
    "invalidateCachedRoyaltySpec(address)": "7dec6f2e",
    "owner()": "8da5cb5b",
    "renounceOwnership()": "715018a6",
    "royaltyRegistry()": "a11b0712",
    "supportsInterface(bytes4)": "01ffc9a7",
    "transferOwnership(address)": "f2fde38b"
  },
  "id": 10
}