{
  "abi": [
    {
      "inputs": [
        {
          "internalType": "address",
          "name": "origin",
          "type": "address"
        }
      ],
      "stateMutability": "nonpayable",
      "type": "constructor"
    },
    {
      "anonymous": false,
      "inputs": [
        {
          "indexed": false,
          "internalType": "address",
          "name": "newEIP2981RoyaltyOverride",
          "type": "address"
        }
      ],
      "name": "EIP2981RoyaltyOverrideCreated",
      "type": "event"
    },
    {
      "inputs": [],
      "name": "createOverride",
      "outputs": [
        {
          "internalType": "address",
          "name": "",
          "type": "address"
        }
      ],
      "stateMutability": "nonpayable",
      "type": "function"
    },
    {
      "inputs": [],
      "name": "originAddress",
      "outputs": [
        {
          "internalType": "address",
          "name": "",
          "type": "address"
        }
      ],
      "stateMutability": "view",
      "type": "function"
    }
  ],
  "bytecode": {
    "object": "0x608060405234801561001057600080fd5b5060405161039038038061039083398101604081905261002f91610054565b600080546001600160a01b0319166001600160a01b0392909216919091179055610084565b60006020828403121561006657600080fd5b81516001600160a01b038116811461007d57600080fd5b9392505050565b6102fd806100936000396000f3fe608060405234801561001057600080fd5b50600436106100365760003560e01c80634994fa9a1461003b578063e517fedd1461006c575b600080fd5b61004361008c565b60405173ffffffffffffffffffffffffffffffffffffffff909116815260200160405180910390f35b6000546100439073ffffffffffffffffffffffffffffffffffffffff1681565b6000805481906100b19073ffffffffffffffffffffffffffffffffffffffff166101e1565b90508073ffffffffffffffffffffffffffffffffffffffff16638129fc1c6040518163ffffffff1660e01b8152600401600060405180830381600087803b1580156100fb57600080fd5b505af115801561010f573d6000803e3d6000fd5b50506040517ff2fde38b00000000000000000000000000000000000000000000000000000000815233600482015273ffffffffffffffffffffffffffffffffffffffff8416925063f2fde38b9150602401600060405180830381600087803b15801561017a57600080fd5b505af115801561018e573d6000803e3d6000fd5b505060405173ffffffffffffffffffffffffffffffffffffffff841681527f6ace5835f14486bead350c58a6ce67b18fec46c58b809b749b08541cf74580259250602001905060405180910390a1919050565b60006040517f3d602d80600a3d3981f3363d3d373d3d3d363d7300000000000000000000000081528260601b60148201527f5af43d82803e903d91602b57fd5bf3000000000000000000000000000000000060288201526037816000f091505073ffffffffffffffffffffffffffffffffffffffff81166102c2576040517f08c379a000000000000000000000000000000000000000000000000000000000815260206004820152601660248201527f455243313136373a20637265617465206661696c656400000000000000000000604482015260640160405180910390fd5b91905056fea2646970667358221220ce206477a313b20c8c2cdeed49985151028f3f185639c405b6938258c49903e864736f6c634300080a0033",
    "linkReferences": {}
  },
  "methodIdentifiers": {
    "createOverride()": "4994fa9a",
    "originAddress()": "e517fedd"
  },
  "id": 6
}