{
  "abi": [
    {
      "inputs": [
        {
          "internalType": "address",
          "name": "_approvalsManager",
          "type": "address"
        }
      ],
      "stateMutability": "nonpayable",
      "type": "constructor"
    },
    {
      "inputs": [],
      "name": "ZMM",
      "outputs": [
        {
          "internalType": "contract ZoraModuleManager",
          "name": "",
          "type": "address"
        }
      ],
      "stateMutability": "view",
      "type": "function"
    },
    {
      "inputs": [
        {
          "internalType": "address",
          "name": "_user",
          "type": "address"
        }
      ],
      "name": "isModuleApproved",
      "outputs": [
        {
          "internalType": "bool",
          "name": "",
          "type": "bool"
        }
      ],
      "stateMutability": "view",
      "type": "function"
    },
    {
      "inputs": [
        {
          "internalType": "address",
          "name": "_token",
          "type": "address"
        },
        {
          "internalType": "address",
          "name": "_from",
          "type": "address"
        },
        {
          "internalType": "address",
          "name": "_to",
          "type": "address"
        },
        {
          "internalType": "uint256",
          "name": "_value",
          "type": "uint256"
        }
      ],
      "name": "safeTransferFrom",
      "outputs": [],
      "stateMutability": "nonpayable",
      "type": "function"
    }
  ],
  "bytecode": {
    "object": "0x60a060405234801561001057600080fd5b5060405161088238038061088283398101604081905261002f916100b0565b806001600160a01b03811661009e5760405162461bcd60e51b815260206004820152602b60248201527f6d75737420736574206d6f64756c65206d616e6167657220746f206e6f6e2d7a60448201526a65726f206164647265737360a81b606482015260840160405180910390fd5b6001600160a01b0316608052506100e0565b6000602082840312156100c257600080fd5b81516001600160a01b03811681146100d957600080fd5b9392505050565b608051610781610101600039600081816088015261011d01526107816000f3fe608060405234801561001057600080fd5b50600436106100415760003560e01c806372d2769214610046578063d9fc4b611461006e578063e3e606f014610083575b600080fd5b61005961005436600461062a565b6100cf565b60405190151581526020015b60405180910390f35b61008161007c366004610645565b610190565b005b6100aa7f000000000000000000000000000000000000000000000000000000000000000081565b60405173ffffffffffffffffffffffffffffffffffffffff9091168152602001610065565b6040517f37436c9800000000000000000000000000000000000000000000000000000000815273ffffffffffffffffffffffffffffffffffffffff82811660048301523360248301526000917f0000000000000000000000000000000000000000000000000000000000000000909116906337436c9890604401602060405180830381865afa158015610166573d6000803e3d6000fd5b505050506040513d601f19601f8201168201806040525081019061018a9190610690565b92915050565b8261019a816100cf565b61022a576040517f08c379a0000000000000000000000000000000000000000000000000000000008152602060048201526024808201527f6d6f64756c6520686173206e6f74206265656e20617070726f7665642062792060448201527f757365720000000000000000000000000000000000000000000000000000000060648201526084015b60405180910390fd5b61024c73ffffffffffffffffffffffffffffffffffffffff8616858585610253565b5050505050565b6040805173ffffffffffffffffffffffffffffffffffffffff85811660248301528416604482015260648082018490528251808303909101815260849091019091526020810180517bffffffffffffffffffffffffffffffffffffffffffffffffffffffff167f23b872dd000000000000000000000000000000000000000000000000000000001790526102e89085906102ee565b50505050565b6000610350826040518060400160405280602081526020017f5361666545524332303a206c6f772d6c6576656c2063616c6c206661696c65648152508573ffffffffffffffffffffffffffffffffffffffff166103ff9092919063ffffffff16565b8051909150156103fa578080602001905181019061036e9190610690565b6103fa576040517f08c379a000000000000000000000000000000000000000000000000000000000815260206004820152602a60248201527f5361666545524332303a204552433230206f7065726174696f6e20646964206e60448201527f6f742073756363656564000000000000000000000000000000000000000000006064820152608401610221565b505050565b606061040e8484600085610418565b90505b9392505050565b6060824710156104aa576040517f08c379a000000000000000000000000000000000000000000000000000000000815260206004820152602660248201527f416464726573733a20696e73756666696369656e742062616c616e636520666f60448201527f722063616c6c00000000000000000000000000000000000000000000000000006064820152608401610221565b73ffffffffffffffffffffffffffffffffffffffff85163b610528576040517f08c379a000000000000000000000000000000000000000000000000000000000815260206004820152601d60248201527f416464726573733a2063616c6c20746f206e6f6e2d636f6e74726163740000006044820152606401610221565b6000808673ffffffffffffffffffffffffffffffffffffffff16858760405161055191906106de565b60006040518083038185875af1925050503d806000811461058e576040519150601f19603f3d011682016040523d82523d6000602084013e610593565b606091505b50915091506105a38282866105ae565b979650505050505050565b606083156105bd575081610411565b8251156105cd5782518084602001fd5b816040517f08c379a000000000000000000000000000000000000000000000000000000000815260040161022191906106fa565b803573ffffffffffffffffffffffffffffffffffffffff8116811461062557600080fd5b919050565b60006020828403121561063c57600080fd5b61041182610601565b6000806000806080858703121561065b57600080fd5b61066485610601565b935061067260208601610601565b925061068060408601610601565b9396929550929360600135925050565b6000602082840312156106a257600080fd5b8151801515811461041157600080fd5b60005b838110156106cd5781810151838201526020016106b5565b838111156102e85750506000910152565b600082516106f08184602087016106b2565b9190910192915050565b60208152600082518060208401526107198160408501602087016106b2565b601f017fffffffffffffffffffffffffffffffffffffffffffffffffffffffffffffffe016919091016040019291505056fea26469706673582212206693aa2404d13ea02dbe5b19587cb83640c4c1b4af3bb6283e07f6c65123a46964736f6c634300080a0033",
    "linkReferences": {}
  },
  "methodIdentifiers": {
    "ZMM()": "e3e606f0",
    "isModuleApproved(address)": "72d27692",
    "safeTransferFrom(address,address,address,uint256)": "d9fc4b61"
  },
  "id": 93
}