{
  "abi": [
    {
      "inputs": [
        {
          "internalType": "address",
          "name": "",
          "type": "address"
        },
        {
          "internalType": "uint256",
          "name": "",
          "type": "uint256"
        }
      ],
      "name": "askForNFT",
      "outputs": [
        {
          "internalType": "uint256",
          "name": "price",
          "type": "uint256"
        },
        {
          "internalType": "address",
          "name": "seller",
          "type": "address"
        },
        {
          "internalType": "uint32",
          "name": "features",
          "type": "uint32"
        }
      ],
      "stateMutability": "view",
      "type": "function"
    }
  ],
  "bytecode": {
    "object": "0x608060405234801561001057600080fd5b5061014a806100206000396000f3fe608060405234801561001057600080fd5b506004361061002b5760003560e01c8063418f065614610030575b600080fd5b61009561003e3660046100cf565b60006020818152928152604080822090935290815220805460019091015473ffffffffffffffffffffffffffffffffffffffff81169074010000000000000000000000000000000000000000900463ffffffff1683565b6040805193845273ffffffffffffffffffffffffffffffffffffffff909216602084015263ffffffff169082015260600160405180910390f35b600080604083850312156100e257600080fd5b823573ffffffffffffffffffffffffffffffffffffffff8116811461010657600080fd5b94602093909301359350505056fea2646970667358221220d712a1b952f494188c2a7b1eafe47fe128966d33a337d537c3725e1df9a45b9864736f6c634300080a0033",
    "linkReferences": {}
  },
  "methodIdentifiers": {
    "askForNFT(address,uint256)": "418f0656"
  },
  "id": 33
}