{
  "abi": [
    {
      "inputs": [
        {
          "internalType": "address",
          "name": "_erc20TransferHelper",
          "type": "address"
        },
        {
          "internalType": "address",
          "name": "_erc721TransferHelper",
          "type": "address"
        },
        {
          "internalType": "address",
          "name": "_royaltyEngine",
          "type": "address"
        },
        {
          "internalType": "address",
          "name": "_protocolFeeSettings",
          "type": "address"
        },
        {
          "internalType": "address",
          "name": "_weth",
          "type": "address"
        }
      ],
      "stateMutability": "nonpayable",
      "type": "constructor"
    },
    {
      "anonymous": false,
      "inputs": [
        {
          "indexed": true,
          "internalType": "address",
          "name": "tokenContract",
          "type": "address"
        },
        {
          "indexed": true,
          "internalType": "uint256",
          "name": "tokenId",
          "type": "uint256"
        },
        {
          "indexed": false,
          "internalType": "bool",
          "name": "firstBid",
          "type": "bool"
        },
        {
          "indexed": false,
          "internalType": "bool",
          "name": "extended",
          "type": "bool"
        },
        {
          "components": [
            {
              "internalType": "address",
              "name": "seller",
              "type": "address"
            },
            {
              "internalType": "address",
              "name": "sellerFundsRecipient",
              "type": "address"
            },
            {
              "internalType": "uint256",
              "name": "reservePrice",
              "type": "uint256"
            },
            {
              "internalType": "uint256",
              "name": "highestBid",
              "type": "uint256"
            },
            {
              "internalType": "address",
              "name": "highestBidder",
              "type": "address"
            },
            {
              "internalType": "uint48",
              "name": "duration",
              "type": "uint48"
            },
            {
              "internalType": "uint48",
              "name": "startTime",
              "type": "uint48"
            },
            {
              "internalType": "address",
              "name": "currency",
              "type": "address"
            },
            {
              "internalType": "uint96",
              "name": "firstBidTime",
              "type": "uint96"
            }
          ],
          "indexed": false,
          "internalType": "struct ReserveAuctionCoreErc20.Auction",
          "name": "auction",
          "type": "tuple"
        }
      ],
      "name": "AuctionBid",
      "type": "event"
    },
    {
      "anonymous": false,
      "inputs": [
        {
          "indexed": true,
          "internalType": "address",
          "name": "tokenContract",
          "type": "address"
        },
        {
          "indexed": true,
          "internalType": "uint256",
          "name": "tokenId",
          "type": "uint256"
        },
        {
          "components": [
            {
              "internalType": "address",
              "name": "seller",
              "type": "address"
            },
            {
              "internalType": "address",
              "name": "sellerFundsRecipient",
              "type": "address"
            },
            {
              "internalType": "uint256",
              "name": "reservePrice",
              "type": "uint256"
            },
            {
              "internalType": "uint256",
              "name": "highestBid",
              "type": "uint256"
            },
            {
              "internalType": "address",
              "name": "highestBidder",
              "type": "address"
            },
            {
              "internalType": "uint48",
              "name": "duration",
              "type": "uint48"
            },
            {
              "internalType": "uint48",
              "name": "startTime",
              "type": "uint48"
            },
            {
              "internalType": "address",
              "name": "currency",
              "type": "address"
            },
            {
              "internalType": "uint96",
              "name": "firstBidTime",
              "type": "uint96"
            }
          ],
          "indexed": false,
          "internalType": "struct ReserveAuctionCoreErc20.Auction",
          "name": "auction",
          "type": "tuple"
        }
      ],
      "name": "AuctionCanceled",
      "type": "event"
    },
    {
      "anonymous": false,
      "inputs": [
        {
          "indexed": true,
          "internalType": "address",
          "name": "tokenContract",
          "type": "address"
        },
        {
          "indexed": true,
          "internalType": "uint256",
          "name": "tokenId",
          "type": "uint256"
        },
        {
          "components": [
            {
              "internalType": "address",
              "name": "seller",
              "type": "address"
            },
            {
              "internalType": "address",
              "name": "sellerFundsRecipient",
              "type": "address"
            },
            {
              "internalType": "uint256",
              "name": "reservePrice",
              "type": "uint256"
            },
            {
              "internalType": "uint256",
              "name": "highestBid",
              "type": "uint256"
            },
            {
              "internalType": "address",
              "name": "highestBidder",
              "type": "address"
            },
            {
              "internalType": "uint48",
              "name": "duration",
              "type": "uint48"
            },
            {
              "internalType": "uint48",
              "name": "startTime",
              "type": "uint48"
            },
            {
              "internalType": "address",
              "name": "currency",
              "type": "address"
            },
            {
              "internalType": "uint96",
              "name": "firstBidTime",
              "type": "uint96"
            }
          ],
          "indexed": false,
          "internalType": "struct ReserveAuctionCoreErc20.Auction",
          "name": "auction",
          "type": "tuple"
        }
      ],
      "name": "AuctionCreated",
      "type": "event"
    },
    {
      "anonymous": false,
      "inputs": [
        {
          "indexed": true,
          "internalType": "address",
          "name": "tokenContract",
          "type": "address"
        },
        {
          "indexed": true,
          "internalType": "uint256",
          "name": "tokenId",
          "type": "uint256"
        },
        {
          "components": [
            {
              "internalType": "address",
              "name": "seller",
              "type": "address"
            },
            {
              "internalType": "address",
              "name": "sellerFundsRecipient",
              "type": "address"
            },
            {
              "internalType": "uint256",
              "name": "reservePrice",
              "type": "uint256"
            },
            {
              "internalType": "uint256",
              "name": "highestBid",
              "type": "uint256"
            },
            {
              "internalType": "address",
              "name": "highestBidder",
              "type": "address"
            },
            {
              "internalType": "uint48",
              "name": "duration",
              "type": "uint48"
            },
            {
              "internalType": "uint48",
              "name": "startTime",
              "type": "uint48"
            },
            {
              "internalType": "address",
              "name": "currency",
              "type": "address"
            },
            {
              "internalType": "uint96",
              "name": "firstBidTime",
              "type": "uint96"
            }
          ],
          "indexed": false,
          "internalType": "struct ReserveAuctionCoreErc20.Auction",
          "name": "auction",
          "type": "tuple"
        }
      ],
      "name": "AuctionEnded",
      "type": "event"
    },
    {
      "anonymous": false,
      "inputs": [
        {
          "indexed": true,
          "internalType": "address",
          "name": "tokenContract",
          "type": "address"
        },
        {
          "indexed": true,
          "internalType": "uint256",
          "name": "tokenId",
          "type": "uint256"
        },
        {
          "components": [
            {
              "internalType": "address",
              "name": "seller",
              "type": "address"
            },
            {
              "internalType": "address",
              "name": "sellerFundsRecipient",
              "type": "address"
            },
            {
              "internalType": "uint256",
              "name": "reservePrice",
              "type": "uint256"
            },
            {
              "internalType": "uint256",
              "name": "highestBid",
              "type": "uint256"
            },
            {
              "internalType": "address",
              "name": "highestBidder",
              "type": "address"
            },
            {
              "internalType": "uint48",
              "name": "duration",
              "type": "uint48"
            },
            {
              "internalType": "uint48",
              "name": "startTime",
              "type": "uint48"
            },
            {
              "internalType": "address",
              "name": "currency",
              "type": "address"
            },
            {
              "internalType": "uint96",
              "name": "firstBidTime",
              "type": "uint96"
            }
          ],
          "indexed": false,
          "internalType": "struct ReserveAuctionCoreErc20.Auction",
          "name": "auction",
          "type": "tuple"
        }
      ],
      "name": "AuctionReservePriceUpdated",
      "type": "event"
    },
    {
      "anonymous": false,
      "inputs": [
        {
          "indexed": true,
          "internalType": "address",
          "name": "tokenContract",
          "type": "address"
        },
        {
          "indexed": true,
          "internalType": "uint256",
          "name": "tokenId",
          "type": "uint256"
        },
        {
          "indexed": false,
          "internalType": "address",
          "name": "recipient",
          "type": "address"
        },
        {
          "indexed": false,
          "internalType": "uint256",
          "name": "amount",
          "type": "uint256"
        }
      ],
      "name": "RoyaltyPayout",
      "type": "event"
    },
    {
      "inputs": [
        {
          "internalType": "address",
          "name": "_tokenContract",
          "type": "address"
        },
        {
          "internalType": "uint256",
          "name": "_tokenId",
          "type": "uint256"
        },
        {
          "internalType": "uint256",
          "name": "_amount",
          "type": "uint256"
        },
        {
          "internalType": "address",
          "name": "_payoutCurrency",
          "type": "address"
        }
      ],
      "name": "_handleRoyaltyEnginePayout",
      "outputs": [
        {
          "internalType": "uint256",
          "name": "",
          "type": "uint256"
        }
      ],
      "stateMutability": "payable",
      "type": "function"
    },
    {
      "inputs": [
        {
          "internalType": "address",
          "name": "",
          "type": "address"
        },
        {
          "internalType": "uint256",
          "name": "",
          "type": "uint256"
        }
      ],
      "name": "auctionForNFT",
      "outputs": [
        {
          "internalType": "address",
          "name": "seller",
          "type": "address"
        },
        {
          "internalType": "address",
          "name": "sellerFundsRecipient",
          "type": "address"
        },
        {
          "internalType": "uint256",
          "name": "reservePrice",
          "type": "uint256"
        },
        {
          "internalType": "uint256",
          "name": "highestBid",
          "type": "uint256"
        },
        {
          "internalType": "address",
          "name": "highestBidder",
          "type": "address"
        },
        {
          "internalType": "uint48",
          "name": "duration",
          "type": "uint48"
        },
        {
          "internalType": "uint48",
          "name": "startTime",
          "type": "uint48"
        },
        {
          "internalType": "address",
          "name": "currency",
          "type": "address"
        },
        {
          "internalType": "uint96",
          "name": "firstBidTime",
          "type": "uint96"
        }
      ],
      "stateMutability": "view",
      "type": "function"
    },
    {
      "inputs": [
        {
          "internalType": "address",
          "name": "_tokenContract",
          "type": "address"
        },
        {
          "internalType": "uint256",
          "name": "_tokenId",
          "type": "uint256"
        }
      ],
      "name": "cancelAuction",
      "outputs": [],
      "stateMutability": "nonpayable",
      "type": "function"
    },
    {
      "inputs": [
        {
          "internalType": "address",
          "name": "_tokenContract",
          "type": "address"
        },
        {
          "internalType": "uint256",
          "name": "_tokenId",
          "type": "uint256"
        },
        {
          "internalType": "uint256",
          "name": "_duration",
          "type": "uint256"
        },
        {
          "internalType": "uint256",
          "name": "_reservePrice",
          "type": "uint256"
        },
        {
          "internalType": "address",
          "name": "_sellerFundsRecipient",
          "type": "address"
        },
        {
          "internalType": "uint256",
          "name": "_startTime",
          "type": "uint256"
        },
        {
          "internalType": "address",
          "name": "_bidCurrency",
          "type": "address"
        }
      ],
      "name": "createAuction",
      "outputs": [],
      "stateMutability": "nonpayable",
      "type": "function"
    },
    {
      "inputs": [
        {
          "internalType": "address",
          "name": "_tokenContract",
          "type": "address"
        },
        {
          "internalType": "uint256",
          "name": "_tokenId",
          "type": "uint256"
        },
        {
          "internalType": "uint256",
          "name": "_amount",
          "type": "uint256"
        }
      ],
      "name": "createBid",
      "outputs": [],
      "stateMutability": "payable",
      "type": "function"
    },
    {
      "inputs": [],
      "name": "erc20TransferHelper",
      "outputs": [
        {
          "internalType": "contract ERC20TransferHelper",
          "name": "",
          "type": "address"
        }
      ],
      "stateMutability": "view",
      "type": "function"
    },
    {
      "inputs": [],
      "name": "erc721TransferHelper",
      "outputs": [
        {
          "internalType": "contract ERC721TransferHelper",
          "name": "",
          "type": "address"
        }
      ],
      "stateMutability": "view",
      "type": "function"
    },
    {
      "inputs": [],
      "name": "name",
      "outputs": [
        {
          "internalType": "string",
          "name": "",
          "type": "string"
        }
      ],
      "stateMutability": "view",
      "type": "function"
    },
    {
      "inputs": [],
      "name": "registrar",
      "outputs": [
        {
          "internalType": "address",
          "name": "",
          "type": "address"
        }
      ],
      "stateMutability": "view",
      "type": "function"
    },
    {
      "inputs": [
        {
          "internalType": "address",
          "name": "_tokenContract",
          "type": "address"
        },
        {
          "internalType": "uint256",
          "name": "_tokenId",
          "type": "uint256"
        },
        {
          "internalType": "uint256",
          "name": "_reservePrice",
          "type": "uint256"
        }
      ],
      "name": "setAuctionReservePrice",
      "outputs": [],
      "stateMutability": "nonpayable",
      "type": "function"
    },
    {
      "inputs": [
        {
          "internalType": "address",
          "name": "_royaltyEngine",
          "type": "address"
        }
      ],
      "name": "setRoyaltyEngineAddress",
      "outputs": [],
      "stateMutability": "nonpayable",
      "type": "function"
    },
    {
      "inputs": [
        {
          "internalType": "address",
          "name": "_tokenContract",
          "type": "address"
        },
        {
          "internalType": "uint256",
          "name": "_tokenId",
          "type": "uint256"
        }
      ],
      "name": "settleAuction",
      "outputs": [],
      "stateMutability": "nonpayable",
      "type": "function"
    },
    {
      "inputs": [
        {
          "internalType": "bytes4",
          "name": "_interfaceId",
          "type": "bytes4"
        }
      ],
      "name": "supportsInterface",
      "outputs": [
        {
          "internalType": "bool",
          "name": "",
          "type": "bool"
        }
      ],
      "stateMutability": "pure",
      "type": "function"
    }
  ],
  "bytecode": {
    "object": "0x61012060405260016000553480156200001757600080fd5b50604051620035a1380380620035a18339810160408190526200003a9162000262565b6040518060400160405280601b81526020017f526573657276652041756374696f6e20436f7265204552432d32300000000000815250838383876001600160a01b031663e3e606f06040518163ffffffff1660e01b8152600401602060405180830381865afa158015620000b2573d6000803e3d6000fd5b505050506040513d601f19601f82011682018060405250810190620000d89190620002e2565b6001600160a01b0316632b20e3976040518163ffffffff1660e01b8152600401602060405180830381865afa15801562000116573d6000803e3d6000fd5b505050506040513d601f19601f820116820180604052508101906200013c9190620002e2565b6001600160a01b038a811660805291821660a052600180546001600160a01b0319169483169490941790935590811660e0521660c052805162000187906002906020840190620001a3565b5050506001600160a01b03909216610100525062000346915050565b828054620001b19062000309565b90600052602060002090601f016020900481019282620001d5576000855562000220565b82601f10620001f057805160ff191683800117855562000220565b8280016001018555821562000220579182015b828111156200022057825182559160200191906001019062000203565b506200022e92915062000232565b5090565b5b808211156200022e576000815560010162000233565b6001600160a01b03811681146200025f57600080fd5b50565b600080600080600060a086880312156200027b57600080fd5b8551620002888162000249565b60208701519095506200029b8162000249565b6040870151909450620002ae8162000249565b6060870151909350620002c18162000249565b6080870151909250620002d48162000249565b809150509295509295909350565b600060208284031215620002f557600080fd5b8151620003028162000249565b9392505050565b600181811c908216806200031e57607f821691505b602082108114156200034057634e487b7160e01b600052602260045260246000fd5b50919050565b60805160a05160c05160e051610100516131f3620003ae600039600081816103d70152611a48015260008181611e420152611eee015260008181610162015261138e0152600081816120f001526121880152600081816101fb01526123a101526131f36000f3fe6080604052600436106100d25760003560e01c80638f9d32511161007f578063b249bb3011610059578063b249bb3014610385578063cbe98dba146103a5578063f7cd1d9b146103c5578063fba133d9146103f957600080fd5b80638f9d3251146101e95780639128c22c1461021d578063a90832a11461023e57600080fd5b80632b20e397116100b05780632b20e397146101505780635138b08c146101a9578063859b97fe146101c957600080fd5b806301ffc9a7146100d75780630366c34f1461010c57806306fdde031461012e575b600080fd5b3480156100e357600080fd5b506100f76100f23660046129f7565b61040c565b60405190151581526020015b60405180910390f35b34801561011857600080fd5b5061012c610127366004612a5e565b6104a5565b005b34801561013a57600080fd5b50610143610888565b6040516101039190612afc565b34801561015c57600080fd5b506101847f000000000000000000000000000000000000000000000000000000000000000081565b60405173ffffffffffffffffffffffffffffffffffffffff9091168152602001610103565b3480156101b557600080fd5b5061012c6101c4366004612b4d565b610916565b3480156101d557600080fd5b5061012c6101e4366004612b4d565b610cfd565b3480156101f557600080fd5b506101847f000000000000000000000000000000000000000000000000000000000000000081565b61023061022b366004612b79565b6110d1565b604051908152602001610103565b34801561024a57600080fd5b5061030d610259366004612b4d565b6003602081815260009384526040808520909152918352912080546001820154600283015493830154600484015460059094015473ffffffffffffffffffffffffffffffffffffffff938416959284169492939192828116927401000000000000000000000000000000000000000080830465ffffffffffff908116947a010000000000000000000000000000000000000000000000000000909404169291821691046bffffffffffffffffffffffff1689565b6040805173ffffffffffffffffffffffffffffffffffffffff9a8b168152988a1660208a01528801969096526060870194909452918616608086015265ffffffffffff90811660a08601521660c084015290921660e08201526bffffffffffffffffffffffff90911661010082015261012001610103565b34801561039157600080fd5b5061012c6103a0366004612bc3565b611376565b3480156103b157600080fd5b5061012c6103c0366004612be0565b611538565b3480156103d157600080fd5b506101847f000000000000000000000000000000000000000000000000000000000000000081565b61012c610407366004612be0565b61174d565b60007fffffffff0000000000000000000000000000000000000000000000000000000082167fe78d5a5e00000000000000000000000000000000000000000000000000000000148061049f57507f01ffc9a7000000000000000000000000000000000000000000000000000000007fffffffff000000000000000000000000000000000000000000000000000000008316145b92915050565b600054600114610516576040517f08c379a000000000000000000000000000000000000000000000000000000000815260206004820152600a60248201527f5245454e5452414e43590000000000000000000000000000000000000000000060448201526064015b60405180910390fd5b600260009081556040517f6352211e0000000000000000000000000000000000000000000000000000000081526004810188905273ffffffffffffffffffffffffffffffffffffffff891690636352211e90602401602060405180830381865afa158015610588573d6000803e3d6000fd5b505050506040513d601f19601f820116820180604052508101906105ac9190612c15565b90503373ffffffffffffffffffffffffffffffffffffffff8216148061066357506040517fe985e9c500000000000000000000000000000000000000000000000000000000815273ffffffffffffffffffffffffffffffffffffffff828116600483015233602483015289169063e985e9c590604401602060405180830381865afa15801561063f573d6000803e3d6000fd5b505050506040513d601f19601f820116820180604052508101906106639190612c32565b6106c9576040517f08c379a000000000000000000000000000000000000000000000000000000000815260206004820152601c60248201527f4f4e4c595f544f4b454e5f4f574e45525f4f525f4f50455241544f5200000000604482015260640161050d565b73ffffffffffffffffffffffffffffffffffffffff8416610746576040517f08c379a000000000000000000000000000000000000000000000000000000000815260206004820152601760248201527f494e56414c49445f46554e44535f524543495049454e54000000000000000000604482015260640161050d565b73ffffffffffffffffffffffffffffffffffffffff80891660008181526003602090815260408083208c84529091529081902080548585167fffffffffffffffffffffffff00000000000000000000000000000000000000009182161782556001820180548a8716908316179055600282018a905560048201805465ffffffffffff8a81167a0100000000000000000000000000000000000000000000000000000279ffffffffffffffffffffffffffffffffffffffffffffffffffff918f16740100000000000000000000000000000000000000000291909116918816919091171790556005820180549588169590911694909417909355518991907f9ef1635be16736b5f488679d6cea149731e7ab2060548233af28b3c6e6a6cf2b90610870908590612d08565b60405180910390a35050600160005550505050505050565b6002805461089590612d17565b80601f01602080910402602001604051908101604052809291908181526020018280546108c190612d17565b801561090e5780601f106108e35761010080835404028352916020019161090e565b820191906000526020600020905b8154815290600101906020018083116108f157829003601f168201915b505050505081565b600054600114610982576040517f08c379a000000000000000000000000000000000000000000000000000000000815260206004820152600a60248201527f5245454e5452414e435900000000000000000000000000000000000000000000604482015260640161050d565b6002600081815573ffffffffffffffffffffffffffffffffffffffff80851682526003602081815260408085208786528252938490208451610120810186528154851681526001820154851692810192909252948501549381019390935283015460608301526004830154808216608084015265ffffffffffff74010000000000000000000000000000000000000000808304821660a08601527a0100000000000000000000000000000000000000000000000000009092041660c084015260059093015490811660e08301526bffffffffffffffffffffffff92900491909116610100820181905280610ad2576040517f08c379a000000000000000000000000000000000000000000000000000000000815260206004820152601360248201527f41554354494f4e5f4e4f545f5354415254454400000000000000000000000000604482015260640161050d565b60a0820151610ae99065ffffffffffff1682612d9a565b421015610b52576040517f08c379a000000000000000000000000000000000000000000000000000000000815260206004820152601060248201527f41554354494f4e5f4e4f545f4f56455200000000000000000000000000000000604482015260640161050d565b60008260e0015190506000610b718686866060015185620493e0611ced565b509050610b7e8183611df3565b9050610b928460200151828461c350611f91565b60808401516040517f23b872dd00000000000000000000000000000000000000000000000000000000815230600482015273ffffffffffffffffffffffffffffffffffffffff918216602482015260448101879052908716906323b872dd90606401600060405180830381600087803b158015610c0e57600080fd5b505af1158015610c22573d6000803e3d6000fd5b50505050848673ffffffffffffffffffffffffffffffffffffffff167f0828c74ed74337090a4c0da7e727f14fca2526cf5b3cbae0ad4f18e329cf102886604051610c6d9190612db2565b60405180910390a350505073ffffffffffffffffffffffffffffffffffffffff909216600090815260036020818152604080842094845293905291812080547fffffffffffffffffffffffff000000000000000000000000000000000000000090811682556001808301805490921690915560028201839055928101829055600481018290556005018190555550565b600054600114610d69576040517f08c379a000000000000000000000000000000000000000000000000000000000815260206004820152600a60248201527f5245454e5452414e435900000000000000000000000000000000000000000000604482015260640161050d565b6002600081815573ffffffffffffffffffffffffffffffffffffffff80851682526003602081815260408085208786528252938490208451610120810186528154851681526001820154851692810192909252948501549381019390935283015460608301526004830154808216608084015265ffffffffffff74010000000000000000000000000000000000000000808304821660a08601527a0100000000000000000000000000000000000000000000000000009092041660c084015260059093015490811660e08301526bffffffffffffffffffffffff92900491909116610100820181905215610eb9576040517f08c379a000000000000000000000000000000000000000000000000000000000815260206004820152600f60248201527f41554354494f4e5f535441525445440000000000000000000000000000000000604482015260640161050d565b805173ffffffffffffffffffffffffffffffffffffffff16331480610f9757506040517f6352211e0000000000000000000000000000000000000000000000000000000081526004810183905273ffffffffffffffffffffffffffffffffffffffff841690636352211e90602401602060405180830381865afa158015610f44573d6000803e3d6000fd5b505050506040513d601f19601f82011682018060405250810190610f689190612c15565b73ffffffffffffffffffffffffffffffffffffffff163373ffffffffffffffffffffffffffffffffffffffff16145b610ffd576040517f08c379a000000000000000000000000000000000000000000000000000000000815260206004820152601a60248201527f4f4e4c595f53454c4c45525f4f525f544f4b454e5f4f574e4552000000000000604482015260640161050d565b818373ffffffffffffffffffffffffffffffffffffffff167f28d1581c85a979ef8d7973299d416a080ec0cb0a789b1a833da043fc3af2d952836040516110449190612db2565b60405180910390a35073ffffffffffffffffffffffffffffffffffffffff909116600090815260036020818152604080842094845293905291812080547fffffffffffffffffffffffff0000000000000000000000000000000000000000908116825560018083018054909216909155600282018390559281018290556004810182905560050181905555565b6000333014611162576040517f08c379a000000000000000000000000000000000000000000000000000000000815260206004820152602d60248201527f5f68616e646c65526f79616c7479456e67696e655061796f7574206f6e6c792060448201527f73656c662063616c6c61626c6500000000000000000000000000000000000000606482015260840161050d565b6001546040517ff533b80200000000000000000000000000000000000000000000000000000000815273ffffffffffffffffffffffffffffffffffffffff87811660048301526024820187905260448201869052600092839291169063f533b802906064016000604051808303816000875af11580156111e6573d6000803e3d6000fd5b505050506040513d6000823e601f3d9081017fffffffffffffffffffffffffffffffffffffffffffffffffffffffffffffffe016820160405261122c9190810190612fa5565b81519193509150806112435785935050505061136e565b85600080805b84811015611364578681815181106112635761126361306a565b6020026020010151925085818151811061127f5761127f61306a565b60200260200101519150818410156112f3576040517f08c379a000000000000000000000000000000000000000000000000000000000815260206004820152600960248201527f696e736f6c76656e740000000000000000000000000000000000000000000000604482015260640161050d565b61130183838b61c350611f91565b6040805173ffffffffffffffffffffffffffffffffffffffff8581168252602082018590528d92908f16917f866e6ef8682ddf5f1025e64dfdb45527077f7be70fa9ef680b7ffd8cf4ab9c50910160405180910390a39281900392600101611249565b5091955050505050505b949350505050565b3373ffffffffffffffffffffffffffffffffffffffff7f0000000000000000000000000000000000000000000000000000000000000000161461143b576040517f08c379a000000000000000000000000000000000000000000000000000000000815260206004820152602660248201527f736574526f79616c7479456e67696e6541646472657373206f6e6c792072656760448201527f6973747261720000000000000000000000000000000000000000000000000000606482015260840161050d565b611465817fcb23f816000000000000000000000000000000000000000000000000000000006121e1565b6114f1576040517f08c379a000000000000000000000000000000000000000000000000000000000815260206004820152603d60248201527f736574526f79616c7479456e67696e6541646472657373206d757374206d617460448201527f63682049526f79616c7479456e67696e65563120696e74657266616365000000606482015260840161050d565b600180547fffffffffffffffffffffffff00000000000000000000000000000000000000001673ffffffffffffffffffffffffffffffffffffffff92909216919091179055565b6000546001146115a4576040517f08c379a000000000000000000000000000000000000000000000000000000000815260206004820152600a60248201527f5245454e5452414e435900000000000000000000000000000000000000000000604482015260640161050d565b6002600090815573ffffffffffffffffffffffffffffffffffffffff84168152600360209081526040808320858452909152902060058101547401000000000000000000000000000000000000000090046bffffffffffffffffffffffff161561166a576040517f08c379a000000000000000000000000000000000000000000000000000000000815260206004820152600f60248201527f41554354494f4e5f535441525445440000000000000000000000000000000000604482015260640161050d565b805473ffffffffffffffffffffffffffffffffffffffff1633146116ea576040517f08c379a000000000000000000000000000000000000000000000000000000000815260206004820152600b60248201527f4f4e4c595f53454c4c4552000000000000000000000000000000000000000000604482015260640161050d565b818160020181905550828473ffffffffffffffffffffffffffffffffffffffff167fa0e845828d84f82996c49fd0af64ddda6d12b85a6559a46b04aaf92dbe8ce0ab8360405161173a9190612d08565b60405180910390a3505060016000555050565b6000546001146117b9576040517f08c379a000000000000000000000000000000000000000000000000000000000815260206004820152600a60248201527f5245454e5452414e435900000000000000000000000000000000000000000000604482015260640161050d565b6002600090815573ffffffffffffffffffffffffffffffffffffffff808516825260036020908152604080842086855290915290912080549091168061185b576040517f08c379a000000000000000000000000000000000000000000000000000000000815260206004820152601660248201527f41554354494f4e5f444f45535f4e4f545f455849535400000000000000000000604482015260640161050d565b60048201547a010000000000000000000000000000000000000000000000000000900465ffffffffffff164210156118ef576040517f08c379a000000000000000000000000000000000000000000000000000000000815260206004820152601360248201527f41554354494f4e5f4e4f545f5354415254454400000000000000000000000000604482015260640161050d565b60058201546004830154740100000000000000000000000000000000000000008083046bffffffffffffffffffffffff1692910465ffffffffffff169073ffffffffffffffffffffffffffffffffffffffff16600083611aa95785600201548710156119b7576040517f08c379a000000000000000000000000000000000000000000000000000000000815260206004820152601560248201527f524553455256455f50524943455f4e4f545f4d45540000000000000000000000604482015260640161050d565b5060058501805473ffffffffffffffffffffffffffffffffffffffff90811674010000000000000000000000000000000000000000426bffffffffffffffffffffffff1602179091556040517f15dacbea00000000000000000000000000000000000000000000000000000000815289821660048201528582166024820152306044820152606481018990526001917f000000000000000000000000000000000000000000000000000000000000000016906315dacbea90608401600060405180830381600087803b158015611a8c57600080fd5b505af1158015611aa0573d6000803e3d6000fd5b50505050611bdb565b611ab38385612d9a565b4210611b1b576040517f08c379a000000000000000000000000000000000000000000000000000000000815260206004820152600c60248201527f41554354494f4e5f4f5645520000000000000000000000000000000000000000604482015260640161050d565b600386015460006064611b2f600a84613099565b611b3991906130d6565b611b439083612d9a565b905080891015611baf576040517f08c379a000000000000000000000000000000000000000000000000000000000815260206004820152601360248201527f4d494e494d554d5f4249445f4e4f545f4d455400000000000000000000000000604482015260640161050d565b6004880154611bd89073ffffffffffffffffffffffffffffffffffffffff16838661c350611f91565b50505b611be58783612204565b600386018790556004860180547fffffffffffffffffffffffff0000000000000000000000000000000000000000163317905560004285850103610384811015611c885760048801805465ffffffffffff74010000000000000000000000000000000000000000808304821661038486900301909116027fffffffffffff000000000000ffffffffffffffffffffffffffffffffffffffff909116179055600191505b898b73ffffffffffffffffffffffffffffffffffffffff167f5bbb03ea943511da2700d4a51e8b244ee289f256a69da61c9f1cb6d80fbdb2b685858c604051611cd393929190613111565b60405180910390a350506001600055505050505050505050565b60008080831580611cfd57505a84115b611d075783611d09565b5a5b6040517f9128c22c00000000000000000000000000000000000000000000000000000000815273ffffffffffffffffffffffffffffffffffffffff808b166004830152602482018a905260448201899052871660648201529091503090639128c22c90839060840160206040518083038160008887f193505050508015611dcb575060408051601f3d9081017fffffffffffffffffffffffffffffffffffffffffffffffffffffffffffffffe0168201909252611dc891810190613130565b60015b611ddc578560009250925050611de9565b925060019150611de99050565b9550959350505050565b6040517f61b485f600000000000000000000000000000000000000000000000000000000815230600482015260248101839052600090819073ffffffffffffffffffffffffffffffffffffffff7f000000000000000000000000000000000000000000000000000000000000000016906361b485f690604401602060405180830381865afa158015611e89573d6000803e3d6000fd5b505050506040513d601f19601f82011682018060405250810190611ead9190613130565b905080611ebd578391505061049f565b6040517f86ab6fb90000000000000000000000000000000000000000000000000000000081523060048201526000907f000000000000000000000000000000000000000000000000000000000000000073ffffffffffffffffffffffffffffffffffffffff16906386ab6fb9906024016040805180830381865afa158015611f49573d6000803e3d6000fd5b505050506040513d601f19601f82011682018060405250810190611f6d9190613149565b915050611f7e81838661c350611f91565b611f88828661318a565b95945050505050565b821580611fb2575073ffffffffffffffffffffffffffffffffffffffff8416155b15611fbc576121db565b73ffffffffffffffffffffffffffffffffffffffff82166121ba5782471015612067576040517f08c379a000000000000000000000000000000000000000000000000000000000815260206004820152602160248201527f5f68616e646c654f7574676f696e675472616e7366657220696e736f6c76656e60448201527f7400000000000000000000000000000000000000000000000000000000000000606482015260840161050d565b600081158061207557505a82115b61207f5781612081565b5a5b905060008573ffffffffffffffffffffffffffffffffffffffff16858390604051600060405180830381858888f193505050503d80600081146120e0576040519150601f19603f3d011682016040523d82523d6000602084013e6120e5565b606091505b50509050806121b3577f000000000000000000000000000000000000000000000000000000000000000073ffffffffffffffffffffffffffffffffffffffff1663d0e30db0866040518263ffffffff1660e01b81526004016000604051808303818588803b15801561215657600080fd5b505af115801561216a573d6000803e3d6000fd5b506121b393505073ffffffffffffffffffffffffffffffffffffffff7f000000000000000000000000000000000000000000000000000000000000000016915088905087612557565b50506121db565b6121db73ffffffffffffffffffffffffffffffffffffffff83168585612557565b50505050565b60006121ec836125e9565b80156121fd57506121fd838361264d565b9392505050565b73ffffffffffffffffffffffffffffffffffffffff81166122b357813410156122af576040517f08c379a000000000000000000000000000000000000000000000000000000000815260206004820152603b60248201527f5f68616e646c65496e636f6d696e675472616e73666572206d73672076616c7560448201527f65206c657373207468616e20657870656374656420616d6f756e740000000000606482015260840161050d565b5050565b6040517f70a08231000000000000000000000000000000000000000000000000000000008152306004820152819060009073ffffffffffffffffffffffffffffffffffffffff8316906370a0823190602401602060405180830381865afa158015612322573d6000803e3d6000fd5b505050506040513d601f19601f820116820180604052508101906123469190613130565b6040517fd9fc4b6100000000000000000000000000000000000000000000000000000000815273ffffffffffffffffffffffffffffffffffffffff8581166004830152336024830152306044830152606482018790529192507f00000000000000000000000000000000000000000000000000000000000000009091169063d9fc4b6190608401600060405180830381600087803b1580156123e757600080fd5b505af11580156123fb573d6000803e3d6000fd5b50506040517f70a082310000000000000000000000000000000000000000000000000000000081523060048201526000925073ffffffffffffffffffffffffffffffffffffffff851691506370a0823190602401602060405180830381865afa15801561246c573d6000803e3d6000fd5b505050506040513d601f19601f820116820180604052508101906124909190613130565b90508061249d8684612d9a565b14612550576040517f08c379a000000000000000000000000000000000000000000000000000000000815260206004820152604c60248201527f5f68616e646c65496e636f6d696e675472616e7366657220746f6b656e20747260448201527f616e736665722063616c6c20646964206e6f74207472616e736665722065787060648201527f656374656420616d6f756e740000000000000000000000000000000000000000608482015260a40161050d565b5050505050565b6040805173ffffffffffffffffffffffffffffffffffffffff8416602482015260448082018490528251808303909101815260649091019091526020810180517bffffffffffffffffffffffffffffffffffffffffffffffffffffffff167fa9059cbb000000000000000000000000000000000000000000000000000000001790526125e4908490612789565b505050565b6000612615827f01ffc9a70000000000000000000000000000000000000000000000000000000061264d565b801561049f5750612646827fffffffff0000000000000000000000000000000000000000000000000000000061264d565b1592915050565b604080517fffffffff00000000000000000000000000000000000000000000000000000000831660248083019190915282518083039091018152604490910182526020810180517bffffffffffffffffffffffffffffffffffffffffffffffffffffffff167f01ffc9a7000000000000000000000000000000000000000000000000000000001790529051600091908290819073ffffffffffffffffffffffffffffffffffffffff871690617530906127079086906131a1565b6000604051808303818686fa925050503d8060008114612743576040519150601f19603f3d011682016040523d82523d6000602084013e612748565b606091505b5091509150602081511015612763576000935050505061049f565b81801561277f57508080602001905181019061277f9190612c32565b9695505050505050565b60006127eb826040518060400160405280602081526020017f5361666545524332303a206c6f772d6c6576656c2063616c6c206661696c65648152508573ffffffffffffffffffffffffffffffffffffffff166128959092919063ffffffff16565b8051909150156125e457808060200190518101906128099190612c32565b6125e4576040517f08c379a000000000000000000000000000000000000000000000000000000000815260206004820152602a60248201527f5361666545524332303a204552433230206f7065726174696f6e20646964206e60448201527f6f74207375636365656400000000000000000000000000000000000000000000606482015260840161050d565b606061136e84846000858573ffffffffffffffffffffffffffffffffffffffff85163b61291e576040517f08c379a000000000000000000000000000000000000000000000000000000000815260206004820152601d60248201527f416464726573733a2063616c6c20746f206e6f6e2d636f6e7472616374000000604482015260640161050d565b6000808673ffffffffffffffffffffffffffffffffffffffff16858760405161294791906131a1565b60006040518083038185875af1925050503d8060008114612984576040519150601f19603f3d011682016040523d82523d6000602084013e612989565b606091505b50915091506129998282866129a4565b979650505050505050565b606083156129b35750816121fd565b8251156129c35782518084602001fd5b816040517f08c379a000000000000000000000000000000000000000000000000000000000815260040161050d9190612afc565b600060208284031215612a0957600080fd5b81357fffffffff00000000000000000000000000000000000000000000000000000000811681146121fd57600080fd5b73ffffffffffffffffffffffffffffffffffffffff81168114612a5b57600080fd5b50565b600080600080600080600060e0888a031215612a7957600080fd5b8735612a8481612a39565b96506020880135955060408801359450606088013593506080880135612aa981612a39565b925060a0880135915060c0880135612ac081612a39565b8091505092959891949750929550565b60005b83811015612aeb578181015183820152602001612ad3565b838111156121db5750506000910152565b6020815260008251806020840152612b1b816040850160208701612ad0565b601f017fffffffffffffffffffffffffffffffffffffffffffffffffffffffffffffffe0169190910160400192915050565b60008060408385031215612b6057600080fd5b8235612b6b81612a39565b946020939093013593505050565b60008060008060808587031215612b8f57600080fd5b8435612b9a81612a39565b935060208501359250604085013591506060850135612bb881612a39565b939692955090935050565b600060208284031215612bd557600080fd5b81356121fd81612a39565b600080600060608486031215612bf557600080fd5b8335612c0081612a39565b95602085013595506040909401359392505050565b600060208284031215612c2757600080fd5b81516121fd81612a39565b600060208284031215612c4457600080fd5b815180151581146121fd57600080fd5b612c9082612c76835473ffffffffffffffffffffffffffffffffffffffff1690565b73ffffffffffffffffffffffffffffffffffffffff169052565b600181015473ffffffffffffffffffffffffffffffffffffffff908116602084015260028201546040840152600382015460608401526004820154808216608085015260a081811c65ffffffffffff168186015260d09190911c60c085015260059092015490811660e0840152901c61010090910152565b610120810161049f8284612c54565b600181811c90821680612d2b57607f821691505b60208210811415612d65577f4e487b7100000000000000000000000000000000000000000000000000000000600052602260045260246000fd5b50919050565b7f4e487b7100000000000000000000000000000000000000000000000000000000600052601160045260246000fd5b60008219821115612dad57612dad612d6b565b500190565b60006101208201905073ffffffffffffffffffffffffffffffffffffffff8084511683528060208501511660208401525060408301516040830152606083015160608301526080830151612e1e608084018273ffffffffffffffffffffffffffffffffffffffff169052565b5060a0830151612e3860a084018265ffffffffffff169052565b5060c0830151612e5260c084018265ffffffffffff169052565b5060e0830151612e7a60e084018273ffffffffffffffffffffffffffffffffffffffff169052565b50610100928301516bffffffffffffffffffffffff16919092015290565b7f4e487b7100000000000000000000000000000000000000000000000000000000600052604160045260246000fd5b604051601f82017fffffffffffffffffffffffffffffffffffffffffffffffffffffffffffffffe016810167ffffffffffffffff81118282101715612f0e57612f0e612e98565b604052919050565b600067ffffffffffffffff821115612f3057612f30612e98565b5060051b60200190565b600082601f830112612f4b57600080fd5b81516020612f60612f5b83612f16565b612ec7565b82815260059290921b84018101918181019086841115612f7f57600080fd5b8286015b84811015612f9a5780518352918301918301612f83565b509695505050505050565b60008060408385031215612fb857600080fd5b825167ffffffffffffffff80821115612fd057600080fd5b818501915085601f830112612fe457600080fd5b81516020612ff4612f5b83612f16565b82815260059290921b8401810191818101908984111561301357600080fd5b948201945b8386101561303a57855161302b81612a39565b82529482019490820190613018565b9188015191965090935050508082111561305357600080fd5b5061306085828601612f3a565b9150509250929050565b7f4e487b7100000000000000000000000000000000000000000000000000000000600052603260045260246000fd5b6000817fffffffffffffffffffffffffffffffffffffffffffffffffffffffffffffffff04831182151516156130d1576130d1612d6b565b500290565b60008261310c577f4e487b7100000000000000000000000000000000000000000000000000000000600052601260045260246000fd5b500490565b83151581528215156020820152610160810161136e6040830184612c54565b60006020828403121561314257600080fd5b5051919050565b6000806040838503121561315c57600080fd5b825161ffff8116811461316e57600080fd5b602084015190925061317f81612a39565b809150509250929050565b60008282101561319c5761319c612d6b565b500390565b600082516131b3818460208701612ad0565b919091019291505056fea26469706673582212205ffc55a57971afd6b00d0fc04a0e865297e676731f1349c6a23c22a3b4e11ef064736f6c634300080a0033",
    "linkReferences": {}
  },
  "methodIdentifiers": {
    "_handleRoyaltyEnginePayout(address,uint256,uint256,address)": "9128c22c",
    "auctionForNFT(address,uint256)": "a90832a1",
    "cancelAuction(address,uint256)": "859b97fe",
    "createAuction(address,uint256,uint256,uint256,address,uint256,address)": "0366c34f",
    "createBid(address,uint256,uint256)": "fba133d9",
    "erc20TransferHelper()": "8f9d3251",
    "erc721TransferHelper()": "f7cd1d9b",
    "name()": "06fdde03",
    "registrar()": "2b20e397",
    "setAuctionReservePrice(address,uint256,uint256)": "cbe98dba",
    "setRoyaltyEngineAddress(address)": "b249bb30",
    "settleAuction(address,uint256)": "5138b08c",
    "supportsInterface(bytes4)": "01ffc9a7"
  },
  "id": 41
}