{
  "abi": [
    {
      "inputs": [
        {
          "internalType": "address",
          "name": "_erc20TransferHelper",
          "type": "address"
        },
        {
          "internalType": "address",
          "name": "_erc721TransferHelper",
          "type": "address"
        },
        {
          "internalType": "address",
          "name": "_royaltyEngine",
          "type": "address"
        },
        {
          "internalType": "address",
          "name": "_protocolFeeSettings",
          "type": "address"
        },
        {
          "internalType": "address",
          "name": "_weth",
          "type": "address"
        }
      ],
      "stateMutability": "nonpayable",
      "type": "constructor"
    },
    {
      "anonymous": false,
      "inputs": [
        {
          "indexed": true,
          "internalType": "address",
          "name": "tokenContract",
          "type": "address"
        },
        {
          "indexed": true,
          "internalType": "uint256",
          "name": "tokenId",
          "type": "uint256"
        },
        {
          "indexed": false,
          "internalType": "bool",
          "name": "firstBid",
          "type": "bool"
        },
        {
          "indexed": false,
          "internalType": "bool",
          "name": "extended",
          "type": "bool"
        },
        {
          "components": [
            {
              "internalType": "address",
              "name": "seller",
              "type": "address"
            },
            {
              "internalType": "address",
              "name": "sellerFundsRecipient",
              "type": "address"
            },
            {
              "internalType": "uint256",
              "name": "reservePrice",
              "type": "uint256"
            },
            {
              "internalType": "uint256",
              "name": "highestBid",
              "type": "uint256"
            },
            {
              "internalType": "address",
              "name": "highestBidder",
              "type": "address"
            },
            {
              "internalType": "uint96",
              "name": "startTime",
              "type": "uint96"
            },
            {
              "internalType": "address",
              "name": "currency",
              "type": "address"
            },
            {
              "internalType": "uint96",
              "name": "firstBidTime",
              "type": "uint96"
            },
            {
              "internalType": "address",
              "name": "listingFeeRecipient",
              "type": "address"
            },
            {
              "internalType": "uint80",
              "name": "duration",
              "type": "uint80"
            },
            {
              "internalType": "uint16",
              "name": "listingFeeBps",
              "type": "uint16"
            }
          ],
          "indexed": false,
          "internalType": "struct ReserveAuctionListingErc20.Auction",
          "name": "auction",
          "type": "tuple"
        }
      ],
      "name": "AuctionBid",
      "type": "event"
    },
    {
      "anonymous": false,
      "inputs": [
        {
          "indexed": true,
          "internalType": "address",
          "name": "tokenContract",
          "type": "address"
        },
        {
          "indexed": true,
          "internalType": "uint256",
          "name": "tokenId",
          "type": "uint256"
        },
        {
          "components": [
            {
              "internalType": "address",
              "name": "seller",
              "type": "address"
            },
            {
              "internalType": "address",
              "name": "sellerFundsRecipient",
              "type": "address"
            },
            {
              "internalType": "uint256",
              "name": "reservePrice",
              "type": "uint256"
            },
            {
              "internalType": "uint256",
              "name": "highestBid",
              "type": "uint256"
            },
            {
              "internalType": "address",
              "name": "highestBidder",
              "type": "address"
            },
            {
              "internalType": "uint96",
              "name": "startTime",
              "type": "uint96"
            },
            {
              "internalType": "address",
              "name": "currency",
              "type": "address"
            },
            {
              "internalType": "uint96",
              "name": "firstBidTime",
              "type": "uint96"
            },
            {
              "internalType": "address",
              "name": "listingFeeRecipient",
              "type": "address"
            },
            {
              "internalType": "uint80",
              "name": "duration",
              "type": "uint80"
            },
            {
              "internalType": "uint16",
              "name": "listingFeeBps",
              "type": "uint16"
            }
          ],
          "indexed": false,
          "internalType": "struct ReserveAuctionListingErc20.Auction",
          "name": "auction",
          "type": "tuple"
        }
      ],
      "name": "AuctionCanceled",
      "type": "event"
    },
    {
      "anonymous": false,
      "inputs": [
        {
          "indexed": true,
          "internalType": "address",
          "name": "tokenContract",
          "type": "address"
        },
        {
          "indexed": true,
          "internalType": "uint256",
          "name": "tokenId",
          "type": "uint256"
        },
        {
          "components": [
            {
              "internalType": "address",
              "name": "seller",
              "type": "address"
            },
            {
              "internalType": "address",
              "name": "sellerFundsRecipient",
              "type": "address"
            },
            {
              "internalType": "uint256",
              "name": "reservePrice",
              "type": "uint256"
            },
            {
              "internalType": "uint256",
              "name": "highestBid",
              "type": "uint256"
            },
            {
              "internalType": "address",
              "name": "highestBidder",
              "type": "address"
            },
            {
              "internalType": "uint96",
              "name": "startTime",
              "type": "uint96"
            },
            {
              "internalType": "address",
              "name": "currency",
              "type": "address"
            },
            {
              "internalType": "uint96",
              "name": "firstBidTime",
              "type": "uint96"
            },
            {
              "internalType": "address",
              "name": "listingFeeRecipient",
              "type": "address"
            },
            {
              "internalType": "uint80",
              "name": "duration",
              "type": "uint80"
            },
            {
              "internalType": "uint16",
              "name": "listingFeeBps",
              "type": "uint16"
            }
          ],
          "indexed": false,
          "internalType": "struct ReserveAuctionListingErc20.Auction",
          "name": "auction",
          "type": "tuple"
        }
      ],
      "name": "AuctionCreated",
      "type": "event"
    },
    {
      "anonymous": false,
      "inputs": [
        {
          "indexed": true,
          "internalType": "address",
          "name": "tokenContract",
          "type": "address"
        },
        {
          "indexed": true,
          "internalType": "uint256",
          "name": "tokenId",
          "type": "uint256"
        },
        {
          "components": [
            {
              "internalType": "address",
              "name": "seller",
              "type": "address"
            },
            {
              "internalType": "address",
              "name": "sellerFundsRecipient",
              "type": "address"
            },
            {
              "internalType": "uint256",
              "name": "reservePrice",
              "type": "uint256"
            },
            {
              "internalType": "uint256",
              "name": "highestBid",
              "type": "uint256"
            },
            {
              "internalType": "address",
              "name": "highestBidder",
              "type": "address"
            },
            {
              "internalType": "uint96",
              "name": "startTime",
              "type": "uint96"
            },
            {
              "internalType": "address",
              "name": "currency",
              "type": "address"
            },
            {
              "internalType": "uint96",
              "name": "firstBidTime",
              "type": "uint96"
            },
            {
              "internalType": "address",
              "name": "listingFeeRecipient",
              "type": "address"
            },
            {
              "internalType": "uint80",
              "name": "duration",
              "type": "uint80"
            },
            {
              "internalType": "uint16",
              "name": "listingFeeBps",
              "type": "uint16"
            }
          ],
          "indexed": false,
          "internalType": "struct ReserveAuctionListingErc20.Auction",
          "name": "auction",
          "type": "tuple"
        }
      ],
      "name": "AuctionEnded",
      "type": "event"
    },
    {
      "anonymous": false,
      "inputs": [
        {
          "indexed": true,
          "internalType": "address",
          "name": "tokenContract",
          "type": "address"
        },
        {
          "indexed": true,
          "internalType": "uint256",
          "name": "tokenId",
          "type": "uint256"
        },
        {
          "components": [
            {
              "internalType": "address",
              "name": "seller",
              "type": "address"
            },
            {
              "internalType": "address",
              "name": "sellerFundsRecipient",
              "type": "address"
            },
            {
              "internalType": "uint256",
              "name": "reservePrice",
              "type": "uint256"
            },
            {
              "internalType": "uint256",
              "name": "highestBid",
              "type": "uint256"
            },
            {
              "internalType": "address",
              "name": "highestBidder",
              "type": "address"
            },
            {
              "internalType": "uint96",
              "name": "startTime",
              "type": "uint96"
            },
            {
              "internalType": "address",
              "name": "currency",
              "type": "address"
            },
            {
              "internalType": "uint96",
              "name": "firstBidTime",
              "type": "uint96"
            },
            {
              "internalType": "address",
              "name": "listingFeeRecipient",
              "type": "address"
            },
            {
              "internalType": "uint80",
              "name": "duration",
              "type": "uint80"
            },
            {
              "internalType": "uint16",
              "name": "listingFeeBps",
              "type": "uint16"
            }
          ],
          "indexed": false,
          "internalType": "struct ReserveAuctionListingErc20.Auction",
          "name": "auction",
          "type": "tuple"
        }
      ],
      "name": "AuctionReservePriceUpdated",
      "type": "event"
    },
    {
      "anonymous": false,
      "inputs": [
        {
          "indexed": true,
          "internalType": "address",
          "name": "tokenContract",
          "type": "address"
        },
        {
          "indexed": true,
          "internalType": "uint256",
          "name": "tokenId",
          "type": "uint256"
        },
        {
          "indexed": false,
          "internalType": "address",
          "name": "recipient",
          "type": "address"
        },
        {
          "indexed": false,
          "internalType": "uint256",
          "name": "amount",
          "type": "uint256"
        }
      ],
      "name": "RoyaltyPayout",
      "type": "event"
    },
    {
      "inputs": [
        {
          "internalType": "address",
          "name": "_tokenContract",
          "type": "address"
        },
        {
          "internalType": "uint256",
          "name": "_tokenId",
          "type": "uint256"
        },
        {
          "internalType": "uint256",
          "name": "_amount",
          "type": "uint256"
        },
        {
          "internalType": "address",
          "name": "_payoutCurrency",
          "type": "address"
        }
      ],
      "name": "_handleRoyaltyEnginePayout",
      "outputs": [
        {
          "internalType": "uint256",
          "name": "",
          "type": "uint256"
        }
      ],
      "stateMutability": "payable",
      "type": "function"
    },
    {
      "inputs": [
        {
          "internalType": "address",
          "name": "",
          "type": "address"
        },
        {
          "internalType": "uint256",
          "name": "",
          "type": "uint256"
        }
      ],
      "name": "auctionForNFT",
      "outputs": [
        {
          "internalType": "address",
          "name": "seller",
          "type": "address"
        },
        {
          "internalType": "address",
          "name": "sellerFundsRecipient",
          "type": "address"
        },
        {
          "internalType": "uint256",
          "name": "reservePrice",
          "type": "uint256"
        },
        {
          "internalType": "uint256",
          "name": "highestBid",
          "type": "uint256"
        },
        {
          "internalType": "address",
          "name": "highestBidder",
          "type": "address"
        },
        {
          "internalType": "uint96",
          "name": "startTime",
          "type": "uint96"
        },
        {
          "internalType": "address",
          "name": "currency",
          "type": "address"
        },
        {
          "internalType": "uint96",
          "name": "firstBidTime",
          "type": "uint96"
        },
        {
          "internalType": "address",
          "name": "listingFeeRecipient",
          "type": "address"
        },
        {
          "internalType": "uint80",
          "name": "duration",
          "type": "uint80"
        },
        {
          "internalType": "uint16",
          "name": "listingFeeBps",
          "type": "uint16"
        }
      ],
      "stateMutability": "view",
      "type": "function"
    },
    {
      "inputs": [
        {
          "internalType": "address",
          "name": "_tokenContract",
          "type": "address"
        },
        {
          "internalType": "uint256",
          "name": "_tokenId",
          "type": "uint256"
        }
      ],
      "name": "cancelAuction",
      "outputs": [],
      "stateMutability": "nonpayable",
      "type": "function"
    },
    {
      "inputs": [
        {
          "internalType": "address",
          "name": "_tokenContract",
          "type": "address"
        },
        {
          "internalType": "uint256",
          "name": "_tokenId",
          "type": "uint256"
        },
        {
          "internalType": "uint256",
          "name": "_duration",
          "type": "uint256"
        },
        {
          "internalType": "uint256",
          "name": "_reservePrice",
          "type": "uint256"
        },
        {
          "internalType": "address",
          "name": "_sellerFundsRecipient",
          "type": "address"
        },
        {
          "internalType": "uint256",
          "name": "_startTime",
          "type": "uint256"
        },
        {
          "internalType": "address",
          "name": "_bidCurrency",
          "type": "address"
        },
        {
          "internalType": "uint256",
          "name": "_listingFeeBps",
          "type": "uint256"
        },
        {
          "internalType": "address",
          "name": "_listingFeeRecipient",
          "type": "address"
        }
      ],
      "name": "createAuction",
      "outputs": [],
      "stateMutability": "nonpayable",
      "type": "function"
    },
    {
      "inputs": [
        {
          "internalType": "address",
          "name": "_tokenContract",
          "type": "address"
        },
        {
          "internalType": "uint256",
          "name": "_tokenId",
          "type": "uint256"
        },
        {
          "internalType": "uint256",
          "name": "_amount",
          "type": "uint256"
        }
      ],
      "name": "createBid",
      "outputs": [],
      "stateMutability": "payable",
      "type": "function"
    },
    {
      "inputs": [],
      "name": "erc20TransferHelper",
      "outputs": [
        {
          "internalType": "contract ERC20TransferHelper",
          "name": "",
          "type": "address"
        }
      ],
      "stateMutability": "view",
      "type": "function"
    },
    {
      "inputs": [],
      "name": "erc721TransferHelper",
      "outputs": [
        {
          "internalType": "contract ERC721TransferHelper",
          "name": "",
          "type": "address"
        }
      ],
      "stateMutability": "view",
      "type": "function"
    },
    {
      "inputs": [],
      "name": "name",
      "outputs": [
        {
          "internalType": "string",
          "name": "",
          "type": "string"
        }
      ],
      "stateMutability": "view",
      "type": "function"
    },
    {
      "inputs": [],
      "name": "registrar",
      "outputs": [
        {
          "internalType": "address",
          "name": "",
          "type": "address"
        }
      ],
      "stateMutability": "view",
      "type": "function"
    },
    {
      "inputs": [
        {
          "internalType": "address",
          "name": "_tokenContract",
          "type": "address"
        },
        {
          "internalType": "uint256",
          "name": "_tokenId",
          "type": "uint256"
        },
        {
          "internalType": "uint256",
          "name": "_reservePrice",
          "type": "uint256"
        }
      ],
      "name": "setAuctionReservePrice",
      "outputs": [],
      "stateMutability": "nonpayable",
      "type": "function"
    },
    {
      "inputs": [
        {
          "internalType": "address",
          "name": "_royaltyEngine",
          "type": "address"
        }
      ],
      "name": "setRoyaltyEngineAddress",
      "outputs": [],
      "stateMutability": "nonpayable",
      "type": "function"
    },
    {
      "inputs": [
        {
          "internalType": "address",
          "name": "_tokenContract",
          "type": "address"
        },
        {
          "internalType": "uint256",
          "name": "_tokenId",
          "type": "uint256"
        }
      ],
      "name": "settleAuction",
      "outputs": [],
      "stateMutability": "nonpayable",
      "type": "function"
    },
    {
      "inputs": [
        {
          "internalType": "bytes4",
          "name": "_interfaceId",
          "type": "bytes4"
        }
      ],
      "name": "supportsInterface",
      "outputs": [
        {
          "internalType": "bool",
          "name": "",
          "type": "bool"
        }
      ],
      "stateMutability": "pure",
      "type": "function"
    }
  ],
  "bytecode": {
    "object": "0x61012060405260016000553480156200001757600080fd5b5060405162003880380380620038808339810160408190526200003a9162000262565b6040518060400160405280601e81526020017f526573657276652041756374696f6e204c697374696e67204552432d32300000815250838383876001600160a01b031663e3e606f06040518163ffffffff1660e01b8152600401602060405180830381865afa158015620000b2573d6000803e3d6000fd5b505050506040513d601f19601f82011682018060405250810190620000d89190620002e2565b6001600160a01b0316632b20e3976040518163ffffffff1660e01b8152600401602060405180830381865afa15801562000116573d6000803e3d6000fd5b505050506040513d601f19601f820116820180604052508101906200013c9190620002e2565b6001600160a01b038a811660805291821660a052600180546001600160a01b0319169483169490941790935590811660e0521660c052805162000187906002906020840190620001a3565b5050506001600160a01b03909216610100525062000346915050565b828054620001b19062000309565b90600052602060002090601f016020900481019282620001d5576000855562000220565b82601f10620001f057805160ff191683800117855562000220565b8280016001018555821562000220579182015b828111156200022057825182559160200191906001019062000203565b506200022e92915062000232565b5090565b5b808211156200022e576000815560010162000233565b6001600160a01b03811681146200025f57600080fd5b50565b600080600080600060a086880312156200027b57600080fd5b8551620002888162000249565b60208701519095506200029b8162000249565b6040870151909450620002ae8162000249565b6060870151909350620002c18162000249565b6080870151909250620002d48162000249565b809150509295509295909350565b600060208284031215620002f557600080fd5b8151620003028162000249565b9392505050565b600181811c908216806200031e57607f821691505b602082108114156200034057634e487b7160e01b600052602260045260246000fd5b50919050565b60805160a05160c05160e051610100516134d2620003ae6000396000818161040e0152611cb4015260008181612098015261214401526000818161016201526115f601526000818161234601526123de0152600081816101fb01526125f701526134d26000f3fe6080604052600436106100d25760003560e01c80638f9d32511161007f578063b249bb3011610059578063b249bb30146103bc578063cbe98dba146103dc578063f7cd1d9b146103fc578063fba133d91461043057600080fd5b80638f9d3251146101e95780639128c22c1461021d578063a90832a11461023e57600080fd5b80632b20e397116100b05780632b20e397146101505780635138b08c146101a9578063859b97fe146101c957600080fd5b806301ffc9a7146100d757806306fdde031461010c578063295086161461012e575b600080fd5b3480156100e357600080fd5b506100f76100f2366004612c4d565b610443565b60405190151581526020015b60405180910390f35b34801561011857600080fd5b506101216104dc565b6040516101039190612cbb565b34801561013a57600080fd5b5061014e610149366004612d31565b61056a565b005b34801561015c57600080fd5b506101847f000000000000000000000000000000000000000000000000000000000000000081565b60405173ffffffffffffffffffffffffffffffffffffffff9091168152602001610103565b3480156101b557600080fd5b5061014e6101c4366004612dc0565b610ac2565b3480156101d557600080fd5b5061014e6101e4366004612dc0565b610f3d565b3480156101f557600080fd5b506101847f000000000000000000000000000000000000000000000000000000000000000081565b61023061022b366004612dec565b611339565b604051908152602001610103565b34801561024a57600080fd5b5061032b610259366004612dc0565b60036020818152600093845260408085209091529183529120805460018201546002830154938301546004840154600585015460069095015473ffffffffffffffffffffffffffffffffffffffff9485169693851695939492938383169374010000000000000000000000000000000000000000938490046bffffffffffffffffffffffff908116948284169493819004909116929182169190810469ffffffffffffffffffff16907e01000000000000000000000000000000000000000000000000000000000000900461ffff168b565b6040805173ffffffffffffffffffffffffffffffffffffffff9c8d1681529a8c1660208c01528a0198909852606089019690965293881660808801526bffffffffffffffffffffffff92831660a088015290871660c08701521660e085015290931661010083015269ffffffffffffffffffff90921661012082015261ffff90911661014082015261016001610103565b3480156103c857600080fd5b5061014e6103d7366004612e36565b6115de565b3480156103e857600080fd5b5061014e6103f7366004612e53565b6117a0565b34801561040857600080fd5b506101847f000000000000000000000000000000000000000000000000000000000000000081565b61014e61043e366004612e53565b6119b5565b60007fffffffff0000000000000000000000000000000000000000000000000000000082167fcdbb1f070000000000000000000000000000000000000000000000000000000014806104d657507f01ffc9a7000000000000000000000000000000000000000000000000000000007fffffffff000000000000000000000000000000000000000000000000000000008316145b92915050565b600280546104e990612e88565b80601f016020809104026020016040519081016040528092919081815260200182805461051590612e88565b80156105625780601f1061053757610100808354040283529160200191610562565b820191906000526020600020905b81548152906001019060200180831161054557829003601f168201915b505050505081565b6000546001146105db576040517f08c379a000000000000000000000000000000000000000000000000000000000815260206004820152600a60248201527f5245454e5452414e43590000000000000000000000000000000000000000000060448201526064015b60405180910390fd5b600260009081556040517f6352211e000000000000000000000000000000000000000000000000000000008152600481018a905273ffffffffffffffffffffffffffffffffffffffff8b1690636352211e90602401602060405180830381865afa15801561064d573d6000803e3d6000fd5b505050506040513d601f19601f820116820180604052508101906106719190612edc565b90503373ffffffffffffffffffffffffffffffffffffffff8216148061072857506040517fe985e9c500000000000000000000000000000000000000000000000000000000815273ffffffffffffffffffffffffffffffffffffffff82811660048301523360248301528b169063e985e9c590604401602060405180830381865afa158015610704573d6000803e3d6000fd5b505050506040513d601f19601f820116820180604052508101906107289190612ef9565b61078e576040517f08c379a000000000000000000000000000000000000000000000000000000000815260206004820152601c60248201527f4f4e4c595f544f4b454e5f4f574e45525f4f525f4f50455241544f520000000060448201526064016105d2565b73ffffffffffffffffffffffffffffffffffffffff861661080b576040517f08c379a000000000000000000000000000000000000000000000000000000000815260206004820152601760248201527f494e56414c49445f46554e44535f524543495049454e5400000000000000000060448201526064016105d2565b612710831115610877576040517f08c379a000000000000000000000000000000000000000000000000000000000815260206004820152601360248201527f494e56414c49445f4c495354494e475f4645450000000000000000000000000060448201526064016105d2565b6000600360008c73ffffffffffffffffffffffffffffffffffffffff1673ffffffffffffffffffffffffffffffffffffffff16815260200190815260200160002060008b81526020019081526020016000209050818160000160006101000a81548173ffffffffffffffffffffffffffffffffffffffff021916908373ffffffffffffffffffffffffffffffffffffffff160217905550868160010160006101000a81548173ffffffffffffffffffffffffffffffffffffffff021916908373ffffffffffffffffffffffffffffffffffffffff160217905550878160020181905550858160040160146101000a8154816bffffffffffffffffffffffff02191690836bffffffffffffffffffffffff160217905550848160050160006101000a81548173ffffffffffffffffffffffffffffffffffffffff021916908373ffffffffffffffffffffffffffffffffffffffff160217905550828160060160006101000a81548173ffffffffffffffffffffffffffffffffffffffff021916908373ffffffffffffffffffffffffffffffffffffffff160217905550888160060160146101000a81548169ffffffffffffffffffff021916908369ffffffffffffffffffff1602179055508381600601601e6101000a81548161ffff021916908361ffff160217905550898b73ffffffffffffffffffffffffffffffffffffffff167fddc2e8d99d5afa69ded5fe81d476ad63c68e441e5cf3a0b91b37732e64dca06e83604051610aa89190612fe8565b60405180910390a350506001600055505050505050505050565b600054600114610b2e576040517f08c379a000000000000000000000000000000000000000000000000000000000815260206004820152600a60248201527f5245454e5452414e43590000000000000000000000000000000000000000000060448201526064016105d2565b6002600081815573ffffffffffffffffffffffffffffffffffffffff84811682526003602081815260408085208786528252938490208451610160810186528154851681526001820154851692810192909252948501549381019390935283015460608301526004830154808216608084015274010000000000000000000000000000000000000000908190046bffffffffffffffffffffffff90811660a0850152600585015480841660c08601528290041660e08401819052600690940154918216610100840152810469ffffffffffffffffffff166101208301527e01000000000000000000000000000000000000000000000000000000000000900461ffff166101408201529080610c9f576040517f08c379a000000000000000000000000000000000000000000000000000000000815260206004820152601360248201527f41554354494f4e5f4e4f545f535441525445440000000000000000000000000060448201526064016105d2565b610120820151610cbb9069ffffffffffffffffffff1682613026565b421015610d24576040517f08c379a000000000000000000000000000000000000000000000000000000000815260206004820152601060248201527f41554354494f4e5f4e4f545f4f5645520000000000000000000000000000000060448201526064016105d2565b60008260c0015190506000610d438686866060015185620493e0611f43565b509050610d508183612049565b61010085015190915073ffffffffffffffffffffffffffffffffffffffff811615610db757600061271086610140015161ffff1684610d8f919061303e565b610d99919061307b565b9050610da982828661c3506121e7565b610db381846130b6565b9250505b610dc98560200151838561c3506121e7565b60808501516040517f23b872dd00000000000000000000000000000000000000000000000000000000815230600482015273ffffffffffffffffffffffffffffffffffffffff918216602482015260448101889052908816906323b872dd90606401600060405180830381600087803b158015610e4557600080fd5b505af1158015610e59573d6000803e3d6000fd5b50505050858773ffffffffffffffffffffffffffffffffffffffff167f6678c042a87d78d5f87050aff639300a065c82b4adc3728193105a1763700ea687604051610ea491906130cd565b60405180910390a35050505073ffffffffffffffffffffffffffffffffffffffff92909216600090815260036020818152604080842094845293905291812080547fffffffffffffffffffffffff00000000000000000000000000000000000000009081168255600180830180549092169091556002820183905592810182905560048101829055600581018290556006018190555550565b600054600114610fa9576040517f08c379a000000000000000000000000000000000000000000000000000000000815260206004820152600a60248201527f5245454e5452414e43590000000000000000000000000000000000000000000060448201526064016105d2565b6002600081815573ffffffffffffffffffffffffffffffffffffffff84811682526003602081815260408085208786528252938490208451610160810186528154851681526001820154851692810192909252948501549381019390935283015460608301526004830154808216608084015274010000000000000000000000000000000000000000908190046bffffffffffffffffffffffff90811660a0850152600585015480841660c08601528290041660e08401819052600690940154918216610100840152810469ffffffffffffffffffff166101208301527e01000000000000000000000000000000000000000000000000000000000000900461ffff16610140820152901561111a576040517f08c379a000000000000000000000000000000000000000000000000000000000815260206004820152600f60248201527f41554354494f4e5f53544152544544000000000000000000000000000000000060448201526064016105d2565b805173ffffffffffffffffffffffffffffffffffffffff163314806111f857506040517f6352211e0000000000000000000000000000000000000000000000000000000081526004810183905273ffffffffffffffffffffffffffffffffffffffff841690636352211e90602401602060405180830381865afa1580156111a5573d6000803e3d6000fd5b505050506040513d601f19601f820116820180604052508101906111c99190612edc565b73ffffffffffffffffffffffffffffffffffffffff163373ffffffffffffffffffffffffffffffffffffffff16145b61125e576040517f08c379a000000000000000000000000000000000000000000000000000000000815260206004820152601a60248201527f4f4e4c595f53454c4c45525f4f525f544f4b454e5f4f574e455200000000000060448201526064016105d2565b818373ffffffffffffffffffffffffffffffffffffffff167f62a26755ca3400c96f42279d1cd1bb9e18daf15150fdea7eddbddf6a7d45d843836040516112a591906130cd565b60405180910390a35073ffffffffffffffffffffffffffffffffffffffff909116600090815260036020818152604080842094845293905291812080547fffffffffffffffffffffffff000000000000000000000000000000000000000090811682556001808301805490921690915560028201839055928101829055600481018290556005810182905560060181905555565b60003330146113ca576040517f08c379a000000000000000000000000000000000000000000000000000000000815260206004820152602d60248201527f5f68616e646c65526f79616c7479456e67696e655061796f7574206f6e6c792060448201527f73656c662063616c6c61626c650000000000000000000000000000000000000060648201526084016105d2565b6001546040517ff533b80200000000000000000000000000000000000000000000000000000000815273ffffffffffffffffffffffffffffffffffffffff87811660048301526024820187905260448201869052600092839291169063f533b802906064016000604051808303816000875af115801561144e573d6000803e3d6000fd5b505050506040513d6000823e601f3d9081017fffffffffffffffffffffffffffffffffffffffffffffffffffffffffffffffe01682016040526114949190810190613313565b81519193509150806114ab578593505050506115d6565b85600080805b848110156115cc578681815181106114cb576114cb6133d8565b602002602001015192508581815181106114e7576114e76133d8565b602002602001015191508184101561155b576040517f08c379a000000000000000000000000000000000000000000000000000000000815260206004820152600960248201527f696e736f6c76656e74000000000000000000000000000000000000000000000060448201526064016105d2565b61156983838b61c3506121e7565b6040805173ffffffffffffffffffffffffffffffffffffffff8581168252602082018590528d92908f16917f866e6ef8682ddf5f1025e64dfdb45527077f7be70fa9ef680b7ffd8cf4ab9c50910160405180910390a392819003926001016114b1565b5091955050505050505b949350505050565b3373ffffffffffffffffffffffffffffffffffffffff7f000000000000000000000000000000000000000000000000000000000000000016146116a3576040517f08c379a000000000000000000000000000000000000000000000000000000000815260206004820152602660248201527f736574526f79616c7479456e67696e6541646472657373206f6e6c792072656760448201527f697374726172000000000000000000000000000000000000000000000000000060648201526084016105d2565b6116cd817fcb23f81600000000000000000000000000000000000000000000000000000000612437565b611759576040517f08c379a000000000000000000000000000000000000000000000000000000000815260206004820152603d60248201527f736574526f79616c7479456e67696e6541646472657373206d757374206d617460448201527f63682049526f79616c7479456e67696e65563120696e7465726661636500000060648201526084016105d2565b600180547fffffffffffffffffffffffff00000000000000000000000000000000000000001673ffffffffffffffffffffffffffffffffffffffff92909216919091179055565b60005460011461180c576040517f08c379a000000000000000000000000000000000000000000000000000000000815260206004820152600a60248201527f5245454e5452414e43590000000000000000000000000000000000000000000060448201526064016105d2565b6002600090815573ffffffffffffffffffffffffffffffffffffffff84168152600360209081526040808320858452909152902060058101547401000000000000000000000000000000000000000090046bffffffffffffffffffffffff16156118d2576040517f08c379a000000000000000000000000000000000000000000000000000000000815260206004820152600f60248201527f41554354494f4e5f53544152544544000000000000000000000000000000000060448201526064016105d2565b805473ffffffffffffffffffffffffffffffffffffffff163314611952576040517f08c379a000000000000000000000000000000000000000000000000000000000815260206004820152600b60248201527f4f4e4c595f53454c4c455200000000000000000000000000000000000000000060448201526064016105d2565b818160020181905550828473ffffffffffffffffffffffffffffffffffffffff167fc45874575c45b438268fedd87e33124382b96226767ce1e5ea8e4d9c4e309f52836040516119a29190612fe8565b60405180910390a3505060016000555050565b600054600114611a21576040517f08c379a000000000000000000000000000000000000000000000000000000000815260206004820152600a60248201527f5245454e5452414e43590000000000000000000000000000000000000000000060448201526064016105d2565b6002600090815573ffffffffffffffffffffffffffffffffffffffff8085168252600360209081526040808420868552909152909120805490911680611ac3576040517f08c379a000000000000000000000000000000000000000000000000000000000815260206004820152601660248201527f41554354494f4e5f444f45535f4e4f545f45584953540000000000000000000060448201526064016105d2565b60048201547401000000000000000000000000000000000000000090046bffffffffffffffffffffffff16421015611b57576040517f08c379a000000000000000000000000000000000000000000000000000000000815260206004820152601360248201527f41554354494f4e5f4e4f545f535441525445440000000000000000000000000060448201526064016105d2565b60058201546006830154740100000000000000000000000000000000000000008083046bffffffffffffffffffffffff1692910469ffffffffffffffffffff169073ffffffffffffffffffffffffffffffffffffffff16600083611d15578560020154871015611c23576040517f08c379a000000000000000000000000000000000000000000000000000000000815260206004820152601560248201527f524553455256455f50524943455f4e4f545f4d4554000000000000000000000060448201526064016105d2565b5060058501805473ffffffffffffffffffffffffffffffffffffffff90811674010000000000000000000000000000000000000000426bffffffffffffffffffffffff1602179091556040517f15dacbea00000000000000000000000000000000000000000000000000000000815289821660048201528582166024820152306044820152606481018990526001917f000000000000000000000000000000000000000000000000000000000000000016906315dacbea90608401600060405180830381600087803b158015611cf857600080fd5b505af1158015611d0c573d6000803e3d6000fd5b50505050611e47565b611d1f8385613026565b4210611d87576040517f08c379a000000000000000000000000000000000000000000000000000000000815260206004820152600c60248201527f41554354494f4e5f4f564552000000000000000000000000000000000000000060448201526064016105d2565b600386015460006064611d9b600a8461303e565b611da5919061307b565b611daf9083613026565b905080891015611e1b576040517f08c379a000000000000000000000000000000000000000000000000000000000815260206004820152601360248201527f4d494e494d554d5f4249445f4e4f545f4d45540000000000000000000000000060448201526064016105d2565b6004880154611e449073ffffffffffffffffffffffffffffffffffffffff16838661c3506121e7565b50505b611e51878361245a565b600386018790556004860180547fffffffffffffffffffffffff0000000000000000000000000000000000000000163317905560004285850103610384811015611ef85760068801805469ffffffffffffffffffff74010000000000000000000000000000000000000000808304821661038486900301909116027fffff00000000000000000000ffffffffffffffffffffffffffffffffffffffff909116179055600191505b898b73ffffffffffffffffffffffffffffffffffffffff167f5d55f941d541a459d0e7d0b2d6c9ae7ea1e1d3484c2b22b45c97d2a9446a2b9585858c604051610aa893929190613407565b60008080831580611f5357505a84115b611f5d5783611f5f565b5a5b6040517f9128c22c00000000000000000000000000000000000000000000000000000000815273ffffffffffffffffffffffffffffffffffffffff808b166004830152602482018a905260448201899052871660648201529091503090639128c22c90839060840160206040518083038160008887f193505050508015612021575060408051601f3d9081017fffffffffffffffffffffffffffffffffffffffffffffffffffffffffffffffe016820190925261201e91810190613426565b60015b61203257856000925092505061203f565b92506001915061203f9050565b9550959350505050565b6040517f61b485f600000000000000000000000000000000000000000000000000000000815230600482015260248101839052600090819073ffffffffffffffffffffffffffffffffffffffff7f000000000000000000000000000000000000000000000000000000000000000016906361b485f690604401602060405180830381865afa1580156120df573d6000803e3d6000fd5b505050506040513d601f19601f820116820180604052508101906121039190613426565b90508061211357839150506104d6565b6040517f86ab6fb90000000000000000000000000000000000000000000000000000000081523060048201526000907f000000000000000000000000000000000000000000000000000000000000000073ffffffffffffffffffffffffffffffffffffffff16906386ab6fb9906024016040805180830381865afa15801561219f573d6000803e3d6000fd5b505050506040513d601f19601f820116820180604052508101906121c3919061343f565b9150506121d481838661c3506121e7565b6121de82866130b6565b95945050505050565b821580612208575073ffffffffffffffffffffffffffffffffffffffff8416155b1561221257612431565b73ffffffffffffffffffffffffffffffffffffffff821661241057824710156122bd576040517f08c379a000000000000000000000000000000000000000000000000000000000815260206004820152602160248201527f5f68616e646c654f7574676f696e675472616e7366657220696e736f6c76656e60448201527f740000000000000000000000000000000000000000000000000000000000000060648201526084016105d2565b60008115806122cb57505a82115b6122d557816122d7565b5a5b905060008573ffffffffffffffffffffffffffffffffffffffff16858390604051600060405180830381858888f193505050503d8060008114612336576040519150601f19603f3d011682016040523d82523d6000602084013e61233b565b606091505b5050905080612409577f000000000000000000000000000000000000000000000000000000000000000073ffffffffffffffffffffffffffffffffffffffff1663d0e30db0866040518263ffffffff1660e01b81526004016000604051808303818588803b1580156123ac57600080fd5b505af11580156123c0573d6000803e3d6000fd5b5061240993505073ffffffffffffffffffffffffffffffffffffffff7f0000000000000000000000000000000000000000000000000000000000000000169150889050876127ad565b5050612431565b61243173ffffffffffffffffffffffffffffffffffffffff831685856127ad565b50505050565b60006124428361283f565b8015612453575061245383836128a3565b9392505050565b73ffffffffffffffffffffffffffffffffffffffff81166125095781341015612505576040517f08c379a000000000000000000000000000000000000000000000000000000000815260206004820152603b60248201527f5f68616e646c65496e636f6d696e675472616e73666572206d73672076616c7560448201527f65206c657373207468616e20657870656374656420616d6f756e74000000000060648201526084016105d2565b5050565b6040517f70a08231000000000000000000000000000000000000000000000000000000008152306004820152819060009073ffffffffffffffffffffffffffffffffffffffff8316906370a0823190602401602060405180830381865afa158015612578573d6000803e3d6000fd5b505050506040513d601f19601f8201168201806040525081019061259c9190613426565b6040517fd9fc4b6100000000000000000000000000000000000000000000000000000000815273ffffffffffffffffffffffffffffffffffffffff8581166004830152336024830152306044830152606482018790529192507f00000000000000000000000000000000000000000000000000000000000000009091169063d9fc4b6190608401600060405180830381600087803b15801561263d57600080fd5b505af1158015612651573d6000803e3d6000fd5b50506040517f70a082310000000000000000000000000000000000000000000000000000000081523060048201526000925073ffffffffffffffffffffffffffffffffffffffff851691506370a0823190602401602060405180830381865afa1580156126c2573d6000803e3d6000fd5b505050506040513d601f19601f820116820180604052508101906126e69190613426565b9050806126f38684613026565b146127a6576040517f08c379a000000000000000000000000000000000000000000000000000000000815260206004820152604c60248201527f5f68616e646c65496e636f6d696e675472616e7366657220746f6b656e20747260448201527f616e736665722063616c6c20646964206e6f74207472616e736665722065787060648201527f656374656420616d6f756e740000000000000000000000000000000000000000608482015260a4016105d2565b5050505050565b6040805173ffffffffffffffffffffffffffffffffffffffff8416602482015260448082018490528251808303909101815260649091019091526020810180517bffffffffffffffffffffffffffffffffffffffffffffffffffffffff167fa9059cbb0000000000000000000000000000000000000000000000000000000017905261283a9084906129df565b505050565b600061286b827f01ffc9a7000000000000000000000000000000000000000000000000000000006128a3565b80156104d6575061289c827fffffffff000000000000000000000000000000000000000000000000000000006128a3565b1592915050565b604080517fffffffff00000000000000000000000000000000000000000000000000000000831660248083019190915282518083039091018152604490910182526020810180517bffffffffffffffffffffffffffffffffffffffffffffffffffffffff167f01ffc9a7000000000000000000000000000000000000000000000000000000001790529051600091908290819073ffffffffffffffffffffffffffffffffffffffff8716906175309061295d908690613480565b6000604051808303818686fa925050503d8060008114612999576040519150601f19603f3d011682016040523d82523d6000602084013e61299e565b606091505b50915091506020815110156129b957600093505050506104d6565b8180156129d55750808060200190518101906129d59190612ef9565b9695505050505050565b6000612a41826040518060400160405280602081526020017f5361666545524332303a206c6f772d6c6576656c2063616c6c206661696c65648152508573ffffffffffffffffffffffffffffffffffffffff16612aeb9092919063ffffffff16565b80519091501561283a5780806020019051810190612a5f9190612ef9565b61283a576040517f08c379a000000000000000000000000000000000000000000000000000000000815260206004820152602a60248201527f5361666545524332303a204552433230206f7065726174696f6e20646964206e60448201527f6f7420737563636565640000000000000000000000000000000000000000000060648201526084016105d2565b60606115d684846000858573ffffffffffffffffffffffffffffffffffffffff85163b612b74576040517f08c379a000000000000000000000000000000000000000000000000000000000815260206004820152601d60248201527f416464726573733a2063616c6c20746f206e6f6e2d636f6e747261637400000060448201526064016105d2565b6000808673ffffffffffffffffffffffffffffffffffffffff168587604051612b9d9190613480565b60006040518083038185875af1925050503d8060008114612bda576040519150601f19603f3d011682016040523d82523d6000602084013e612bdf565b606091505b5091509150612bef828286612bfa565b979650505050505050565b60608315612c09575081612453565b825115612c195782518084602001fd5b816040517f08c379a00000000000000000000000000000000000000000000000000000000081526004016105d29190612cbb565b600060208284031215612c5f57600080fd5b81357fffffffff000000000000000000000000000000000000000000000000000000008116811461245357600080fd5b60005b83811015612caa578181015183820152602001612c92565b838111156124315750506000910152565b6020815260008251806020840152612cda816040850160208701612c8f565b601f017fffffffffffffffffffffffffffffffffffffffffffffffffffffffffffffffe0169190910160400192915050565b73ffffffffffffffffffffffffffffffffffffffff81168114612d2e57600080fd5b50565b60008060008060008060008060006101208a8c031215612d5057600080fd5b8935612d5b81612d0c565b985060208a0135975060408a0135965060608a0135955060808a0135612d8081612d0c565b945060a08a0135935060c08a0135612d9781612d0c565b925060e08a013591506101008a0135612daf81612d0c565b809150509295985092959850929598565b60008060408385031215612dd357600080fd5b8235612dde81612d0c565b946020939093013593505050565b60008060008060808587031215612e0257600080fd5b8435612e0d81612d0c565b935060208501359250604085013591506060850135612e2b81612d0c565b939692955090935050565b600060208284031215612e4857600080fd5b813561245381612d0c565b600080600060608486031215612e6857600080fd5b8335612e7381612d0c565b95602085013595506040909401359392505050565b600181811c90821680612e9c57607f821691505b60208210811415612ed6577f4e487b7100000000000000000000000000000000000000000000000000000000600052602260045260246000fd5b50919050565b600060208284031215612eee57600080fd5b815161245381612d0c565b600060208284031215612f0b57600080fd5b8151801515811461245357600080fd5b612f5782612f3d835473ffffffffffffffffffffffffffffffffffffffff1690565b73ffffffffffffffffffffffffffffffffffffffff169052565b600181015473ffffffffffffffffffffffffffffffffffffffff908116602084015260028201546040840152600382015460608401526004820154808216608085015260a090811c81850152600583015480831660c0860152811c60e08501526006909201549081166101008401529081901c69ffffffffffffffffffff1661012083015260f01c61014090910152565b61016081016104d68284612f1b565b7f4e487b7100000000000000000000000000000000000000000000000000000000600052601160045260246000fd5b6000821982111561303957613039612ff7565b500190565b6000817fffffffffffffffffffffffffffffffffffffffffffffffffffffffffffffffff048311821515161561307657613076612ff7565b500290565b6000826130b1577f4e487b7100000000000000000000000000000000000000000000000000000000600052601260045260246000fd5b500490565b6000828210156130c8576130c8612ff7565b500390565b815173ffffffffffffffffffffffffffffffffffffffff16815261016081016020830151613113602084018273ffffffffffffffffffffffffffffffffffffffff169052565b506040830151604083015260608301516060830152608083015161314f608084018273ffffffffffffffffffffffffffffffffffffffff169052565b5060a083015161316f60a08401826bffffffffffffffffffffffff169052565b5060c083015161319760c084018273ffffffffffffffffffffffffffffffffffffffff169052565b5060e08301516131b760e08401826bffffffffffffffffffffffff169052565b506101008381015173ffffffffffffffffffffffffffffffffffffffff16908301526101208084015169ffffffffffffffffffff16908301526101409283015161ffff16929091019190915290565b7f4e487b7100000000000000000000000000000000000000000000000000000000600052604160045260246000fd5b604051601f82017fffffffffffffffffffffffffffffffffffffffffffffffffffffffffffffffe016810167ffffffffffffffff8111828210171561327c5761327c613206565b604052919050565b600067ffffffffffffffff82111561329e5761329e613206565b5060051b60200190565b600082601f8301126132b957600080fd5b815160206132ce6132c983613284565b613235565b82815260059290921b840181019181810190868411156132ed57600080fd5b8286015b8481101561330857805183529183019183016132f1565b509695505050505050565b6000806040838503121561332657600080fd5b825167ffffffffffffffff8082111561333e57600080fd5b818501915085601f83011261335257600080fd5b815160206133626132c983613284565b82815260059290921b8401810191818101908984111561338157600080fd5b948201945b838610156133a857855161339981612d0c565b82529482019490820190613386565b918801519196509093505050808211156133c157600080fd5b506133ce858286016132a8565b9150509250929050565b7f4e487b7100000000000000000000000000000000000000000000000000000000600052603260045260246000fd5b831515815282151560208201526101a081016115d66040830184612f1b565b60006020828403121561343857600080fd5b5051919050565b6000806040838503121561345257600080fd5b825161ffff8116811461346457600080fd5b602084015190925061347581612d0c565b809150509250929050565b60008251613492818460208701612c8f565b919091019291505056fea264697066735822122076153616facbf68fa7517757b9fb385da2b59771acd4bd3714616a7e2561461764736f6c634300080a0033",
    "linkReferences": {}
  },
  "methodIdentifiers": {
    "_handleRoyaltyEnginePayout(address,uint256,uint256,address)": "9128c22c",
    "auctionForNFT(address,uint256)": "a90832a1",
    "cancelAuction(address,uint256)": "859b97fe",
    "createAuction(address,uint256,uint256,uint256,address,uint256,address,uint256,address)": "29508616",
    "createBid(address,uint256,uint256)": "fba133d9",
    "erc20TransferHelper()": "8f9d3251",
    "erc721TransferHelper()": "f7cd1d9b",
    "name()": "06fdde03",
    "registrar()": "2b20e397",
    "setAuctionReservePrice(address,uint256,uint256)": "cbe98dba",
    "setRoyaltyEngineAddress(address)": "b249bb30",
    "settleAuction(address,uint256)": "5138b08c",
    "supportsInterface(bytes4)": "01ffc9a7"
  },
  "id": 49
}