{
  "abi": [
    {
      "inputs": [
        {
          "internalType": "address",
          "name": "media",
          "type": "address"
        },
        {
          "internalType": "uint256",
          "name": "tokenId",
          "type": "uint256"
        }
      ],
      "name": "convertBidShares",
      "outputs": [
        {
          "internalType": "address payable[]",
          "name": "receivers",
          "type": "address[]"
        },
        {
          "internalType": "uint256[]",
          "name": "bps",
          "type": "uint256[]"
        }
      ],
      "stateMutability": "view",
      "type": "function"
    },
    {
      "inputs": [
        {
          "internalType": "bytes4",
          "name": "interfaceId",
          "type": "bytes4"
        }
      ],
      "name": "supportsInterface",
      "outputs": [
        {
          "internalType": "bool",
          "name": "",
          "type": "bool"
        }
      ],
      "stateMutability": "view",
      "type": "function"
    }
  ],
  "bytecode": {
    "object": "0x608060405234801561001057600080fd5b5061073c806100206000396000f3fe608060405234801561001057600080fd5b50600436106100365760003560e01c806301ffc9a71461003b578063f662207414610063575b600080fd5b61004e6100493660046103c6565b610084565b60405190151581526020015b60405180910390f35b610076610071366004610434565b61011d565b60405161005a929190610460565b60007fffffffff0000000000000000000000000000000000000000000000000000000082167ff662207400000000000000000000000000000000000000000000000000000000148061011757507f01ffc9a7000000000000000000000000000000000000000000000000000000007fffffffff000000000000000000000000000000000000000000000000000000008316145b92915050565b60608060008473ffffffffffffffffffffffffffffffffffffffff1663a1794bcd6040518163ffffffff1660e01b8152600401602060405180830381865afa15801561016d573d6000803e3d6000fd5b505050506040513d601f19601f8201168201806040525081019061019191906104f1565b73ffffffffffffffffffffffffffffffffffffffff1663f9ce0582856040518263ffffffff1660e01b81526004016101cb91815260200190565b606060405180830381865afa1580156101e8573d6000803e3d6000fd5b505050506040513d601f19601f8201168201806040525081019061020c91906105a6565b6020810151519091506000901561022b57806102278161063c565b9150505b8067ffffffffffffffff8111156102445761024461050e565b60405190808252806020026020018201604052801561026d578160200160208202803683370190505b5093508067ffffffffffffffff8111156102895761028961050e565b6040519080825280602002602001820160405280156102b2578160200160208202803683370190505b50602083015151909350156103bd576040517fe0fd045f0000000000000000000000000000000000000000000000000000000081526004810186905273ffffffffffffffffffffffffffffffffffffffff87169063e0fd045f90602401602060405180830381865afa15801561032c573d6000803e3d6000fd5b505050506040513d601f19601f8201168201806040525081019061035091906104f1565b846000815181106103635761036361069c565b73ffffffffffffffffffffffffffffffffffffffff9092166020928302919091018201528201515161039d90662386f26fc10000906106cb565b836000815181106103b0576103b061069c565b6020026020010181815250505b50509250929050565b6000602082840312156103d857600080fd5b81357fffffffff000000000000000000000000000000000000000000000000000000008116811461040857600080fd5b9392505050565b73ffffffffffffffffffffffffffffffffffffffff8116811461043157600080fd5b50565b6000806040838503121561044757600080fd5b82356104528161040f565b946020939093013593505050565b604080825283519082018190526000906020906060840190828701845b828110156104af57815173ffffffffffffffffffffffffffffffffffffffff168452928401929084019060010161047d565b5050508381038285015284518082528583019183019060005b818110156104e4578351835292840192918401916001016104c8565b5090979650505050505050565b60006020828403121561050357600080fd5b81516104088161040f565b7f4e487b7100000000000000000000000000000000000000000000000000000000600052604160045260246000fd5b60006020828403121561054f57600080fd5b6040516020810181811067ffffffffffffffff82111715610599577f4e487b7100000000000000000000000000000000000000000000000000000000600052604160045260246000fd5b6040529151825250919050565b6000606082840312156105b857600080fd5b6040516060810181811067ffffffffffffffff82111715610602577f4e487b7100000000000000000000000000000000000000000000000000000000600052604160045260246000fd5b60405261060f848461053d565b815261061e846020850161053d565b6020820152610630846040850161053d565b60408201529392505050565b60007fffffffffffffffffffffffffffffffffffffffffffffffffffffffffffffffff821415610695577f4e487b7100000000000000000000000000000000000000000000000000000000600052601160045260246000fd5b5060010190565b7f4e487b7100000000000000000000000000000000000000000000000000000000600052603260045260246000fd5b600082610701577f4e487b7100000000000000000000000000000000000000000000000000000000600052601260045260246000fd5b50049056fea26469706673582212202d324de2ffd5149d8acadcd5f0bf012a9754d7758fbbd7432461a571d7e98e0164736f6c634300080a0033",
    "linkReferences": {}
  },
  "methodIdentifiers": {
    "convertBidShares(address,uint256)": "f6622074",
    "supportsInterface(bytes4)": "01ffc9a7"
  },
  "id": 12
}