{
  "abi": [
    {
      "inputs": [
        {
          "internalType": "address",
          "name": "_erc721TransferHelper",
          "type": "address"
        },
        {
          "internalType": "address",
          "name": "_royaltyEngine",
          "type": "address"
        },
        {
          "internalType": "address",
          "name": "_protocolFeeSettings",
          "type": "address"
        },
        {
          "internalType": "address",
          "name": "_weth",
          "type": "address"
        }
      ],
      "stateMutability": "nonpayable",
      "type": "constructor"
    },
    {
      "anonymous": false,
      "inputs": [
        {
          "indexed": true,
          "internalType": "address",
          "name": "tokenContract",
          "type": "address"
        },
        {
          "indexed": true,
          "internalType": "uint256",
          "name": "tokenId",
          "type": "uint256"
        },
        {
          "indexed": false,
          "internalType": "bool",
          "name": "firstBid",
          "type": "bool"
        },
        {
          "indexed": false,
          "internalType": "bool",
          "name": "extended",
          "type": "bool"
        },
        {
          "components": [
            {
              "internalType": "address",
              "name": "seller",
              "type": "address"
            },
            {
              "internalType": "uint96",
              "name": "reservePrice",
              "type": "uint96"
            },
            {
              "internalType": "address",
              "name": "sellerFundsRecipient",
              "type": "address"
            },
            {
              "internalType": "uint96",
              "name": "highestBid",
              "type": "uint96"
            },
            {
              "internalType": "address",
              "name": "highestBidder",
              "type": "address"
            },
            {
              "internalType": "uint32",
              "name": "duration",
              "type": "uint32"
            },
            {
              "internalType": "uint32",
              "name": "startTime",
              "type": "uint32"
            },
            {
              "internalType": "uint32",
              "name": "firstBidTime",
              "type": "uint32"
            }
          ],
          "indexed": false,
          "internalType": "struct ReserveAuctionCoreEth.Auction",
          "name": "auction",
          "type": "tuple"
        }
      ],
      "name": "AuctionBid",
      "type": "event"
    },
    {
      "anonymous": false,
      "inputs": [
        {
          "indexed": true,
          "internalType": "address",
          "name": "tokenContract",
          "type": "address"
        },
        {
          "indexed": true,
          "internalType": "uint256",
          "name": "tokenId",
          "type": "uint256"
        },
        {
          "components": [
            {
              "internalType": "address",
              "name": "seller",
              "type": "address"
            },
            {
              "internalType": "uint96",
              "name": "reservePrice",
              "type": "uint96"
            },
            {
              "internalType": "address",
              "name": "sellerFundsRecipient",
              "type": "address"
            },
            {
              "internalType": "uint96",
              "name": "highestBid",
              "type": "uint96"
            },
            {
              "internalType": "address",
              "name": "highestBidder",
              "type": "address"
            },
            {
              "internalType": "uint32",
              "name": "duration",
              "type": "uint32"
            },
            {
              "internalType": "uint32",
              "name": "startTime",
              "type": "uint32"
            },
            {
              "internalType": "uint32",
              "name": "firstBidTime",
              "type": "uint32"
            }
          ],
          "indexed": false,
          "internalType": "struct ReserveAuctionCoreEth.Auction",
          "name": "auction",
          "type": "tuple"
        }
      ],
      "name": "AuctionCanceled",
      "type": "event"
    },
    {
      "anonymous": false,
      "inputs": [
        {
          "indexed": true,
          "internalType": "address",
          "name": "tokenContract",
          "type": "address"
        },
        {
          "indexed": true,
          "internalType": "uint256",
          "name": "tokenId",
          "type": "uint256"
        },
        {
          "components": [
            {
              "internalType": "address",
              "name": "seller",
              "type": "address"
            },
            {
              "internalType": "uint96",
              "name": "reservePrice",
              "type": "uint96"
            },
            {
              "internalType": "address",
              "name": "sellerFundsRecipient",
              "type": "address"
            },
            {
              "internalType": "uint96",
              "name": "highestBid",
              "type": "uint96"
            },
            {
              "internalType": "address",
              "name": "highestBidder",
              "type": "address"
            },
            {
              "internalType": "uint32",
              "name": "duration",
              "type": "uint32"
            },
            {
              "internalType": "uint32",
              "name": "startTime",
              "type": "uint32"
            },
            {
              "internalType": "uint32",
              "name": "firstBidTime",
              "type": "uint32"
            }
          ],
          "indexed": false,
          "internalType": "struct ReserveAuctionCoreEth.Auction",
          "name": "auction",
          "type": "tuple"
        }
      ],
      "name": "AuctionCreated",
      "type": "event"
    },
    {
      "anonymous": false,
      "inputs": [
        {
          "indexed": true,
          "internalType": "address",
          "name": "tokenContract",
          "type": "address"
        },
        {
          "indexed": true,
          "internalType": "uint256",
          "name": "tokenId",
          "type": "uint256"
        },
        {
          "components": [
            {
              "internalType": "address",
              "name": "seller",
              "type": "address"
            },
            {
              "internalType": "uint96",
              "name": "reservePrice",
              "type": "uint96"
            },
            {
              "internalType": "address",
              "name": "sellerFundsRecipient",
              "type": "address"
            },
            {
              "internalType": "uint96",
              "name": "highestBid",
              "type": "uint96"
            },
            {
              "internalType": "address",
              "name": "highestBidder",
              "type": "address"
            },
            {
              "internalType": "uint32",
              "name": "duration",
              "type": "uint32"
            },
            {
              "internalType": "uint32",
              "name": "startTime",
              "type": "uint32"
            },
            {
              "internalType": "uint32",
              "name": "firstBidTime",
              "type": "uint32"
            }
          ],
          "indexed": false,
          "internalType": "struct ReserveAuctionCoreEth.Auction",
          "name": "auction",
          "type": "tuple"
        }
      ],
      "name": "AuctionEnded",
      "type": "event"
    },
    {
      "anonymous": false,
      "inputs": [
        {
          "indexed": true,
          "internalType": "address",
          "name": "tokenContract",
          "type": "address"
        },
        {
          "indexed": true,
          "internalType": "uint256",
          "name": "tokenId",
          "type": "uint256"
        },
        {
          "components": [
            {
              "internalType": "address",
              "name": "seller",
              "type": "address"
            },
            {
              "internalType": "uint96",
              "name": "reservePrice",
              "type": "uint96"
            },
            {
              "internalType": "address",
              "name": "sellerFundsRecipient",
              "type": "address"
            },
            {
              "internalType": "uint96",
              "name": "highestBid",
              "type": "uint96"
            },
            {
              "internalType": "address",
              "name": "highestBidder",
              "type": "address"
            },
            {
              "internalType": "uint32",
              "name": "duration",
              "type": "uint32"
            },
            {
              "internalType": "uint32",
              "name": "startTime",
              "type": "uint32"
            },
            {
              "internalType": "uint32",
              "name": "firstBidTime",
              "type": "uint32"
            }
          ],
          "indexed": false,
          "internalType": "struct ReserveAuctionCoreEth.Auction",
          "name": "auction",
          "type": "tuple"
        }
      ],
      "name": "AuctionReservePriceUpdated",
      "type": "event"
    },
    {
      "anonymous": false,
      "inputs": [
        {
          "indexed": true,
          "internalType": "address",
          "name": "tokenContract",
          "type": "address"
        },
        {
          "indexed": true,
          "internalType": "uint256",
          "name": "tokenId",
          "type": "uint256"
        },
        {
          "indexed": false,
          "internalType": "address",
          "name": "recipient",
          "type": "address"
        },
        {
          "indexed": false,
          "internalType": "uint256",
          "name": "amount",
          "type": "uint256"
        }
      ],
      "name": "RoyaltyPayout",
      "type": "event"
    },
    {
      "inputs": [
        {
          "internalType": "address",
          "name": "_tokenContract",
          "type": "address"
        },
        {
          "internalType": "uint256",
          "name": "_tokenId",
          "type": "uint256"
        },
        {
          "internalType": "uint256",
          "name": "_amount",
          "type": "uint256"
        },
        {
          "internalType": "address",
          "name": "_payoutCurrency",
          "type": "address"
        }
      ],
      "name": "_handleRoyaltyEnginePayout",
      "outputs": [
        {
          "internalType": "uint256",
          "name": "",
          "type": "uint256"
        }
      ],
      "stateMutability": "payable",
      "type": "function"
    },
    {
      "inputs": [
        {
          "internalType": "address",
          "name": "",
          "type": "address"
        },
        {
          "internalType": "uint256",
          "name": "",
          "type": "uint256"
        }
      ],
      "name": "auctionForNFT",
      "outputs": [
        {
          "internalType": "address",
          "name": "seller",
          "type": "address"
        },
        {
          "internalType": "uint96",
          "name": "reservePrice",
          "type": "uint96"
        },
        {
          "internalType": "address",
          "name": "sellerFundsRecipient",
          "type": "address"
        },
        {
          "internalType": "uint96",
          "name": "highestBid",
          "type": "uint96"
        },
        {
          "internalType": "address",
          "name": "highestBidder",
          "type": "address"
        },
        {
          "internalType": "uint32",
          "name": "duration",
          "type": "uint32"
        },
        {
          "internalType": "uint32",
          "name": "startTime",
          "type": "uint32"
        },
        {
          "internalType": "uint32",
          "name": "firstBidTime",
          "type": "uint32"
        }
      ],
      "stateMutability": "view",
      "type": "function"
    },
    {
      "inputs": [
        {
          "internalType": "address",
          "name": "_tokenContract",
          "type": "address"
        },
        {
          "internalType": "uint256",
          "name": "_tokenId",
          "type": "uint256"
        }
      ],
      "name": "cancelAuction",
      "outputs": [],
      "stateMutability": "nonpayable",
      "type": "function"
    },
    {
      "inputs": [
        {
          "internalType": "address",
          "name": "_tokenContract",
          "type": "address"
        },
        {
          "internalType": "uint256",
          "name": "_tokenId",
          "type": "uint256"
        },
        {
          "internalType": "uint256",
          "name": "_duration",
          "type": "uint256"
        },
        {
          "internalType": "uint256",
          "name": "_reservePrice",
          "type": "uint256"
        },
        {
          "internalType": "address",
          "name": "_sellerFundsRecipient",
          "type": "address"
        },
        {
          "internalType": "uint256",
          "name": "_startTime",
          "type": "uint256"
        }
      ],
      "name": "createAuction",
      "outputs": [],
      "stateMutability": "nonpayable",
      "type": "function"
    },
    {
      "inputs": [
        {
          "internalType": "address",
          "name": "_tokenContract",
          "type": "address"
        },
        {
          "internalType": "uint256",
          "name": "_tokenId",
          "type": "uint256"
        }
      ],
      "name": "createBid",
      "outputs": [],
      "stateMutability": "payable",
      "type": "function"
    },
    {
      "inputs": [],
      "name": "erc721TransferHelper",
      "outputs": [
        {
          "internalType": "contract ERC721TransferHelper",
          "name": "",
          "type": "address"
        }
      ],
      "stateMutability": "view",
      "type": "function"
    },
    {
      "inputs": [],
      "name": "name",
      "outputs": [
        {
          "internalType": "string",
          "name": "",
          "type": "string"
        }
      ],
      "stateMutability": "view",
      "type": "function"
    },
    {
      "inputs": [],
      "name": "registrar",
      "outputs": [
        {
          "internalType": "address",
          "name": "",
          "type": "address"
        }
      ],
      "stateMutability": "view",
      "type": "function"
    },
    {
      "inputs": [
        {
          "internalType": "address",
          "name": "_tokenContract",
          "type": "address"
        },
        {
          "internalType": "uint256",
          "name": "_tokenId",
          "type": "uint256"
        },
        {
          "internalType": "uint256",
          "name": "_reservePrice",
          "type": "uint256"
        }
      ],
      "name": "setAuctionReservePrice",
      "outputs": [],
      "stateMutability": "nonpayable",
      "type": "function"
    },
    {
      "inputs": [
        {
          "internalType": "address",
          "name": "_royaltyEngine",
          "type": "address"
        }
      ],
      "name": "setRoyaltyEngineAddress",
      "outputs": [],
      "stateMutability": "nonpayable",
      "type": "function"
    },
    {
      "inputs": [
        {
          "internalType": "address",
          "name": "_tokenContract",
          "type": "address"
        },
        {
          "internalType": "uint256",
          "name": "_tokenId",
          "type": "uint256"
        }
      ],
      "name": "settleAuction",
      "outputs": [],
      "stateMutability": "nonpayable",
      "type": "function"
    },
    {
      "inputs": [
        {
          "internalType": "bytes4",
          "name": "_interfaceId",
          "type": "bytes4"
        }
      ],
      "name": "supportsInterface",
      "outputs": [
        {
          "internalType": "bool",
          "name": "",
          "type": "bool"
        }
      ],
      "stateMutability": "pure",
      "type": "function"
    }
  ],
  "bytecode": {
    "object": "0x61010060405260016000553480156200001757600080fd5b5060405162003146380380620031468339810160408190526200003a916200025a565b6040518060400160405280601881526020017f526573657276652041756374696f6e20436f7265204554480000000000000000815250838383876001600160a01b031663e3e606f06040518163ffffffff1660e01b8152600401602060405180830381865afa158015620000b2573d6000803e3d6000fd5b505050506040513d601f19601f82011682018060405250810190620000d89190620002c2565b6001600160a01b0316632b20e3976040518163ffffffff1660e01b8152600401602060405180830381865afa15801562000116573d6000803e3d6000fd5b505050506040513d601f19601f820116820180604052508101906200013c9190620002c2565b6001600160a01b03918216608052600180546001600160a01b0319169483169490941790935590811660c0521660a0528051620001819060029060208401906200019b565b5050506001600160a01b0390921660e05250620003269050565b828054620001a990620002e9565b90600052602060002090601f016020900481019282620001cd576000855562000218565b82601f10620001e857805160ff191683800117855562000218565b8280016001018555821562000218579182015b8281111562000218578251825591602001919060010190620001fb565b50620002269291506200022a565b5090565b5b808211156200022657600081556001016200022b565b6001600160a01b03811681146200025757600080fd5b50565b600080600080608085870312156200027157600080fd5b84516200027e8162000241565b6020860151909450620002918162000241565b6040860151909350620002a48162000241565b6060860151909250620002b78162000241565b939692955090935050565b600060208284031215620002d557600080fd5b8151620002e28162000241565b9392505050565b600181811c90821680620002fe57607f821691505b602082108114156200032057634e487b7160e01b600052602260045260246000fd5b50919050565b60805160a05160c05160e051612dca6200037c600039600081816103b30152610fde015260008181611e610152611f0d015260008181610157015261192601526000818161210f01526121a70152612dca6000f3fe6080604052600436106100c75760003560e01c8063859b97fe11610074578063b249bb301161004e578063b249bb3014610361578063cbe98dba14610381578063f7cd1d9b146103a157600080fd5b8063859b97fe146101d15780639128c22c146101f1578063a90832a11461021257600080fd5b80632b20e397116100a55780632b20e397146101455780635138b08c1461019e57806370a7eba9146101be57600080fd5b806301ffc9a7146100cc57806306fdd5311461010157806306fdde0314610123575b600080fd5b3480156100d857600080fd5b506100ec6100e73660046126c3565b6103d5565b60405190151581526020015b60405180910390f35b34801561010d57600080fd5b5061012161011c36600461272a565b61046e565b005b34801561012f57600080fd5b5061013861086a565b6040516100f891906127b4565b34801561015157600080fd5b506101797f000000000000000000000000000000000000000000000000000000000000000081565b60405173ffffffffffffffffffffffffffffffffffffffff90911681526020016100f8565b3480156101aa57600080fd5b506101216101b9366004612805565b6108f8565b6101216101cc366004612805565b610cb7565b3480156101dd57600080fd5b506101216101ec366004612805565b6112c2565b6102046101ff366004612831565b611669565b6040519081526020016100f8565b34801561021e57600080fd5b506102f361022d366004612805565b600360209081526000928352604080842090915290825290208054600182015460029092015473ffffffffffffffffffffffffffffffffffffffff808316936bffffffffffffffffffffffff740100000000000000000000000000000000000000009485900481169482841694928190049091169282169163ffffffff918104821691780100000000000000000000000000000000000000000000000082048116917c010000000000000000000000000000000000000000000000000000000090041688565b6040805173ffffffffffffffffffffffffffffffffffffffff998a1681526bffffffffffffffffffffffff9889166020820152968916908701529590931660608501529416608083015263ffffffff93841660a0830152831660c0820152911660e0820152610100016100f8565b34801561036d57600080fd5b5061012161037c36600461287b565b61190e565b34801561038d57600080fd5b5061012161039c366004612898565b611ad0565b3480156103ad57600080fd5b506101797f000000000000000000000000000000000000000000000000000000000000000081565b60007fffffffff0000000000000000000000000000000000000000000000000000000082167f6910945000000000000000000000000000000000000000000000000000000000148061046857507f01ffc9a7000000000000000000000000000000000000000000000000000000007fffffffff000000000000000000000000000000000000000000000000000000008316145b92915050565b6000546001146104df576040517f08c379a000000000000000000000000000000000000000000000000000000000815260206004820152600a60248201527f5245454e5452414e43590000000000000000000000000000000000000000000060448201526064015b60405180910390fd5b600260009081556040517f6352211e0000000000000000000000000000000000000000000000000000000081526004810187905273ffffffffffffffffffffffffffffffffffffffff881690636352211e90602401602060405180830381865afa158015610551573d6000803e3d6000fd5b505050506040513d601f19601f8201168201806040525081019061057591906128cd565b90503373ffffffffffffffffffffffffffffffffffffffff8216148061062c57506040517fe985e9c500000000000000000000000000000000000000000000000000000000815273ffffffffffffffffffffffffffffffffffffffff828116600483015233602483015288169063e985e9c590604401602060405180830381865afa158015610608573d6000803e3d6000fd5b505050506040513d601f19601f8201168201806040525081019061062c91906128ea565b610692576040517f08c379a000000000000000000000000000000000000000000000000000000000815260206004820152601c60248201527f4f4e4c595f544f4b454e5f4f574e45525f4f525f4f50455241544f520000000060448201526064016104d6565b73ffffffffffffffffffffffffffffffffffffffff831661070f576040517f08c379a000000000000000000000000000000000000000000000000000000000815260206004820152601760248201527f494e56414c49445f46554e44535f524543495049454e5400000000000000000060448201526064016104d6565b73ffffffffffffffffffffffffffffffffffffffff80881660008181526003602090815260408083208b8452909152908190206bffffffffffffffffffffffff8816740100000000000000000000000000000000000000009081028686161782556001820180549589167fffffffffffffffffffffffff0000000000000000000000000000000000000000969096169590951790945560028101805463ffffffff8881167801000000000000000000000000000000000000000000000000027fffffffff00000000ffffffffffffffffffffffffffffffffffffffffffffffff918d16909702167fffffffff0000000000000000ffffffffffffffffffffffffffffffffffffffff9091161794909417909355518891907f121f6d6881cb1dd3914c0234659abdd33704f600899be3db716f88f44a22eb719061085390859061298a565b60405180910390a350506001600055505050505050565b6002805461087790612999565b80601f01602080910402602001604051908101604052809291908181526020018280546108a390612999565b80156108f05780601f106108c5576101008083540402835291602001916108f0565b820191906000526020600020905b8154815290600101906020018083116108d357829003601f168201915b505050505081565b600054600114610964576040517f08c379a000000000000000000000000000000000000000000000000000000000815260206004820152600a60248201527f5245454e5452414e43590000000000000000000000000000000000000000000060448201526064016104d6565b6002600081815573ffffffffffffffffffffffffffffffffffffffff8085168252600360209081526040808420868552825292839020835161010081018552815480851682526bffffffffffffffffffffffff740100000000000000000000000000000000000000009182900481169483019490945260018301548086169683019690965294859004909216606083015290930154908116608084015263ffffffff918104821660a084015278010000000000000000000000000000000000000000000000008104821660c08401527c010000000000000000000000000000000000000000000000000000000090041660e0820181905280610ac2576040517f08c379a000000000000000000000000000000000000000000000000000000000815260206004820152601360248201527f41554354494f4e5f4e4f545f535441525445440000000000000000000000000060448201526064016104d6565b60a0820151610ad79063ffffffff1682612a1c565b421015610b40576040517f08c379a000000000000000000000000000000000000000000000000000000000815260206004820152601060248201527f41554354494f4e5f4e4f545f4f5645520000000000000000000000000000000060448201526064016104d6565b6000610b65858585606001516bffffffffffffffffffffffff166000620493e0611d0c565b509050610b73816000611e12565b9050610b88836040015182600061c350611fb0565b60808301516040517f23b872dd00000000000000000000000000000000000000000000000000000000815230600482015273ffffffffffffffffffffffffffffffffffffffff918216602482015260448101869052908616906323b872dd90606401600060405180830381600087803b158015610c0457600080fd5b505af1158015610c18573d6000803e3d6000fd5b50505050838573ffffffffffffffffffffffffffffffffffffffff167fde4690ca69ca2f9bab030a05a3072d626b0692c7020c1ef534aa3cc140fb1ff585604051610c639190612a34565b60405180910390a350505073ffffffffffffffffffffffffffffffffffffffff9091166000908152600360209081526040808320938352929052908120818155600180820183905560029091018290559055565b600054600114610d23576040517f08c379a000000000000000000000000000000000000000000000000000000000815260206004820152600a60248201527f5245454e5452414e43590000000000000000000000000000000000000000000060448201526064016104d6565b6002600090815573ffffffffffffffffffffffffffffffffffffffff8084168252600360209081526040808420858552909152909120805490911680610dc5576040517f08c379a000000000000000000000000000000000000000000000000000000000815260206004820152601660248201527f41554354494f4e5f444f45535f4e4f545f45584953540000000000000000000060448201526064016104d6565b60028201547801000000000000000000000000000000000000000000000000900463ffffffff16421015610e55576040517f08c379a000000000000000000000000000000000000000000000000000000000815260206004820152601360248201527f41554354494f4e5f4e4f545f535441525445440000000000000000000000000060448201526064016104d6565b600282015463ffffffff7c01000000000000000000000000000000000000000000000000000000008204811691740100000000000000000000000000000000000000009004166000826110415784547401000000000000000000000000000000000000000090046bffffffffffffffffffffffff16341015610f33576040517f08c379a000000000000000000000000000000000000000000000000000000000815260206004820152601560248201527f524553455256455f50524943455f4e4f545f4d4554000000000000000000000060448201526064016104d6565b506002840180547bffffffffffffffffffffffffffffffffffffffffffffffffffffffff167c01000000000000000000000000000000000000000000000000000000004263ffffffff16021790556040517f15dacbea00000000000000000000000000000000000000000000000000000000815273ffffffffffffffffffffffffffffffffffffffff87811660048301528481166024830152306044830152606482018790526001917f0000000000000000000000000000000000000000000000000000000000000000909116906315dacbea90608401600060405180830381600087803b15801561102457600080fd5b505af1158015611038573d6000803e3d6000fd5b5050505061117e565b61104b8284612a1c565b42106110b3576040517f08c379a000000000000000000000000000000000000000000000000000000000815260206004820152600c60248201527f41554354494f4e5f4f564552000000000000000000000000000000000000000060448201526064016104d6565b60018501547401000000000000000000000000000000000000000090046bffffffffffffffffffffffff166064600a820204810134811115611151576040517f08c379a000000000000000000000000000000000000000000000000000000000815260206004820152601360248201527f4d494e494d554d5f4249445f4e4f545f4d45540000000000000000000000000060448201526064016104d6565b600287015461117b9073ffffffffffffffffffffffffffffffffffffffff1683600061c350611fb0565b50505b6001850180546bffffffffffffffffffffffff3416740100000000000000000000000000000000000000000273ffffffffffffffffffffffffffffffffffffffff9091161790556002850180547fffffffffffffffffffffffff000000000000000000000000000000000000000016331790556000428484010361038481101561125f5760028701805463ffffffff74010000000000000000000000000000000000000000808304821661038486900301909116027fffffffffffffffff00000000ffffffffffffffffffffffffffffffffffffffff909116179055600191505b878973ffffffffffffffffffffffffffffffffffffffff167f0a3da7cd15c46d5cafa4dd84d39231172bb1e7822cacea75610917733a77dcc385858b6040516112aa93929190612ae7565b60405180910390a35050600160005550505050505050565b60005460011461132e576040517f08c379a000000000000000000000000000000000000000000000000000000000815260206004820152600a60248201527f5245454e5452414e43590000000000000000000000000000000000000000000060448201526064016104d6565b6002600081815573ffffffffffffffffffffffffffffffffffffffff8085168252600360209081526040808420868552825292839020835161010081018552815480851682526bffffffffffffffffffffffff740100000000000000000000000000000000000000009182900481169483019490945260018301548086169683019690965294859004909216606083015290930154908116608084015263ffffffff918104821660a084015278010000000000000000000000000000000000000000000000008104821660c08401527c010000000000000000000000000000000000000000000000000000000090041660e082018190521561148c576040517f08c379a000000000000000000000000000000000000000000000000000000000815260206004820152600f60248201527f41554354494f4e5f53544152544544000000000000000000000000000000000060448201526064016104d6565b805173ffffffffffffffffffffffffffffffffffffffff1633148061156a57506040517f6352211e0000000000000000000000000000000000000000000000000000000081526004810183905273ffffffffffffffffffffffffffffffffffffffff841690636352211e90602401602060405180830381865afa158015611517573d6000803e3d6000fd5b505050506040513d601f19601f8201168201806040525081019061153b91906128cd565b73ffffffffffffffffffffffffffffffffffffffff163373ffffffffffffffffffffffffffffffffffffffff16145b6115d0576040517f08c379a000000000000000000000000000000000000000000000000000000000815260206004820152601a60248201527f4f4e4c595f53454c4c45525f4f525f544f4b454e5f4f574e455200000000000060448201526064016104d6565b818373ffffffffffffffffffffffffffffffffffffffff167f03a68264db4df5c4ee072ef5ddf1c65b80a3d96e54c2082d5dbbfa479b4b159a836040516116179190612a34565b60405180910390a35073ffffffffffffffffffffffffffffffffffffffff9091166000908152600360209081526040808320938352929052908120818155600180820183905560029091018290559055565b60003330146116fa576040517f08c379a000000000000000000000000000000000000000000000000000000000815260206004820152602d60248201527f5f68616e646c65526f79616c7479456e67696e655061796f7574206f6e6c792060448201527f73656c662063616c6c61626c650000000000000000000000000000000000000060648201526084016104d6565b6001546040517ff533b80200000000000000000000000000000000000000000000000000000000815273ffffffffffffffffffffffffffffffffffffffff87811660048301526024820187905260448201869052600092839291169063f533b802906064016000604051808303816000875af115801561177e573d6000803e3d6000fd5b505050506040513d6000823e601f3d9081017fffffffffffffffffffffffffffffffffffffffffffffffffffffffffffffffe01682016040526117c49190810190612c13565b81519193509150806117db57859350505050611906565b85600080805b848110156118fc578681815181106117fb576117fb612cd8565b6020026020010151925085818151811061181757611817612cd8565b602002602001015191508184101561188b576040517f08c379a000000000000000000000000000000000000000000000000000000000815260206004820152600960248201527f696e736f6c76656e74000000000000000000000000000000000000000000000060448201526064016104d6565b61189983838b61c350611fb0565b6040805173ffffffffffffffffffffffffffffffffffffffff8581168252602082018590528d92908f16917f866e6ef8682ddf5f1025e64dfdb45527077f7be70fa9ef680b7ffd8cf4ab9c50910160405180910390a392819003926001016117e1565b5091955050505050505b949350505050565b3373ffffffffffffffffffffffffffffffffffffffff7f000000000000000000000000000000000000000000000000000000000000000016146119d3576040517f08c379a000000000000000000000000000000000000000000000000000000000815260206004820152602660248201527f736574526f79616c7479456e67696e6541646472657373206f6e6c792072656760448201527f697374726172000000000000000000000000000000000000000000000000000060648201526084016104d6565b6119fd817fcb23f81600000000000000000000000000000000000000000000000000000000612200565b611a89576040517f08c379a000000000000000000000000000000000000000000000000000000000815260206004820152603d60248201527f736574526f79616c7479456e67696e6541646472657373206d757374206d617460448201527f63682049526f79616c7479456e67696e65563120696e7465726661636500000060648201526084016104d6565b600180547fffffffffffffffffffffffff00000000000000000000000000000000000000001673ffffffffffffffffffffffffffffffffffffffff92909216919091179055565b600054600114611b3c576040517f08c379a000000000000000000000000000000000000000000000000000000000815260206004820152600a60248201527f5245454e5452414e43590000000000000000000000000000000000000000000060448201526064016104d6565b6002600081815573ffffffffffffffffffffffffffffffffffffffff851681526003602090815260408083208684529091529020908101547c0100000000000000000000000000000000000000000000000000000000900463ffffffff1615611c01576040517f08c379a000000000000000000000000000000000000000000000000000000000815260206004820152600f60248201527f41554354494f4e5f53544152544544000000000000000000000000000000000060448201526064016104d6565b805473ffffffffffffffffffffffffffffffffffffffff163314611c81576040517f08c379a000000000000000000000000000000000000000000000000000000000815260206004820152600b60248201527f4f4e4c595f53454c4c455200000000000000000000000000000000000000000060448201526064016104d6565b80546bffffffffffffffffffffffff8316740100000000000000000000000000000000000000000273ffffffffffffffffffffffffffffffffffffffff91821617825560405184918616907f340f8e02bf825f1f02f5409eb2c69a09374d9063b8a3297579b69c9b3643f96190611cf990859061298a565b60405180910390a3505060016000555050565b60008080831580611d1c57505a84115b611d265783611d28565b5a5b6040517f9128c22c00000000000000000000000000000000000000000000000000000000815273ffffffffffffffffffffffffffffffffffffffff808b166004830152602482018a905260448201899052871660648201529091503090639128c22c90839060840160206040518083038160008887f193505050508015611dea575060408051601f3d9081017fffffffffffffffffffffffffffffffffffffffffffffffffffffffffffffffe0168201909252611de791810190612d07565b60015b611dfb578560009250925050611e08565b925060019150611e089050565b9550959350505050565b6040517f61b485f600000000000000000000000000000000000000000000000000000000815230600482015260248101839052600090819073ffffffffffffffffffffffffffffffffffffffff7f000000000000000000000000000000000000000000000000000000000000000016906361b485f690604401602060405180830381865afa158015611ea8573d6000803e3d6000fd5b505050506040513d601f19601f82011682018060405250810190611ecc9190612d07565b905080611edc5783915050610468565b6040517f86ab6fb90000000000000000000000000000000000000000000000000000000081523060048201526000907f000000000000000000000000000000000000000000000000000000000000000073ffffffffffffffffffffffffffffffffffffffff16906386ab6fb9906024016040805180830381865afa158015611f68573d6000803e3d6000fd5b505050506040513d601f19601f82011682018060405250810190611f8c9190612d20565b915050611f9d81838661c350611fb0565b611fa78286612d61565b95945050505050565b821580611fd1575073ffffffffffffffffffffffffffffffffffffffff8416155b15611fdb576121fa565b73ffffffffffffffffffffffffffffffffffffffff82166121d95782471015612086576040517f08c379a000000000000000000000000000000000000000000000000000000000815260206004820152602160248201527f5f68616e646c654f7574676f696e675472616e7366657220696e736f6c76656e60448201527f740000000000000000000000000000000000000000000000000000000000000060648201526084016104d6565b600081158061209457505a82115b61209e57816120a0565b5a5b905060008573ffffffffffffffffffffffffffffffffffffffff16858390604051600060405180830381858888f193505050503d80600081146120ff576040519150601f19603f3d011682016040523d82523d6000602084013e612104565b606091505b50509050806121d2577f000000000000000000000000000000000000000000000000000000000000000073ffffffffffffffffffffffffffffffffffffffff1663d0e30db0866040518263ffffffff1660e01b81526004016000604051808303818588803b15801561217557600080fd5b505af1158015612189573d6000803e3d6000fd5b506121d293505073ffffffffffffffffffffffffffffffffffffffff7f000000000000000000000000000000000000000000000000000000000000000016915088905087612223565b50506121fa565b6121fa73ffffffffffffffffffffffffffffffffffffffff83168585612223565b50505050565b600061220b836122b5565b801561221c575061221c8383612319565b9392505050565b6040805173ffffffffffffffffffffffffffffffffffffffff8416602482015260448082018490528251808303909101815260649091019091526020810180517bffffffffffffffffffffffffffffffffffffffffffffffffffffffff167fa9059cbb000000000000000000000000000000000000000000000000000000001790526122b0908490612455565b505050565b60006122e1827f01ffc9a700000000000000000000000000000000000000000000000000000000612319565b80156104685750612312827fffffffff00000000000000000000000000000000000000000000000000000000612319565b1592915050565b604080517fffffffff00000000000000000000000000000000000000000000000000000000831660248083019190915282518083039091018152604490910182526020810180517bffffffffffffffffffffffffffffffffffffffffffffffffffffffff167f01ffc9a7000000000000000000000000000000000000000000000000000000001790529051600091908290819073ffffffffffffffffffffffffffffffffffffffff871690617530906123d3908690612d78565b6000604051808303818686fa925050503d806000811461240f576040519150601f19603f3d011682016040523d82523d6000602084013e612414565b606091505b509150915060208151101561242f5760009350505050610468565b81801561244b57508080602001905181019061244b91906128ea565b9695505050505050565b60006124b7826040518060400160405280602081526020017f5361666545524332303a206c6f772d6c6576656c2063616c6c206661696c65648152508573ffffffffffffffffffffffffffffffffffffffff166125619092919063ffffffff16565b8051909150156122b057808060200190518101906124d591906128ea565b6122b0576040517f08c379a000000000000000000000000000000000000000000000000000000000815260206004820152602a60248201527f5361666545524332303a204552433230206f7065726174696f6e20646964206e60448201527f6f7420737563636565640000000000000000000000000000000000000000000060648201526084016104d6565b606061190684846000858573ffffffffffffffffffffffffffffffffffffffff85163b6125ea576040517f08c379a000000000000000000000000000000000000000000000000000000000815260206004820152601d60248201527f416464726573733a2063616c6c20746f206e6f6e2d636f6e747261637400000060448201526064016104d6565b6000808673ffffffffffffffffffffffffffffffffffffffff1685876040516126139190612d78565b60006040518083038185875af1925050503d8060008114612650576040519150601f19603f3d011682016040523d82523d6000602084013e612655565b606091505b5091509150612665828286612670565b979650505050505050565b6060831561267f57508161221c565b82511561268f5782518084602001fd5b816040517f08c379a00000000000000000000000000000000000000000000000000000000081526004016104d691906127b4565b6000602082840312156126d557600080fd5b81357fffffffff000000000000000000000000000000000000000000000000000000008116811461221c57600080fd5b73ffffffffffffffffffffffffffffffffffffffff8116811461272757600080fd5b50565b60008060008060008060c0878903121561274357600080fd5b863561274e81612705565b9550602087013594506040870135935060608701359250608087013561277381612705565b8092505060a087013590509295509295509295565b60005b838110156127a357818101518382015260200161278b565b838111156121fa5750506000910152565b60208152600082518060208401526127d3816040850160208701612788565b601f017fffffffffffffffffffffffffffffffffffffffffffffffffffffffffffffffe0169190910160400192915050565b6000806040838503121561281857600080fd5b823561282381612705565b946020939093013593505050565b6000806000806080858703121561284757600080fd5b843561285281612705565b93506020850135925060408501359150606085013561287081612705565b939692955090935050565b60006020828403121561288d57600080fd5b813561221c81612705565b6000806000606084860312156128ad57600080fd5b83356128b881612705565b95602085013595506040909401359392505050565b6000602082840312156128df57600080fd5b815161221c81612705565b6000602082840312156128fc57600080fd5b8151801515811461221c57600080fd5b805473ffffffffffffffffffffffffffffffffffffffff80821684528160a01c60208501526001830154915080821660408501528160a01c60608501526002830154915080821660808501525063ffffffff808260a01c1660a0850152808260c01c1660c0850152506122b060e084018260e01c63ffffffff169052565b6101008101610468828461290c565b600181811c908216806129ad57607f821691505b602082108114156129e7577f4e487b7100000000000000000000000000000000000000000000000000000000600052602260045260246000fd5b50919050565b7f4e487b7100000000000000000000000000000000000000000000000000000000600052601160045260246000fd5b60008219821115612a2f57612a2f6129ed565b500190565b60006101008201905073ffffffffffffffffffffffffffffffffffffffff80845116835260208401516bffffffffffffffffffffffff808216602086015282604087015116604086015280606087015116606086015250508060808501511660808401525060a0830151612ab060a084018263ffffffff169052565b5060c0830151612ac860c084018263ffffffff169052565b5060e0830151612ae060e084018263ffffffff169052565b5092915050565b831515815282151560208201526101408101611906604083018461290c565b7f4e487b7100000000000000000000000000000000000000000000000000000000600052604160045260246000fd5b604051601f82017fffffffffffffffffffffffffffffffffffffffffffffffffffffffffffffffe016810167ffffffffffffffff81118282101715612b7c57612b7c612b06565b604052919050565b600067ffffffffffffffff821115612b9e57612b9e612b06565b5060051b60200190565b600082601f830112612bb957600080fd5b81516020612bce612bc983612b84565b612b35565b82815260059290921b84018101918181019086841115612bed57600080fd5b8286015b84811015612c085780518352918301918301612bf1565b509695505050505050565b60008060408385031215612c2657600080fd5b825167ffffffffffffffff80821115612c3e57600080fd5b818501915085601f830112612c5257600080fd5b81516020612c62612bc983612b84565b82815260059290921b84018101918181019089841115612c8157600080fd5b948201945b83861015612ca8578551612c9981612705565b82529482019490820190612c86565b91880151919650909350505080821115612cc157600080fd5b50612cce85828601612ba8565b9150509250929050565b7f4e487b7100000000000000000000000000000000000000000000000000000000600052603260045260246000fd5b600060208284031215612d1957600080fd5b5051919050565b60008060408385031215612d3357600080fd5b825161ffff81168114612d4557600080fd5b6020840151909250612d5681612705565b809150509250929050565b600082821015612d7357612d736129ed565b500390565b60008251612d8a818460208701612788565b919091019291505056fea2646970667358221220b86866b00e1c44b20fb75116e282ffcc917b132673bf3debbda49a2b6528779764736f6c634300080a0033",
    "linkReferences": {}
  },
  "methodIdentifiers": {
    "_handleRoyaltyEnginePayout(address,uint256,uint256,address)": "9128c22c",
    "auctionForNFT(address,uint256)": "a90832a1",
    "cancelAuction(address,uint256)": "859b97fe",
    "createAuction(address,uint256,uint256,uint256,address,uint256)": "06fdd531",
    "createBid(address,uint256)": "70a7eba9",
    "erc721TransferHelper()": "f7cd1d9b",
    "name()": "06fdde03",
    "registrar()": "2b20e397",
    "setAuctionReservePrice(address,uint256,uint256)": "cbe98dba",
    "setRoyaltyEngineAddress(address)": "b249bb30",
    "settleAuction(address,uint256)": "5138b08c",
    "supportsInterface(bytes4)": "01ffc9a7"
  },
  "id": 43
}