{
  "abi": [
    {
      "inputs": [
        {
          "internalType": "address",
          "name": "_erc20TransferHelper",
          "type": "address"
        },
        {
          "internalType": "address",
          "name": "_erc721TransferHelper",
          "type": "address"
        },
        {
          "internalType": "address",
          "name": "_royaltyEngine",
          "type": "address"
        },
        {
          "internalType": "address",
          "name": "_protocolFeeSettings",
          "type": "address"
        },
        {
          "internalType": "address",
          "name": "_weth",
          "type": "address"
        }
      ],
      "stateMutability": "nonpayable",
      "type": "constructor"
    },
    {
      "anonymous": false,
      "inputs": [
        {
          "indexed": true,
          "internalType": "address",
          "name": "tokenContract",
          "type": "address"
        },
        {
          "indexed": true,
          "internalType": "uint256",
          "name": "tokenId",
          "type": "uint256"
        },
        {
          "components": [
            {
              "internalType": "uint256",
              "name": "price",
              "type": "uint256"
            },
            {
              "internalType": "address",
              "name": "seller",
              "type": "address"
            },
            {
              "internalType": "uint96",
              "name": "expiry",
              "type": "uint96"
            },
            {
              "internalType": "address",
              "name": "sellerFundsRecipient",
              "type": "address"
            },
            {
              "internalType": "uint16",
              "name": "findersFeeBps",
              "type": "uint16"
            },
            {
              "internalType": "address",
              "name": "currency",
              "type": "address"
            },
            {
              "internalType": "address",
              "name": "buyer",
              "type": "address"
            },
            {
              "components": [
                {
                  "internalType": "address",
                  "name": "token",
                  "type": "address"
                },
                {
                  "internalType": "uint256",
                  "name": "minAmount",
                  "type": "uint256"
                }
              ],
              "internalType": "struct AsksDataStorage.TokenGate",
              "name": "tokenGate",
              "type": "tuple"
            },
            {
              "components": [
                {
                  "internalType": "uint16",
                  "name": "listingFeeBps",
                  "type": "uint16"
                },
                {
                  "internalType": "address",
                  "name": "listingFeeRecipient",
                  "type": "address"
                }
              ],
              "internalType": "struct AsksDataStorage.ListingFee",
              "name": "listingFee",
              "type": "tuple"
            }
          ],
          "indexed": false,
          "internalType": "struct AsksDataStorage.FullAsk",
          "name": "ask",
          "type": "tuple"
        }
      ],
      "name": "AskCanceled",
      "type": "event"
    },
    {
      "anonymous": false,
      "inputs": [
        {
          "indexed": true,
          "internalType": "address",
          "name": "tokenContract",
          "type": "address"
        },
        {
          "indexed": true,
          "internalType": "uint256",
          "name": "tokenId",
          "type": "uint256"
        },
        {
          "components": [
            {
              "internalType": "uint256",
              "name": "price",
              "type": "uint256"
            },
            {
              "internalType": "address",
              "name": "seller",
              "type": "address"
            },
            {
              "internalType": "uint96",
              "name": "expiry",
              "type": "uint96"
            },
            {
              "internalType": "address",
              "name": "sellerFundsRecipient",
              "type": "address"
            },
            {
              "internalType": "uint16",
              "name": "findersFeeBps",
              "type": "uint16"
            },
            {
              "internalType": "address",
              "name": "currency",
              "type": "address"
            },
            {
              "internalType": "address",
              "name": "buyer",
              "type": "address"
            },
            {
              "components": [
                {
                  "internalType": "address",
                  "name": "token",
                  "type": "address"
                },
                {
                  "internalType": "uint256",
                  "name": "minAmount",
                  "type": "uint256"
                }
              ],
              "internalType": "struct AsksDataStorage.TokenGate",
              "name": "tokenGate",
              "type": "tuple"
            },
            {
              "components": [
                {
                  "internalType": "uint16",
                  "name": "listingFeeBps",
                  "type": "uint16"
                },
                {
                  "internalType": "address",
                  "name": "listingFeeRecipient",
                  "type": "address"
                }
              ],
              "internalType": "struct AsksDataStorage.ListingFee",
              "name": "listingFee",
              "type": "tuple"
            }
          ],
          "indexed": false,
          "internalType": "struct AsksDataStorage.FullAsk",
          "name": "ask",
          "type": "tuple"
        }
      ],
      "name": "AskCreated",
      "type": "event"
    },
    {
      "anonymous": false,
      "inputs": [
        {
          "indexed": true,
          "internalType": "address",
          "name": "tokenContract",
          "type": "address"
        },
        {
          "indexed": true,
          "internalType": "uint256",
          "name": "tokenId",
          "type": "uint256"
        },
        {
          "indexed": true,
          "internalType": "address",
          "name": "buyer",
          "type": "address"
        },
        {
          "indexed": false,
          "internalType": "address",
          "name": "finder",
          "type": "address"
        },
        {
          "components": [
            {
              "internalType": "uint256",
              "name": "price",
              "type": "uint256"
            },
            {
              "internalType": "address",
              "name": "seller",
              "type": "address"
            },
            {
              "internalType": "uint96",
              "name": "expiry",
              "type": "uint96"
            },
            {
              "internalType": "address",
              "name": "sellerFundsRecipient",
              "type": "address"
            },
            {
              "internalType": "uint16",
              "name": "findersFeeBps",
              "type": "uint16"
            },
            {
              "internalType": "address",
              "name": "currency",
              "type": "address"
            },
            {
              "internalType": "address",
              "name": "buyer",
              "type": "address"
            },
            {
              "components": [
                {
                  "internalType": "address",
                  "name": "token",
                  "type": "address"
                },
                {
                  "internalType": "uint256",
                  "name": "minAmount",
                  "type": "uint256"
                }
              ],
              "internalType": "struct AsksDataStorage.TokenGate",
              "name": "tokenGate",
              "type": "tuple"
            },
            {
              "components": [
                {
                  "internalType": "uint16",
                  "name": "listingFeeBps",
                  "type": "uint16"
                },
                {
                  "internalType": "address",
                  "name": "listingFeeRecipient",
                  "type": "address"
                }
              ],
              "internalType": "struct AsksDataStorage.ListingFee",
              "name": "listingFee",
              "type": "tuple"
            }
          ],
          "indexed": false,
          "internalType": "struct AsksDataStorage.FullAsk",
          "name": "ask",
          "type": "tuple"
        }
      ],
      "name": "AskFilled",
      "type": "event"
    },
    {
      "anonymous": false,
      "inputs": [
        {
          "indexed": true,
          "internalType": "address",
          "name": "tokenContract",
          "type": "address"
        },
        {
          "indexed": true,
          "internalType": "uint256",
          "name": "tokenId",
          "type": "uint256"
        },
        {
          "components": [
            {
              "internalType": "uint256",
              "name": "price",
              "type": "uint256"
            },
            {
              "internalType": "address",
              "name": "seller",
              "type": "address"
            },
            {
              "internalType": "uint96",
              "name": "expiry",
              "type": "uint96"
            },
            {
              "internalType": "address",
              "name": "sellerFundsRecipient",
              "type": "address"
            },
            {
              "internalType": "uint16",
              "name": "findersFeeBps",
              "type": "uint16"
            },
            {
              "internalType": "address",
              "name": "currency",
              "type": "address"
            },
            {
              "internalType": "address",
              "name": "buyer",
              "type": "address"
            },
            {
              "components": [
                {
                  "internalType": "address",
                  "name": "token",
                  "type": "address"
                },
                {
                  "internalType": "uint256",
                  "name": "minAmount",
                  "type": "uint256"
                }
              ],
              "internalType": "struct AsksDataStorage.TokenGate",
              "name": "tokenGate",
              "type": "tuple"
            },
            {
              "components": [
                {
                  "internalType": "uint16",
                  "name": "listingFeeBps",
                  "type": "uint16"
                },
                {
                  "internalType": "address",
                  "name": "listingFeeRecipient",
                  "type": "address"
                }
              ],
              "internalType": "struct AsksDataStorage.ListingFee",
              "name": "listingFee",
              "type": "tuple"
            }
          ],
          "indexed": false,
          "internalType": "struct AsksDataStorage.FullAsk",
          "name": "ask",
          "type": "tuple"
        }
      ],
      "name": "AskPriceUpdated",
      "type": "event"
    },
    {
      "anonymous": false,
      "inputs": [
        {
          "indexed": true,
          "internalType": "address",
          "name": "tokenContract",
          "type": "address"
        },
        {
          "indexed": true,
          "internalType": "uint256",
          "name": "tokenId",
          "type": "uint256"
        },
        {
          "indexed": false,
          "internalType": "address",
          "name": "recipient",
          "type": "address"
        },
        {
          "indexed": false,
          "internalType": "uint256",
          "name": "amount",
          "type": "uint256"
        }
      ],
      "name": "RoyaltyPayout",
      "type": "event"
    },
    {
      "inputs": [
        {
          "internalType": "address",
          "name": "_tokenContract",
          "type": "address"
        },
        {
          "internalType": "uint256",
          "name": "_tokenId",
          "type": "uint256"
        },
        {
          "internalType": "uint256",
          "name": "_amount",
          "type": "uint256"
        },
        {
          "internalType": "address",
          "name": "_payoutCurrency",
          "type": "address"
        }
      ],
      "name": "_handleRoyaltyEnginePayout",
      "outputs": [
        {
          "internalType": "uint256",
          "name": "",
          "type": "uint256"
        }
      ],
      "stateMutability": "payable",
      "type": "function"
    },
    {
      "inputs": [
        {
          "internalType": "address",
          "name": "",
          "type": "address"
        },
        {
          "internalType": "uint256",
          "name": "",
          "type": "uint256"
        }
      ],
      "name": "askForNFT",
      "outputs": [
        {
          "internalType": "uint256",
          "name": "price",
          "type": "uint256"
        },
        {
          "internalType": "address",
          "name": "seller",
          "type": "address"
        },
        {
          "internalType": "uint32",
          "name": "features",
          "type": "uint32"
        }
      ],
      "stateMutability": "view",
      "type": "function"
    },
    {
      "inputs": [
        {
          "internalType": "address",
          "name": "_tokenContract",
          "type": "address"
        },
        {
          "internalType": "uint256",
          "name": "_tokenId",
          "type": "uint256"
        }
      ],
      "name": "cancelAsk",
      "outputs": [],
      "stateMutability": "nonpayable",
      "type": "function"
    },
    {
      "inputs": [
        {
          "internalType": "address",
          "name": "_tokenContract",
          "type": "address"
        },
        {
          "internalType": "uint256",
          "name": "_tokenId",
          "type": "uint256"
        },
        {
          "internalType": "uint96",
          "name": "_expiry",
          "type": "uint96"
        },
        {
          "internalType": "uint256",
          "name": "_askPrice",
          "type": "uint256"
        },
        {
          "internalType": "address",
          "name": "_sellerFundsRecipient",
          "type": "address"
        },
        {
          "internalType": "address",
          "name": "_askCurrency",
          "type": "address"
        },
        {
          "internalType": "address",
          "name": "_buyer",
          "type": "address"
        },
        {
          "internalType": "uint16",
          "name": "_findersFeeBps",
          "type": "uint16"
        },
        {
          "components": [
            {
              "internalType": "uint16",
              "name": "listingFeeBps",
              "type": "uint16"
            },
            {
              "internalType": "address",
              "name": "listingFeeRecipient",
              "type": "address"
            }
          ],
          "internalType": "struct AsksDataStorage.ListingFee",
          "name": "_listingFee",
          "type": "tuple"
        },
        {
          "components": [
            {
              "internalType": "address",
              "name": "token",
              "type": "address"
            },
            {
              "internalType": "uint256",
              "name": "minAmount",
              "type": "uint256"
            }
          ],
          "internalType": "struct AsksDataStorage.TokenGate",
          "name": "_tokenGate",
          "type": "tuple"
        }
      ],
      "name": "createAsk",
      "outputs": [],
      "stateMutability": "nonpayable",
      "type": "function"
    },
    {
      "inputs": [
        {
          "internalType": "address",
          "name": "_tokenContract",
          "type": "address"
        },
        {
          "internalType": "uint256",
          "name": "_tokenId",
          "type": "uint256"
        },
        {
          "internalType": "uint256",
          "name": "_askPrice",
          "type": "uint256"
        }
      ],
      "name": "createAskMinimal",
      "outputs": [],
      "stateMutability": "nonpayable",
      "type": "function"
    },
    {
      "inputs": [],
      "name": "erc20TransferHelper",
      "outputs": [
        {
          "internalType": "contract ERC20TransferHelper",
          "name": "",
          "type": "address"
        }
      ],
      "stateMutability": "view",
      "type": "function"
    },
    {
      "inputs": [],
      "name": "erc721TransferHelper",
      "outputs": [
        {
          "internalType": "contract ERC721TransferHelper",
          "name": "",
          "type": "address"
        }
      ],
      "stateMutability": "view",
      "type": "function"
    },
    {
      "inputs": [
        {
          "internalType": "address",
          "name": "_tokenContract",
          "type": "address"
        },
        {
          "internalType": "uint256",
          "name": "_tokenId",
          "type": "uint256"
        },
        {
          "internalType": "uint256",
          "name": "_price",
          "type": "uint256"
        },
        {
          "internalType": "address",
          "name": "_currency",
          "type": "address"
        },
        {
          "internalType": "address",
          "name": "_finder",
          "type": "address"
        }
      ],
      "name": "fillAsk",
      "outputs": [],
      "stateMutability": "payable",
      "type": "function"
    },
    {
      "inputs": [
        {
          "internalType": "address",
          "name": "_tokenContract",
          "type": "address"
        },
        {
          "internalType": "uint256",
          "name": "_tokenId",
          "type": "uint256"
        }
      ],
      "name": "getFullAsk",
      "outputs": [
        {
          "components": [
            {
              "internalType": "uint256",
              "name": "price",
              "type": "uint256"
            },
            {
              "internalType": "address",
              "name": "seller",
              "type": "address"
            },
            {
              "internalType": "uint96",
              "name": "expiry",
              "type": "uint96"
            },
            {
              "internalType": "address",
              "name": "sellerFundsRecipient",
              "type": "address"
            },
            {
              "internalType": "uint16",
              "name": "findersFeeBps",
              "type": "uint16"
            },
            {
              "internalType": "address",
              "name": "currency",
              "type": "address"
            },
            {
              "internalType": "address",
              "name": "buyer",
              "type": "address"
            },
            {
              "components": [
                {
                  "internalType": "address",
                  "name": "token",
                  "type": "address"
                },
                {
                  "internalType": "uint256",
                  "name": "minAmount",
                  "type": "uint256"
                }
              ],
              "internalType": "struct AsksDataStorage.TokenGate",
              "name": "tokenGate",
              "type": "tuple"
            },
            {
              "components": [
                {
                  "internalType": "uint16",
                  "name": "listingFeeBps",
                  "type": "uint16"
                },
                {
                  "internalType": "address",
                  "name": "listingFeeRecipient",
                  "type": "address"
                }
              ],
              "internalType": "struct AsksDataStorage.ListingFee",
              "name": "listingFee",
              "type": "tuple"
            }
          ],
          "internalType": "struct AsksDataStorage.FullAsk",
          "name": "",
          "type": "tuple"
        }
      ],
      "stateMutability": "view",
      "type": "function"
    },
    {
      "inputs": [],
      "name": "name",
      "outputs": [
        {
          "internalType": "string",
          "name": "",
          "type": "string"
        }
      ],
      "stateMutability": "view",
      "type": "function"
    },
    {
      "inputs": [],
      "name": "registrar",
      "outputs": [
        {
          "internalType": "address",
          "name": "",
          "type": "address"
        }
      ],
      "stateMutability": "view",
      "type": "function"
    },
    {
      "inputs": [
        {
          "internalType": "address",
          "name": "_tokenContract",
          "type": "address"
        },
        {
          "internalType": "uint256",
          "name": "_tokenId",
          "type": "uint256"
        },
        {
          "internalType": "uint256",
          "name": "_askPrice",
          "type": "uint256"
        },
        {
          "internalType": "address",
          "name": "_askCurrency",
          "type": "address"
        }
      ],
      "name": "setAskPrice",
      "outputs": [],
      "stateMutability": "nonpayable",
      "type": "function"
    },
    {
      "inputs": [
        {
          "internalType": "address",
          "name": "_royaltyEngine",
          "type": "address"
        }
      ],
      "name": "setRoyaltyEngineAddress",
      "outputs": [],
      "stateMutability": "nonpayable",
      "type": "function"
    },
    {
      "inputs": [
        {
          "internalType": "bytes4",
          "name": "_interfaceId",
          "type": "bytes4"
        }
      ],
      "name": "supportsInterface",
      "outputs": [
        {
          "internalType": "bool",
          "name": "",
          "type": "bool"
        }
      ],
      "stateMutability": "pure",
      "type": "function"
    }
  ],
  "bytecode": {
    "object": "0x61012060405260016000553480156200001757600080fd5b5060405162004875380380620048758339810160408190526200003a9162000262565b6040518060400160405280601e81526020017f526573657276652041756374696f6e204c697374696e67204552432d32300000815250838383876001600160a01b031663e3e606f06040518163ffffffff1660e01b8152600401602060405180830381865afa158015620000b2573d6000803e3d6000fd5b505050506040513d601f19601f82011682018060405250810190620000d89190620002e2565b6001600160a01b0316632b20e3976040518163ffffffff1660e01b8152600401602060405180830381865afa15801562000116573d6000803e3d6000fd5b505050506040513d601f19601f820116820180604052508101906200013c9190620002e2565b6001600160a01b038a811660805291821660a052600180546001600160a01b0319169483169490941790935590811660e0521660c052805162000187906002906020840190620001a3565b5050506001600160a01b03909216610100525062000346915050565b828054620001b19062000309565b90600052602060002090601f016020900481019282620001d5576000855562000220565b82601f10620001f057805160ff191683800117855562000220565b8280016001018555821562000220579182015b828111156200022057825182559160200191906001019062000203565b506200022e92915062000232565b5090565b5b808211156200022e576000815560010162000233565b6001600160a01b03811681146200025f57600080fd5b50565b600080600080600060a086880312156200027b57600080fd5b8551620002888162000249565b60208701519095506200029b8162000249565b6040870151909450620002ae8162000249565b6060870151909350620002c18162000249565b6080870151909250620002d48162000249565b809150509295509295909350565b600060208284031215620002f557600080fd5b8151620003028162000249565b9392505050565b600181811c908216806200031e57607f821691505b602082108114156200034057634e487b7160e01b600052602260045260246000fd5b50919050565b60805160a05160c05160e051610100516144ab620003ca6000396000818161038601528181610bd801528181611494015281816115bf01528181611f5e0152612089015260008181612e380152612ee401526000818161014b0152611b670152600081816130e6015261317e0152600081816102d10152612b2d01526144ab6000f3fe6080604052600436106100dd5760003560e01c8063824156331161007f578063b200753311610059578063b200753314610314578063b249bb3014610334578063ba906fa414610354578063f7cd1d9b1461037457600080fd5b8063824156331461029f5780638f9d3251146102bf5780639128c22c146102f357600080fd5b80633b76861a116100bb5780633b76861a1461019257806340b80746146101a7578063418f0656146101c75780636e6ba9161461027257600080fd5b806301ffc9a7146100e257806306fdde03146101175780632b20e39714610139575b600080fd5b3480156100ee57600080fd5b506101026100fd366004613b60565b6103a8565b60405190151581526020015b60405180910390f35b34801561012357600080fd5b5061012c610441565b60405161010e9190613bce565b34801561014557600080fd5b5061016d7f000000000000000000000000000000000000000000000000000000000000000081565b60405173ffffffffffffffffffffffffffffffffffffffff909116815260200161010e565b6101a56101a0366004613c44565b6104cf565b005b3480156101b357600080fd5b506101a56101c2366004613ca3565b610d12565b3480156101d357600080fd5b5061023c6101e2366004613ca3565b60036020908152600092835260408084209091529082529020805460019091015473ffffffffffffffffffffffffffffffffffffffff81169074010000000000000000000000000000000000000000900463ffffffff1683565b6040805193845273ffffffffffffffffffffffffffffffffffffffff909216602084015263ffffffff169082015260600161010e565b34801561027e57600080fd5b5061029261028d366004613ca3565b61119c565b60405161010e9190613e00565b3480156102ab57600080fd5b506101a56102ba366004613e0f565b611247565b3480156102cb57600080fd5b5061016d7f000000000000000000000000000000000000000000000000000000000000000081565b610306610301366004613e44565b61174b565b60405190815260200161010e565b34801561032057600080fd5b506101a561032f366004613e44565b6119ee565b34801561034057600080fd5b506101a561034f366004613e8e565b611b4f565b34801561036057600080fd5b506101a561036f366004613fdf565b611d11565b34801561038057600080fd5b5061016d7f000000000000000000000000000000000000000000000000000000000000000081565b60007fffffffff0000000000000000000000000000000000000000000000000000000082167ff11fcdf800000000000000000000000000000000000000000000000000000000148061043b57507f01ffc9a7000000000000000000000000000000000000000000000000000000007fffffffff000000000000000000000000000000000000000000000000000000008316145b92915050565b6002805461044e906140aa565b80601f016020809104026020016040519081016040528092919081815260200182805461047a906140aa565b80156104c75780601f1061049c576101008083540402835291602001916104c7565b820191906000526020600020905b8154815290600101906020018083116104aa57829003601f168201915b505050505081565b600054600114610540576040517f08c379a000000000000000000000000000000000000000000000000000000000815260206004820152600a60248201527f5245454e5452414e43590000000000000000000000000000000000000000000060448201526064015b60405180910390fd5b6002600090815573ffffffffffffffffffffffffffffffffffffffff80871682526003602090815260408084208885529091529091206001810154909116806105e5576040517f08c379a000000000000000000000000000000000000000000000000000000000815260206004820152600c60248201527f494e4143544956455f41534b00000000000000000000000000000000000000006044820152606401610537565b8154858114610650576040517f08c379a000000000000000000000000000000000000000000000000000000000815260206004820152601060248201527f4d5553545f4d415443485f5052494345000000000000000000000000000000006044820152606401610537565b600061065b8461288e565b90508073ffffffffffffffffffffffffffffffffffffffff168673ffffffffffffffffffffffffffffffffffffffff16146106f2576040517f08c379a000000000000000000000000000000000000000000000000000000000815260206004820152601360248201527f4d5553545f4d415443485f43555252454e4359000000000000000000000000006044820152606401610537565b600184015473ffffffffffffffffffffffffffffffffffffffff811690608074010000000000000000000000000000000000000000909104811614156107c8575060806000908152600285016020526040902054606081901c9081426bffffffffffffffffffffffff831610156107c5576040517f08c379a000000000000000000000000000000000000000000000000000000000815260206004820152600f60248201527f41736b20686173206578706972656400000000000000000000000000000000006044820152606401610537565b50505b6001850154604074010000000000000000000000000000000000000000909104811614156109005760006107fb866128d7565b602081015181516040517f70a08231000000000000000000000000000000000000000000000000000000008152336004820152929350909173ffffffffffffffffffffffffffffffffffffffff909116906370a0823190602401602060405180830381865afa158015610872573d6000803e3d6000fd5b505050506040513d601f19601f8201168201806040525081019061089691906140fe565b10156108fe576040517f08c379a000000000000000000000000000000000000000000000000000000000815260206004820152601860248201527f546f6b656e2067617465206e6f742073617469736669656400000000000000006044820152606401610537565b505b600185015461010074010000000000000000000000000000000000000000909104811614156109eb5761093285612944565b73ffffffffffffffffffffffffffffffffffffffff163373ffffffffffffffffffffffffffffffffffffffff16146109eb576040517f08c379a0000000000000000000000000000000000000000000000000000000008152602060048201526024808201527f41736b20697320726573657276656420666f722061207370656369666963206260448201527f75796572000000000000000000000000000000000000000000000000000000006064820152608401610537565b6109f58383612990565b6000610a078b8b8686620493e0612ce3565b509050610a148184612de9565b600187015490915060087401000000000000000000000000000000000000000090910481161415610b7057604080518082018252600080825260209182018190526008815260028901825282812054835180850190945261ffff8116845260101c73ffffffffffffffffffffffffffffffffffffffff1691830191909152506000612710826000015161ffff1684610aac9190614146565b610ab69190614183565b9050610aca8260200151828761c350612f87565b73ffffffffffffffffffffffffffffffffffffffff891615801590610b0e575060018801546010740100000000000000000000000000000000000000009091048116145b15610b61576010600090815260028901602052604081205490612710610b3861ffff841687614146565b610b429190614183565b9050610b528b828961c350612f87565b610b5c81866141be565b945050505b610b6b81846141be565b925050505b610b7e82828561c350612f87565b6040517f15dacbea00000000000000000000000000000000000000000000000000000000815273ffffffffffffffffffffffffffffffffffffffff8c811660048301528681166024830152336044830152606482018c90527f000000000000000000000000000000000000000000000000000000000000000016906315dacbea90608401600060405180830381600087803b158015610c1c57600080fd5b505af1158015610c30573d6000803e3d6000fd5b505050503373ffffffffffffffffffffffffffffffffffffffff168a8c73ffffffffffffffffffffffffffffffffffffffff167fcc34dfb1d3f33a56f1f17b987e65a4d1a6256ee487ffa273784999a7986d501f8a610c8e8b6131d7565b604051610c9c9291906141d5565b60405180910390a450505073ffffffffffffffffffffffffffffffffffffffff9097166000908152600360209081526040808320988352979052958620868155600190810180547fffffffffffffffff000000000000000000000000000000000000000000000000169055909555505050505050565b600054600114610d7e576040517f08c379a000000000000000000000000000000000000000000000000000000000815260206004820152600a60248201527f5245454e5452414e4359000000000000000000000000000000000000000000006044820152606401610537565b6002600090815573ffffffffffffffffffffffffffffffffffffffff83811682526003602090815260408084208585529091529091206001810154909116331480610e8257506040517f6352211e0000000000000000000000000000000000000000000000000000000081526004810183905273ffffffffffffffffffffffffffffffffffffffff841690636352211e90602401602060405180830381865afa158015610e2f573d6000803e3d6000fd5b505050506040513d601f19601f82011682018060405250810190610e539190614200565b73ffffffffffffffffffffffffffffffffffffffff163373ffffffffffffffffffffffffffffffffffffffff16145b80610f24575060018101546040517fe985e9c500000000000000000000000000000000000000000000000000000000815273ffffffffffffffffffffffffffffffffffffffff91821660048201523360248201529084169063e985e9c590604401602060405180830381865afa158015610f00573d6000803e3d6000fd5b505050506040513d601f19601f82011682018060405250810190610f24919061421d565b8061105457506040517f6352211e0000000000000000000000000000000000000000000000000000000081526004810183905273ffffffffffffffffffffffffffffffffffffffff84169063e985e9c5908290636352211e90602401602060405180830381865afa158015610f9d573d6000803e3d6000fd5b505050506040513d601f19601f82011682018060405250810190610fc19190614200565b6040517fffffffff0000000000000000000000000000000000000000000000000000000060e084901b16815273ffffffffffffffffffffffffffffffffffffffff9091166004820152336024820152604401602060405180830381865afa158015611030573d6000803e3d6000fd5b505050506040513d601f19601f82011682018060405250810190611054919061421d565b6110e0576040517f08c379a000000000000000000000000000000000000000000000000000000000815260206004820152602660248201527f4f4e4c595f53454c4c45525f4f525f4f50455241544f525f4f525f544f4b454e60448201527f5f4f574e455200000000000000000000000000000000000000000000000000006064820152608401610537565b818373ffffffffffffffffffffffffffffffffffffffff167ffd44841d0edd84be8f071329c23fe7930f375bdb9e9fd03c1e056caa9ce910d2611122846131d7565b60405161112f9190613e00565b60405180910390a35073ffffffffffffffffffffffffffffffffffffffff9091166000908152600360209081526040808320938352929052908120818155600190810180547fffffffffffffffff0000000000000000000000000000000000000000000000001690559055565b611206604080516101208101825260008082526020808301829052828401829052606083018290526080830182905260a0830182905260c083018290528351808501855282815280820183905260e084015283518085019094528184528301529061010082015290565b73ffffffffffffffffffffffffffffffffffffffff83166000908152600360209081526040808320858452909152902061123f816131d7565b949350505050565b6000546001146112b3576040517f08c379a000000000000000000000000000000000000000000000000000000000815260206004820152600a60248201527f5245454e5452414e4359000000000000000000000000000000000000000000006044820152606401610537565b600260009081556040517f6352211e0000000000000000000000000000000000000000000000000000000081526004810184905273ffffffffffffffffffffffffffffffffffffffff851690636352211e90602401602060405180830381865afa158015611325573d6000803e3d6000fd5b505050506040513d601f19601f820116820180604052508101906113499190614200565b90503373ffffffffffffffffffffffffffffffffffffffff8216148061140057506040517fe985e9c500000000000000000000000000000000000000000000000000000000815273ffffffffffffffffffffffffffffffffffffffff828116600483015233602483015285169063e985e9c590604401602060405180830381865afa1580156113dc573d6000803e3d6000fd5b505050506040513d601f19601f82011682018060405250810190611400919061421d565b611466576040517f08c379a000000000000000000000000000000000000000000000000000000000815260206004820152601c60248201527f4f4e4c595f544f4b454e5f4f574e45525f4f525f4f50455241544f52000000006044820152606401610537565b6040517f72d276920000000000000000000000000000000000000000000000000000000081523360048201527f000000000000000000000000000000000000000000000000000000000000000073ffffffffffffffffffffffffffffffffffffffff16906372d2769290602401602060405180830381865afa1580156114f0573d6000803e3d6000fd5b505050506040513d601f19601f82011682018060405250810190611514919061421d565b61157a576040517f08c379a000000000000000000000000000000000000000000000000000000000815260206004820152601360248201527f4d4f44554c455f4e4f545f415050524f564544000000000000000000000000006044820152606401610537565b6040517fe985e9c500000000000000000000000000000000000000000000000000000000815273ffffffffffffffffffffffffffffffffffffffff82811660048301527f00000000000000000000000000000000000000000000000000000000000000008116602483015285169063e985e9c590604401602060405180830381865afa15801561160e573d6000803e3d6000fd5b505050506040513d601f19601f82011682018060405250810190611632919061421d565b611698576040517f08c379a000000000000000000000000000000000000000000000000000000000815260206004820152601c60248201527f5452414e534645525f48454c5045525f4e4f545f415050524f564544000000006044820152606401610537565b73ffffffffffffffffffffffffffffffffffffffff848116600081815260036020908152604080832088845290915290206001810180547fffffffffffffffff000000000000000000000000000000000000000000000000169385169390931790925583825584907f76aaa7ded1f42d881a462cab0adeaf6bbbb1d50f77b1b0730b20eabb9d06c37561172a846131d7565b6040516117379190613e00565b60405180910390a350506001600055505050565b60003330146117dc576040517f08c379a000000000000000000000000000000000000000000000000000000000815260206004820152602d60248201527f5f68616e646c65526f79616c7479456e67696e655061796f7574206f6e6c792060448201527f73656c662063616c6c61626c65000000000000000000000000000000000000006064820152608401610537565b6001546040517ff533b80200000000000000000000000000000000000000000000000000000000815273ffffffffffffffffffffffffffffffffffffffff87811660048301526024820187905260448201869052600092839291169063f533b802906064016000604051808303816000875af1158015611860573d6000803e3d6000fd5b505050506040513d6000823e601f3d9081017fffffffffffffffffffffffffffffffffffffffffffffffffffffffffffffffe01682016040526118a691908101906142ce565b81519193509150806118bd5785935050505061123f565b85600080805b848110156119de578681815181106118dd576118dd614393565b602002602001015192508581815181106118f9576118f9614393565b602002602001015191508184101561196d576040517f08c379a000000000000000000000000000000000000000000000000000000000815260206004820152600960248201527f696e736f6c76656e7400000000000000000000000000000000000000000000006044820152606401610537565b61197b83838b61c350612f87565b6040805173ffffffffffffffffffffffffffffffffffffffff8581168252602082018590528d92908f16917f866e6ef8682ddf5f1025e64dfdb45527077f7be70fa9ef680b7ffd8cf4ab9c50910160405180910390a392819003926001016118c3565b50919a9950505050505050505050565b600054600114611a5a576040517f08c379a000000000000000000000000000000000000000000000000000000000815260206004820152600a60248201527f5245454e5452414e4359000000000000000000000000000000000000000000006044820152606401610537565b6002600090815573ffffffffffffffffffffffffffffffffffffffff808616825260036020908152604080842087855290915290912060018101549091163314611b00576040517f08c379a000000000000000000000000000000000000000000000000000000000815260206004820152601a60248201527f73657441736b5072696365206d7573742062652073656c6c65720000000000006044820152606401610537565b828155611b0d8183613498565b838573ffffffffffffffffffffffffffffffffffffffff167f2fe483dbefaddedaaa7a6cadb44d60009fbc61e22e8806b5fe6b124dd778fea861172a846131d7565b3373ffffffffffffffffffffffffffffffffffffffff7f00000000000000000000000000000000000000000000000000000000000000001614611c14576040517f08c379a000000000000000000000000000000000000000000000000000000000815260206004820152602660248201527f736574526f79616c7479456e67696e6541646472657373206f6e6c792072656760448201527f69737472617200000000000000000000000000000000000000000000000000006064820152608401610537565b611c3e817fcb23f816000000000000000000000000000000000000000000000000000000006135f5565b611cca576040517f08c379a000000000000000000000000000000000000000000000000000000000815260206004820152603d60248201527f736574526f79616c7479456e67696e6541646472657373206d757374206d617460448201527f63682049526f79616c7479456e67696e65563120696e746572666163650000006064820152608401610537565b600180547fffffffffffffffffffffffff00000000000000000000000000000000000000001673ffffffffffffffffffffffffffffffffffffffff92909216919091179055565b600054600114611d7d576040517f08c379a000000000000000000000000000000000000000000000000000000000815260206004820152600a60248201527f5245454e5452414e4359000000000000000000000000000000000000000000006044820152606401610537565b600260009081556040517f6352211e000000000000000000000000000000000000000000000000000000008152600481018b905273ffffffffffffffffffffffffffffffffffffffff8c1690636352211e90602401602060405180830381865afa158015611def573d6000803e3d6000fd5b505050506040513d601f19601f82011682018060405250810190611e139190614200565b90503373ffffffffffffffffffffffffffffffffffffffff82161480611eca57506040517fe985e9c500000000000000000000000000000000000000000000000000000000815273ffffffffffffffffffffffffffffffffffffffff82811660048301523360248301528c169063e985e9c590604401602060405180830381865afa158015611ea6573d6000803e3d6000fd5b505050506040513d601f19601f82011682018060405250810190611eca919061421d565b611f30576040517f08c379a000000000000000000000000000000000000000000000000000000000815260206004820152601c60248201527f4f4e4c595f544f4b454e5f4f574e45525f4f525f4f50455241544f52000000006044820152606401610537565b6040517f72d276920000000000000000000000000000000000000000000000000000000081523360048201527f000000000000000000000000000000000000000000000000000000000000000073ffffffffffffffffffffffffffffffffffffffff16906372d2769290602401602060405180830381865afa158015611fba573d6000803e3d6000fd5b505050506040513d601f19601f82011682018060405250810190611fde919061421d565b612044576040517f08c379a000000000000000000000000000000000000000000000000000000000815260206004820152601360248201527f4d4f44554c455f4e4f545f415050524f564544000000000000000000000000006044820152606401610537565b6040517fe985e9c500000000000000000000000000000000000000000000000000000000815273ffffffffffffffffffffffffffffffffffffffff82811660048301527f0000000000000000000000000000000000000000000000000000000000000000811660248301528c169063e985e9c590604401602060405180830381865afa1580156120d8573d6000803e3d6000fd5b505050506040513d601f19601f820116820180604052508101906120fc919061421d565b612162576040517f08c379a000000000000000000000000000000000000000000000000000000000815260206004820152601c60248201527f5452414e534645525f48454c5045525f4e4f545f415050524f564544000000006044820152606401610537565b73ffffffffffffffffffffffffffffffffffffffff8b1660009081526003602090815260408083208d845290915290206001810180547fffffffffffffffff00000000ffffffffffffffffffffffffffffffffffffffff169055835161ffff16156122d357612710846000015161ffff16111561223b576040517f08c379a000000000000000000000000000000000000000000000000000000000815260206004820152601360248201527f494e56414c49445f4c495354494e475f464545000000000000000000000000006044820152606401610537565b83516020808601516001840180547fffffffffffffffff00000000ffffffffffffffffffffffffffffffffffffffff81166008740100000000000000000000000000000000000000009283900463ffffffff16811790920217909155600090815260028501909252604090912060109190911b75ffffffffffffffffffffffffffffffffffffffff00001661ffff9092169190911790555b61ffff851615612481576127108561ffff161115612373576040517f08c379a000000000000000000000000000000000000000000000000000000000815260206004820152603d60248201527f63726561746541736b2066696e646572732066656520627073206d757374206260448201527f65206c657373207468616e206f7220657175616c20746f2031303030300000006064820152608401610537565b83516127109061238390876143c2565b61ffff161115612415576040517f08c379a000000000000000000000000000000000000000000000000000000000815260206004820152603d60248201527f6c697374696e6746656520616e642066696e64657273466565206d757374206260448201527f65206c657373207468616e206f7220657175616c20746f2031303030300000006064820152608401610537565b6001810180547fffffffffffffffff00000000ffffffffffffffffffffffffffffffffffffffff81166010740100000000000000000000000000000000000000009283900463ffffffff168117909202179091556000908152600282016020526040902061ffff861690555b825173ffffffffffffffffffffffffffffffffffffffff161561251f57600083602001511161250c576040517f08c379a000000000000000000000000000000000000000000000000000000000815260206004820152601360248201527f4d696e20616d742063616e6e6f742062652030000000000000000000000000006044820152606401610537565b61251f8184600001518560200151613618565b60008a6bffffffffffffffffffffffff161180612588575073ffffffffffffffffffffffffffffffffffffffff88161580159061258857508173ffffffffffffffffffffffffffffffffffffffff168873ffffffffffffffffffffffffffffffffffffffff1614155b156126b9576bffffffffffffffffffffffff8a1615806125b55750428a6bffffffffffffffffffffffff16115b61261b576040517f08c379a000000000000000000000000000000000000000000000000000000000815260206004820152601c60248201527f457870697279206d75737420626520696e2074686520667574757265000000006044820152606401610537565b6001810180547fffffffffffffffff00000000ffffffffffffffffffffffffffffffffffffffff81166080740100000000000000000000000000000000000000009283900463ffffffff1681179092021790915560009081526002820160205260409020606089901b7fffffffffffffffffffffffffffffffffffffffff000000000000000000000000166bffffffffffffffffffffffff8c161790555b73ffffffffffffffffffffffffffffffffffffffff871615612753576001810180547fffffffffffffffff00000000ffffffffffffffffffffffffffffffffffffffff81166020740100000000000000000000000000000000000000009283900463ffffffff168117909202179091556000818152600283019091526040902073ffffffffffffffffffffffffffffffffffffffff881690555b73ffffffffffffffffffffffffffffffffffffffff8616156127ee576001810180547fffffffffffffffff00000000ffffffffffffffffffffffffffffffffffffffff8116610100740100000000000000000000000000000000000000009283900463ffffffff168117909202179091556000908152600282016020526040902073ffffffffffffffffffffffffffffffffffffffff871690555b6001810180547fffffffffffffffffffffffff00000000000000000000000000000000000000001673ffffffffffffffffffffffffffffffffffffffff848116919091179091558982558b908d167f76aaa7ded1f42d881a462cab0adeaf6bbbb1d50f77b1b0730b20eabb9d06c375612866846131d7565b6040516128739190613e00565b60405180910390a35050600160005550505050505050505050565b60018101546000906020740100000000000000000000000000000000000000009091048116146128c057506000919050565b506020600081815260029092019052604090205490565b6040805180820190915260008082526020820152604060008181526002840160208190528282205473ffffffffffffffffffffffffffffffffffffffff168452916129239060016143e8565b63ffffffff1681526020808201929092526040016000205490820152919050565b60018101546000906101007401000000000000000000000000000000000000000090910481161461297757506000919050565b5061010060009081526002909101602052604090205490565b73ffffffffffffffffffffffffffffffffffffffff8116612a3f5781341015612a3b576040517f08c379a000000000000000000000000000000000000000000000000000000000815260206004820152603b60248201527f5f68616e646c65496e636f6d696e675472616e73666572206d73672076616c7560448201527f65206c657373207468616e20657870656374656420616d6f756e7400000000006064820152608401610537565b5050565b6040517f70a08231000000000000000000000000000000000000000000000000000000008152306004820152819060009073ffffffffffffffffffffffffffffffffffffffff8316906370a0823190602401602060405180830381865afa158015612aae573d6000803e3d6000fd5b505050506040513d601f19601f82011682018060405250810190612ad291906140fe565b6040517fd9fc4b6100000000000000000000000000000000000000000000000000000000815273ffffffffffffffffffffffffffffffffffffffff8581166004830152336024830152306044830152606482018790529192507f00000000000000000000000000000000000000000000000000000000000000009091169063d9fc4b6190608401600060405180830381600087803b158015612b7357600080fd5b505af1158015612b87573d6000803e3d6000fd5b50506040517f70a082310000000000000000000000000000000000000000000000000000000081523060048201526000925073ffffffffffffffffffffffffffffffffffffffff851691506370a0823190602401602060405180830381865afa158015612bf8573d6000803e3d6000fd5b505050506040513d601f19601f82011682018060405250810190612c1c91906140fe565b905080612c298684614407565b14612cdc576040517f08c379a000000000000000000000000000000000000000000000000000000000815260206004820152604c60248201527f5f68616e646c65496e636f6d696e675472616e7366657220746f6b656e20747260448201527f616e736665722063616c6c20646964206e6f74207472616e736665722065787060648201527f656374656420616d6f756e740000000000000000000000000000000000000000608482015260a401610537565b5050505050565b60008080831580612cf357505a84115b612cfd5783612cff565b5a5b6040517f9128c22c00000000000000000000000000000000000000000000000000000000815273ffffffffffffffffffffffffffffffffffffffff808b166004830152602482018a905260448201899052871660648201529091503090639128c22c90839060840160206040518083038160008887f193505050508015612dc1575060408051601f3d9081017fffffffffffffffffffffffffffffffffffffffffffffffffffffffffffffffe0168201909252612dbe918101906140fe565b60015b612dd2578560009250925050612ddf565b925060019150612ddf9050565b9550959350505050565b6040517f61b485f600000000000000000000000000000000000000000000000000000000815230600482015260248101839052600090819073ffffffffffffffffffffffffffffffffffffffff7f000000000000000000000000000000000000000000000000000000000000000016906361b485f690604401602060405180830381865afa158015612e7f573d6000803e3d6000fd5b505050506040513d601f19601f82011682018060405250810190612ea391906140fe565b905080612eb3578391505061043b565b6040517f86ab6fb90000000000000000000000000000000000000000000000000000000081523060048201526000907f000000000000000000000000000000000000000000000000000000000000000073ffffffffffffffffffffffffffffffffffffffff16906386ab6fb9906024016040805180830381865afa158015612f3f573d6000803e3d6000fd5b505050506040513d601f19601f82011682018060405250810190612f63919061441f565b915050612f7481838661c350612f87565b612f7e82866141be565b95945050505050565b821580612fa8575073ffffffffffffffffffffffffffffffffffffffff8416155b15612fb2576131d1565b73ffffffffffffffffffffffffffffffffffffffff82166131b0578247101561305d576040517f08c379a000000000000000000000000000000000000000000000000000000000815260206004820152602160248201527f5f68616e646c654f7574676f696e675472616e7366657220696e736f6c76656e60448201527f74000000000000000000000000000000000000000000000000000000000000006064820152608401610537565b600081158061306b57505a82115b6130755781613077565b5a5b905060008573ffffffffffffffffffffffffffffffffffffffff16858390604051600060405180830381858888f193505050503d80600081146130d6576040519150601f19603f3d011682016040523d82523d6000602084013e6130db565b606091505b50509050806131a9577f000000000000000000000000000000000000000000000000000000000000000073ffffffffffffffffffffffffffffffffffffffff1663d0e30db0866040518263ffffffff1660e01b81526004016000604051808303818588803b15801561314c57600080fd5b505af1158015613160573d6000803e3d6000fd5b506131a993505073ffffffffffffffffffffffffffffffffffffffff7f0000000000000000000000000000000000000000000000000000000000000000169150889050876136c0565b50506131d1565b6131d173ffffffffffffffffffffffffffffffffffffffff831685856136c0565b50505050565b613241604080516101208101825260008082526020808301829052828401829052606083018290526080830182905260a0830182905260c083018290528351808501855282815280820183905260e084015283518085019094528184528301529061010082015290565b600182015474010000000000000000000000000000000000000000900463ffffffff166132ce604080516101208101825260008082526020808301829052828401829052606083018290526080830182905260a0830182905260c083018290528351808501855282815280820183905260e084015283518085019094528184528301529061010082015290565b6132d78461288e565b73ffffffffffffffffffffffffffffffffffffffff1660a08201526132fb84612944565b73ffffffffffffffffffffffffffffffffffffffff1660c0820152604080831614156133305761332a846128d7565b60e08201525b6008808316141561339257604080518082018252600080825260209182018190526008815260028701825282902054825180840190935261ffff8116835260101c73ffffffffffffffffffffffffffffffffffffffff16908201526101008201525b601080831614156133ba576010600090815260028501602052604090205461ffff1660808201525b602080831614156133ea576133ce8461288e565b73ffffffffffffffffffffffffffffffffffffffff1660a08201525b6080808316141561343c5760806000908152600285016020526040902054606081901c73ffffffffffffffffffffffffffffffffffffffff1660608301526bffffffffffffffffffffffff1660408201525b610100808316141561346d5761345184612944565b73ffffffffffffffffffffffffffffffffffffffff1660c08201525b600184015473ffffffffffffffffffffffffffffffffffffffff166020820152925483525090919050565b73ffffffffffffffffffffffffffffffffffffffff81161580156134db575060018201546020740100000000000000000000000000000000000000009091048116145b15613530576001820180547fffffffffffffffff00000000ffffffffffffffffffffffffffffffffffffffff8116740100000000000000000000000000000000000000009182900463ffffffdf169091021790555b73ffffffffffffffffffffffffffffffffffffffff811615612a3b5760018201546020740100000000000000000000000000000000000000009091048116146135c6576001820180547fffffffffffffffff00000000ffffffffffffffffffffffffffffffffffffffff81166020740100000000000000000000000000000000000000009283900463ffffffff16179091021790555b60206000818152600284019091526040902073ffffffffffffffffffffffffffffffffffffffff821690555050565b600061360083613752565b8015613611575061361183836137b6565b9392505050565b600183810180547fffffffffffffffff00000000ffffffffffffffffffffffffffffffffffffffff81166040740100000000000000000000000000000000000000009283900463ffffffff16811790920217909155600081815260028601602081905282822073ffffffffffffffffffffffffffffffffffffffff87169055849390926136a4916143e8565b63ffffffff168152602081019190915260400160002055505050565b6040805173ffffffffffffffffffffffffffffffffffffffff8416602482015260448082018490528251808303909101815260649091019091526020810180517bffffffffffffffffffffffffffffffffffffffffffffffffffffffff167fa9059cbb0000000000000000000000000000000000000000000000000000000017905261374d9084906138f2565b505050565b600061377e827f01ffc9a7000000000000000000000000000000000000000000000000000000006137b6565b801561043b57506137af827fffffffff000000000000000000000000000000000000000000000000000000006137b6565b1592915050565b604080517fffffffff00000000000000000000000000000000000000000000000000000000831660248083019190915282518083039091018152604490910182526020810180517bffffffffffffffffffffffffffffffffffffffffffffffffffffffff167f01ffc9a7000000000000000000000000000000000000000000000000000000001790529051600091908290819073ffffffffffffffffffffffffffffffffffffffff87169061753090613870908690614459565b6000604051808303818686fa925050503d80600081146138ac576040519150601f19603f3d011682016040523d82523d6000602084013e6138b1565b606091505b50915091506020815110156138cc576000935050505061043b565b8180156138e85750808060200190518101906138e8919061421d565b9695505050505050565b6000613954826040518060400160405280602081526020017f5361666545524332303a206c6f772d6c6576656c2063616c6c206661696c65648152508573ffffffffffffffffffffffffffffffffffffffff166139fe9092919063ffffffff16565b80519091501561374d5780806020019051810190613972919061421d565b61374d576040517f08c379a000000000000000000000000000000000000000000000000000000000815260206004820152602a60248201527f5361666545524332303a204552433230206f7065726174696f6e20646964206e60448201527f6f742073756363656564000000000000000000000000000000000000000000006064820152608401610537565b606061123f84846000858573ffffffffffffffffffffffffffffffffffffffff85163b613a87576040517f08c379a000000000000000000000000000000000000000000000000000000000815260206004820152601d60248201527f416464726573733a2063616c6c20746f206e6f6e2d636f6e74726163740000006044820152606401610537565b6000808673ffffffffffffffffffffffffffffffffffffffff168587604051613ab09190614459565b60006040518083038185875af1925050503d8060008114613aed576040519150601f19603f3d011682016040523d82523d6000602084013e613af2565b606091505b5091509150613b02828286613b0d565b979650505050505050565b60608315613b1c575081613611565b825115613b2c5782518084602001fd5b816040517f08c379a00000000000000000000000000000000000000000000000000000000081526004016105379190613bce565b600060208284031215613b7257600080fd5b81357fffffffff000000000000000000000000000000000000000000000000000000008116811461361157600080fd5b60005b83811015613bbd578181015183820152602001613ba5565b838111156131d15750506000910152565b6020815260008251806020840152613bed816040850160208701613ba2565b601f017fffffffffffffffffffffffffffffffffffffffffffffffffffffffffffffffe0169190910160400192915050565b73ffffffffffffffffffffffffffffffffffffffff81168114613c4157600080fd5b50565b600080600080600060a08688031215613c5c57600080fd5b8535613c6781613c1f565b945060208601359350604086013592506060860135613c8581613c1f565b91506080860135613c9581613c1f565b809150509295509295909350565b60008060408385031215613cb657600080fd5b8235613cc181613c1f565b946020939093013593505050565b8051825273ffffffffffffffffffffffffffffffffffffffff60208201511660208301526bffffffffffffffffffffffff60408201511660408301526060810151613d32606084018273ffffffffffffffffffffffffffffffffffffffff169052565b506080810151613d48608084018261ffff169052565b5060a0810151613d7060a084018273ffffffffffffffffffffffffffffffffffffffff169052565b5060c0810151613d9860c084018273ffffffffffffffffffffffffffffffffffffffff169052565b5060e0810151613dcb60e0840182805173ffffffffffffffffffffffffffffffffffffffff168252602090810151910152565b506101000151805161ffff166101208301526020015173ffffffffffffffffffffffffffffffffffffffff1661014090910152565b610160810161043b8284613ccf565b600080600060608486031215613e2457600080fd5b8335613e2f81613c1f565b95602085013595506040909401359392505050565b60008060008060808587031215613e5a57600080fd5b8435613e6581613c1f565b935060208501359250604085013591506060850135613e8381613c1f565b939692955090935050565b600060208284031215613ea057600080fd5b813561361181613c1f565b61ffff81168114613c4157600080fd5b7f4e487b7100000000000000000000000000000000000000000000000000000000600052604160045260246000fd5b6040805190810167ffffffffffffffff81118282101715613f0d57613f0d613ebb565b60405290565b604051601f82017fffffffffffffffffffffffffffffffffffffffffffffffffffffffffffffffe016810167ffffffffffffffff81118282101715613f5a57613f5a613ebb565b604052919050565b600060408284031215613f7457600080fd5b613f7c613eea565b90508135613f8981613eab565b81526020820135613f9981613c1f565b602082015292915050565b600060408284031215613fb657600080fd5b613fbe613eea565b90508135613fcb81613c1f565b808252506020820135602082015292915050565b6000806000806000806000806000806101808b8d031215613fff57600080fd5b8a3561400a81613c1f565b995060208b0135985060408b01356bffffffffffffffffffffffff8116811461403257600080fd5b975060608b0135965060808b013561404981613c1f565b955060a08b013561405981613c1f565b945060c08b013561406981613c1f565b935060e08b013561407981613eab565b92506140898c6101008d01613f62565b91506140998c6101408d01613fa4565b90509295989b9194979a5092959850565b600181811c908216806140be57607f821691505b602082108114156140f8577f4e487b7100000000000000000000000000000000000000000000000000000000600052602260045260246000fd5b50919050565b60006020828403121561411057600080fd5b5051919050565b7f4e487b7100000000000000000000000000000000000000000000000000000000600052601160045260246000fd5b6000817fffffffffffffffffffffffffffffffffffffffffffffffffffffffffffffffff048311821515161561417e5761417e614117565b500290565b6000826141b9577f4e487b7100000000000000000000000000000000000000000000000000000000600052601260045260246000fd5b500490565b6000828210156141d0576141d0614117565b500390565b73ffffffffffffffffffffffffffffffffffffffff8316815261018081016136116020830184613ccf565b60006020828403121561421257600080fd5b815161361181613c1f565b60006020828403121561422f57600080fd5b8151801515811461361157600080fd5b600067ffffffffffffffff82111561425957614259613ebb565b5060051b60200190565b600082601f83011261427457600080fd5b815160206142896142848361423f565b613f13565b82815260059290921b840181019181810190868411156142a857600080fd5b8286015b848110156142c357805183529183019183016142ac565b509695505050505050565b600080604083850312156142e157600080fd5b825167ffffffffffffffff808211156142f957600080fd5b818501915085601f83011261430d57600080fd5b8151602061431d6142848361423f565b82815260059290921b8401810191818101908984111561433c57600080fd5b948201945b8386101561436357855161435481613c1f565b82529482019490820190614341565b9188015191965090935050508082111561437c57600080fd5b5061438985828601614263565b9150509250929050565b7f4e487b7100000000000000000000000000000000000000000000000000000000600052603260045260246000fd5b600061ffff8083168185168083038211156143df576143df614117565b01949350505050565b600063ffffffff8083168185168083038211156143df576143df614117565b6000821982111561441a5761441a614117565b500190565b6000806040838503121561443257600080fd5b825161443d81613eab565b602084015190925061444e81613c1f565b809150509250929050565b6000825161446b818460208701613ba2565b919091019291505056fea264697066735822122000d80cffdd55887880756a16f55fb6223ff0e1c1fe2deaf52418172b8e31def664736f6c634300080a0033",
    "linkReferences": {}
  },
  "methodIdentifiers": {
    "_handleRoyaltyEnginePayout(address,uint256,uint256,address)": "9128c22c",
    "askForNFT(address,uint256)": "418f0656",
    "cancelAsk(address,uint256)": "40b80746",
    "createAsk(address,uint256,uint96,uint256,address,address,address,uint16,(uint16,address),(address,uint256))": "ba906fa4",
    "createAskMinimal(address,uint256,uint256)": "82415633",
    "erc20TransferHelper()": "8f9d3251",
    "erc721TransferHelper()": "f7cd1d9b",
    "fillAsk(address,uint256,uint256,address,address)": "3b76861a",
    "getFullAsk(address,uint256)": "6e6ba916",
    "name()": "06fdde03",
    "registrar()": "2b20e397",
    "setAskPrice(address,uint256,uint256,address)": "b2007533",
    "setRoyaltyEngineAddress(address)": "b249bb30",
    "supportsInterface(bytes4)": "01ffc9a7"
  },
  "id": 34
}