{
  "abi": [
    {
      "inputs": [],
      "name": "SUPERRARE_REGISTRY",
      "outputs": [
        {
          "internalType": "address",
          "name": "",
          "type": "address"
        }
      ],
      "stateMutability": "view",
      "type": "function"
    },
    {
      "inputs": [],
      "name": "SUPERRARE_V1",
      "outputs": [
        {
          "internalType": "address",
          "name": "",
          "type": "address"
        }
      ],
      "stateMutability": "view",
      "type": "function"
    },
    {
      "inputs": [],
      "name": "SUPERRARE_V2",
      "outputs": [
        {
          "internalType": "address",
          "name": "",
          "type": "address"
        }
      ],
      "stateMutability": "view",
      "type": "function"
    }
  ],
  "bytecode": {
    "object": "0x60f9610039600b82828239805160001a60731461002c57634e487b7160e01b600052600060045260246000fd5b30600052607381538281f3fe730000000000000000000000000000000000000000301460806040526004361060475760003560e01c806389f796ba14604c578063d236782314608f578063f19312ff1460a9575b600080fd5b606673b932a70a57673d89f4acffbe830e8ed7f75fb9e081565b60405173ffffffffffffffffffffffffffffffffffffffff909116815260200160405180910390f35b60667317b0c8564e53f22364a6c8de6f7ca5ce9bea4e5d81565b60667341a322b28d0ff354040e2cbc676f0320d8c8850d8156fea26469706673582212204b3b48a4983e00c55b7f093e802e80c1722621f06052dfd9917e1516a581149664736f6c634300080a0033",
    "linkReferences": {}
  },
  "methodIdentifiers": {
    "SUPERRARE_REGISTRY()": "d2367823",
    "SUPERRARE_V1()": "f19312ff",
    "SUPERRARE_V2()": "89f796ba"
  },
  "id": 13
}