{
  "abi": [
    {
      "anonymous": false,
      "inputs": [
        {
          "indexed": false,
          "internalType": "address",
          "name": "recipient",
          "type": "address"
        },
        {
          "indexed": false,
          "internalType": "uint16",
          "name": "bps",
          "type": "uint16"
        }
      ],
      "name": "DefaultRoyaltySet",
      "type": "event"
    },
    {
      "anonymous": false,
      "inputs": [
        {
          "indexed": true,
          "internalType": "address",
          "name": "previousOwner",
          "type": "address"
        },
        {
          "indexed": true,
          "internalType": "address",
          "name": "newOwner",
          "type": "address"
        }
      ],
      "name": "OwnershipTransferred",
      "type": "event"
    },
    {
      "anonymous": false,
      "inputs": [
        {
          "indexed": false,
          "internalType": "uint256",
          "name": "tokenId",
          "type": "uint256"
        }
      ],
      "name": "TokenRoyaltyRemoved",
      "type": "event"
    },
    {
      "anonymous": false,
      "inputs": [
        {
          "indexed": false,
          "internalType": "uint256",
          "name": "tokenId",
          "type": "uint256"
        },
        {
          "indexed": false,
          "internalType": "address",
          "name": "recipient",
          "type": "address"
        },
        {
          "indexed": false,
          "internalType": "uint16",
          "name": "bps",
          "type": "uint16"
        }
      ],
      "name": "TokenRoyaltySet",
      "type": "event"
    },
    {
      "inputs": [],
      "name": "defaultRoyalty",
      "outputs": [
        {
          "internalType": "address",
          "name": "recipient",
          "type": "address"
        },
        {
          "internalType": "uint16",
          "name": "bps",
          "type": "uint16"
        }
      ],
      "stateMutability": "view",
      "type": "function"
    },
    {
      "inputs": [],
      "name": "getTokenRoyaltiesCount",
      "outputs": [
        {
          "internalType": "uint256",
          "name": "",
          "type": "uint256"
        }
      ],
      "stateMutability": "view",
      "type": "function"
    },
    {
      "inputs": [
        {
          "internalType": "uint256",
          "name": "index",
          "type": "uint256"
        }
      ],
      "name": "getTokenRoyaltyByIndex",
      "outputs": [
        {
          "components": [
            {
              "internalType": "uint256",
              "name": "tokenId",
              "type": "uint256"
            },
            {
              "internalType": "address",
              "name": "recipient",
              "type": "address"
            },
            {
              "internalType": "uint16",
              "name": "bps",
              "type": "uint16"
            }
          ],
          "internalType": "struct IEIP2981RoyaltyOverride.TokenRoyaltyConfig",
          "name": "",
          "type": "tuple"
        }
      ],
      "stateMutability": "view",
      "type": "function"
    },
    {
      "inputs": [],
      "name": "initialize",
      "outputs": [],
      "stateMutability": "nonpayable",
      "type": "function"
    },
    {
      "inputs": [],
      "name": "owner",
      "outputs": [
        {
          "internalType": "address",
          "name": "",
          "type": "address"
        }
      ],
      "stateMutability": "view",
      "type": "function"
    },
    {
      "inputs": [],
      "name": "renounceOwnership",
      "outputs": [],
      "stateMutability": "nonpayable",
      "type": "function"
    },
    {
      "inputs": [
        {
          "internalType": "uint256",
          "name": "tokenId",
          "type": "uint256"
        },
        {
          "internalType": "uint256",
          "name": "value",
          "type": "uint256"
        }
      ],
      "name": "royaltyInfo",
      "outputs": [
        {
          "internalType": "address",
          "name": "",
          "type": "address"
        },
        {
          "internalType": "uint256",
          "name": "",
          "type": "uint256"
        }
      ],
      "stateMutability": "view",
      "type": "function"
    },
    {
      "inputs": [
        {
          "components": [
            {
              "internalType": "address",
              "name": "recipient",
              "type": "address"
            },
            {
              "internalType": "uint16",
              "name": "bps",
              "type": "uint16"
            }
          ],
          "internalType": "struct IEIP2981RoyaltyOverride.TokenRoyalty",
          "name": "royalty",
          "type": "tuple"
        }
      ],
      "name": "setDefaultRoyalty",
      "outputs": [],
      "stateMutability": "nonpayable",
      "type": "function"
    },
    {
      "inputs": [
        {
          "components": [
            {
              "internalType": "uint256",
              "name": "tokenId",
              "type": "uint256"
            },
            {
              "internalType": "address",
              "name": "recipient",
              "type": "address"
            },
            {
              "internalType": "uint16",
              "name": "bps",
              "type": "uint16"
            }
          ],
          "internalType": "struct IEIP2981RoyaltyOverride.TokenRoyaltyConfig[]",
          "name": "royaltyConfigs",
          "type": "tuple[]"
        }
      ],
      "name": "setTokenRoyalties",
      "outputs": [],
      "stateMutability": "nonpayable",
      "type": "function"
    },
    {
      "inputs": [
        {
          "internalType": "bytes4",
          "name": "interfaceId",
          "type": "bytes4"
        }
      ],
      "name": "supportsInterface",
      "outputs": [
        {
          "internalType": "bool",
          "name": "",
          "type": "bool"
        }
      ],
      "stateMutability": "view",
      "type": "function"
    },
    {
      "inputs": [
        {
          "internalType": "address",
          "name": "newOwner",
          "type": "address"
        }
      ],
      "name": "transferOwnership",
      "outputs": [],
      "stateMutability": "nonpayable",
      "type": "function"
    }
  ],
  "bytecode": {
    "object": "0x608060405234801561001057600080fd5b50611534806100206000396000f3fe608060405234801561001057600080fd5b50600436106100c95760003560e01c80637885fdc7116100815780638da5cb5b1161005b5780638da5cb5b1461022c578063ef60ceaf14610254578063f2fde38b1461026757600080fd5b80637885fdc7146101a15780637e9803421461020e5780638129fc1c1461022457600080fd5b80632a55205a116100b25780632a55205a146101455780635136dcc714610184578063715018a61461019957600080fd5b806301ffc9a7146100ce5780630653aca5146100f6575b600080fd5b6100e16100dc36600461113b565b61027a565b60405190151581526020015b60405180910390f35b61010961010436600461117d565b61035f565b604080518251815260208084015173ffffffffffffffffffffffffffffffffffffffff16908201529181015161ffff16908201526060016100ed565b610158610153366004611196565b610402565b6040805173ffffffffffffffffffffffffffffffffffffffff90931683526020830191909152016100ed565b6101976101923660046111b8565b61052e565b005b610197610613565b6000546101df9073ffffffffffffffffffffffffffffffffffffffff81169074010000000000000000000000000000000000000000900461ffff1682565b6040805173ffffffffffffffffffffffffffffffffffffffff909316835261ffff9091166020830152016100ed565b6102166106a0565b6040519081526020016100ed565b6101976106b1565b60375460405173ffffffffffffffffffffffffffffffffffffffff90911681526020016100ed565b61019761026236600461122d565b6107d5565b61019761027536600461126e565b61086d565b60007fffffffff0000000000000000000000000000000000000000000000000000000082167f2a55205a00000000000000000000000000000000000000000000000000000000148061030d57507fffffffff0000000000000000000000000000000000000000000000000000000082167fc69dbd8f00000000000000000000000000000000000000000000000000000000145b8061035957507f01ffc9a7000000000000000000000000000000000000000000000000000000007fffffffff000000000000000000000000000000000000000000000000000000008316145b92915050565b604080516060810182526000808252602082018190529181018290529061038760028461099a565b60008181526001602090815260409182902082518084018452905473ffffffffffffffffffffffffffffffffffffffff808216835261ffff7401000000000000000000000000000000000000000090920482168385019081528551606081018752968752925116928501929092525116908201529392505050565b600082815260016020526040812054819073ffffffffffffffffffffffffffffffffffffffff16156104925760008481526001602052604090205473ffffffffffffffffffffffffffffffffffffffff8116906127109061047f9074010000000000000000000000000000000000000000900461ffff16866112b8565b61048991906112f5565b91509150610527565b60005473ffffffffffffffffffffffffffffffffffffffff16158015906104d6575060005474010000000000000000000000000000000000000000900461ffff1615155b156105205760005473ffffffffffffffffffffffffffffffffffffffff8116906127109061047f9074010000000000000000000000000000000000000000900461ffff16866112b8565b5060009050805b9250929050565b60375473ffffffffffffffffffffffffffffffffffffffff1633146105b4576040517f08c379a000000000000000000000000000000000000000000000000000000000815260206004820181905260248201527f4f776e61626c653a2063616c6c6572206973206e6f7420746865206f776e657260448201526064015b60405180910390fd5b61060f8282808060200260200160405190810160405280939291908181526020016000905b82821015610605576105f660608302860136819003810190611342565b815260200190600101906105d9565b50505050506109ad565b5050565b60375473ffffffffffffffffffffffffffffffffffffffff163314610694576040517f08c379a000000000000000000000000000000000000000000000000000000000815260206004820181905260248201527f4f776e61626c653a2063616c6c6572206973206e6f7420746865206f776e657260448201526064016105ab565b61069e6000610c06565b565b60006106ac6002610c7d565b905090565b600454610100900460ff166106cc5760045460ff16156106d0565b303b155b61075c576040517f08c379a000000000000000000000000000000000000000000000000000000000815260206004820152602e60248201527f496e697469616c697a61626c653a20636f6e747261637420697320616c72656160448201527f647920696e697469616c697a656400000000000000000000000000000000000060648201526084016105ab565b600454610100900460ff1615801561079b57600480547fffffffffffffffffffffffffffffffffffffffffffffffffffffffffffff0000166101011790555b6107a3610c87565b80156107d257600480547fffffffffffffffffffffffffffffffffffffffffffffffffffffffffffff00ff1690555b50565b60375473ffffffffffffffffffffffffffffffffffffffff163314610856576040517f08c379a000000000000000000000000000000000000000000000000000000000815260206004820181905260248201527f4f776e61626c653a2063616c6c6572206973206e6f7420746865206f776e657260448201526064016105ab565b6107d2610868368390038301836113ce565b610d2e565b60375473ffffffffffffffffffffffffffffffffffffffff1633146108ee576040517f08c379a000000000000000000000000000000000000000000000000000000000815260206004820181905260248201527f4f776e61626c653a2063616c6c6572206973206e6f7420746865206f776e657260448201526064016105ab565b73ffffffffffffffffffffffffffffffffffffffff8116610991576040517f08c379a000000000000000000000000000000000000000000000000000000000815260206004820152602660248201527f4f776e61626c653a206e6577206f776e657220697320746865207a65726f206160448201527f646472657373000000000000000000000000000000000000000000000000000060648201526084016105ab565b6107d281610c06565b60006109a68383610e80565b9392505050565b60005b815181101561060f5760008282815181106109cd576109cd611450565b60200260200101519050612710816040015161ffff1610610a4a576040517f08c379a000000000000000000000000000000000000000000000000000000000815260206004820152600b60248201527f496e76616c69642062707300000000000000000000000000000000000000000060448201526064016105ab565b602081015173ffffffffffffffffffffffffffffffffffffffff16610ae8578051600090815260016020526040902080547fffffffffffffffffffff000000000000000000000000000000000000000000001690558051610aad90600290610eaa565b5080516040519081527fa2870857763bd9ae76c957f869f16b31c18dd3bb4c7b4d3a4496dc5c57c657f99060200160405180910390a1610bf3565b60408051808201825260208084015173ffffffffffffffffffffffffffffffffffffffff90811683528484015161ffff9081168385019081528651600090815260019094529490922092518354945190921674010000000000000000000000000000000000000000027fffffffffffffffffffff000000000000000000000000000000000000000000009094169116179190911790558051610b8c90600290610eb6565b508051602080830151604080850151815194855273ffffffffffffffffffffffffffffffffffffffff9092169284019290925261ffff1682820152517f389b70fb0887f01e83784eb1c4c589f740eca53b00ed0f45e41db5d079719abb9181900360600190a15b5080610bfe8161147f565b9150506109b0565b6037805473ffffffffffffffffffffffffffffffffffffffff8381167fffffffffffffffffffffffff0000000000000000000000000000000000000000831681179093556040519116919082907f8be0079c531659141344cd1fd0a4f28419497f9722a3daafe3b4186f6b6457e090600090a35050565b6000610359825490565b600454610100900460ff16610d1e576040517f08c379a000000000000000000000000000000000000000000000000000000000815260206004820152602b60248201527f496e697469616c697a61626c653a20636f6e7472616374206973206e6f74206960448201527f6e697469616c697a696e6700000000000000000000000000000000000000000060648201526084016105ab565b610d26610ec2565b61069e610f59565b612710816020015161ffff1610610da1576040517f08c379a000000000000000000000000000000000000000000000000000000000815260206004820152600b60248201527f496e76616c69642062707300000000000000000000000000000000000000000060448201526064016105ab565b604080518082018252825173ffffffffffffffffffffffffffffffffffffffff168082526020808501805161ffff169190930181905260008054740100000000000000000000000000000000000000009092027fffffffffffffffffffff000000000000000000000000000000000000000000009092169092171790558251905191517f2c5ea6e4103e78cb101e796fb2dace540362fc542cbff5145eaa24af7dd8fe4192610e75929173ffffffffffffffffffffffffffffffffffffffff92909216825261ffff16602082015260400190565b60405180910390a150565b6000826000018281548110610e9757610e97611450565b9060005260206000200154905092915050565b60006109a68383610ff9565b60006109a683836110ec565b600454610100900460ff1661069e576040517f08c379a000000000000000000000000000000000000000000000000000000000815260206004820152602b60248201527f496e697469616c697a61626c653a20636f6e7472616374206973206e6f74206960448201527f6e697469616c697a696e6700000000000000000000000000000000000000000060648201526084016105ab565b600454610100900460ff16610ff0576040517f08c379a000000000000000000000000000000000000000000000000000000000815260206004820152602b60248201527f496e697469616c697a61626c653a20636f6e7472616374206973206e6f74206960448201527f6e697469616c697a696e6700000000000000000000000000000000000000000060648201526084016105ab565b61069e33610c06565b600081815260018301602052604081205480156110e257600061101d6001836114b8565b8554909150600090611031906001906114b8565b905081811461109657600086600001828154811061105157611051611450565b906000526020600020015490508087600001848154811061107457611074611450565b6000918252602080832090910192909255918252600188019052604090208390555b85548690806110a7576110a76114cf565b600190038181906000526020600020016000905590558560010160008681526020019081526020016000206000905560019350505050610359565b6000915050610359565b600081815260018301602052604081205461113357508154600181810184556000848152602080822090930184905584548482528286019093526040902091909155610359565b506000610359565b60006020828403121561114d57600080fd5b81357fffffffff00000000000000000000000000000000000000000000000000000000811681146109a657600080fd5b60006020828403121561118f57600080fd5b5035919050565b600080604083850312156111a957600080fd5b50508035926020909101359150565b600080602083850312156111cb57600080fd5b823567ffffffffffffffff808211156111e357600080fd5b818501915085601f8301126111f757600080fd5b81358181111561120657600080fd5b86602060608302850101111561121b57600080fd5b60209290920196919550909350505050565b60006040828403121561123f57600080fd5b50919050565b803573ffffffffffffffffffffffffffffffffffffffff8116811461126957600080fd5b919050565b60006020828403121561128057600080fd5b6109a682611245565b7f4e487b7100000000000000000000000000000000000000000000000000000000600052601160045260246000fd5b6000817fffffffffffffffffffffffffffffffffffffffffffffffffffffffffffffffff04831182151516156112f0576112f0611289565b500290565b60008261132b577f4e487b7100000000000000000000000000000000000000000000000000000000600052601260045260246000fd5b500490565b803561ffff8116811461126957600080fd5b60006060828403121561135457600080fd5b6040516060810181811067ffffffffffffffff8211171561139e577f4e487b7100000000000000000000000000000000000000000000000000000000600052604160045260246000fd5b604052823581526113b160208401611245565b60208201526113c260408401611330565b60408201529392505050565b6000604082840312156113e057600080fd5b6040516040810181811067ffffffffffffffff8211171561142a577f4e487b7100000000000000000000000000000000000000000000000000000000600052604160045260246000fd5b60405261143683611245565b815261144460208401611330565b60208201529392505050565b7f4e487b7100000000000000000000000000000000000000000000000000000000600052603260045260246000fd5b60007fffffffffffffffffffffffffffffffffffffffffffffffffffffffffffffffff8214156114b1576114b1611289565b5060010190565b6000828210156114ca576114ca611289565b500390565b7f4e487b7100000000000000000000000000000000000000000000000000000000600052603160045260246000fdfea264697066735822122092ad80f8abb2f4fdae889d68f18cd22a3b8d1ea95a76587a89da501a9f2fc75764736f6c634300080a0033",
    "linkReferences": {}
  },
  "methodIdentifiers": {
    "defaultRoyalty()": "7885fdc7",
    "getTokenRoyaltiesCount()": "7e980342",
    "getTokenRoyaltyByIndex(uint256)": "0653aca5",
    "initialize()": "8129fc1c",
    "owner()": "8da5cb5b",
    "renounceOwnership()": "715018a6",
    "royaltyInfo(uint256,uint256)": "2a55205a",
    "setDefaultRoyalty((address,uint16))": "ef60ceaf",
    "setTokenRoyalties((uint256,address,uint16)[])": "5136dcc7",
    "supportsInterface(bytes4)": "01ffc9a7",
    "transferOwnership(address)": "f2fde38b"
  },
  "id": 4
}