{
  "abi": [
    {
      "inputs": [
        {
          "internalType": "address",
          "name": "_erc20TransferHelper",
          "type": "address"
        },
        {
          "internalType": "address",
          "name": "_erc721TransferHelper",
          "type": "address"
        },
        {
          "internalType": "address",
          "name": "_royaltyEngine",
          "type": "address"
        },
        {
          "internalType": "address",
          "name": "_protocolFeeSettings",
          "type": "address"
        },
        {
          "internalType": "address",
          "name": "_wethAddress",
          "type": "address"
        }
      ],
      "stateMutability": "nonpayable",
      "type": "constructor"
    },
    {
      "anonymous": false,
      "inputs": [
        {
          "indexed": true,
          "internalType": "address",
          "name": "tokenContract",
          "type": "address"
        },
        {
          "indexed": true,
          "internalType": "uint256",
          "name": "tokenId",
          "type": "uint256"
        },
        {
          "components": [
            {
              "internalType": "address",
              "name": "seller",
              "type": "address"
            },
            {
              "internalType": "address",
              "name": "sellerFundsRecipient",
              "type": "address"
            },
            {
              "internalType": "address",
              "name": "askCurrency",
              "type": "address"
            },
            {
              "internalType": "uint16",
              "name": "findersFeeBps",
              "type": "uint16"
            },
            {
              "internalType": "uint256",
              "name": "askPrice",
              "type": "uint256"
            }
          ],
          "indexed": false,
          "internalType": "struct AsksV1_1.Ask",
          "name": "ask",
          "type": "tuple"
        }
      ],
      "name": "AskCanceled",
      "type": "event"
    },
    {
      "anonymous": false,
      "inputs": [
        {
          "indexed": true,
          "internalType": "address",
          "name": "tokenContract",
          "type": "address"
        },
        {
          "indexed": true,
          "internalType": "uint256",
          "name": "tokenId",
          "type": "uint256"
        },
        {
          "components": [
            {
              "internalType": "address",
              "name": "seller",
              "type": "address"
            },
            {
              "internalType": "address",
              "name": "sellerFundsRecipient",
              "type": "address"
            },
            {
              "internalType": "address",
              "name": "askCurrency",
              "type": "address"
            },
            {
              "internalType": "uint16",
              "name": "findersFeeBps",
              "type": "uint16"
            },
            {
              "internalType": "uint256",
              "name": "askPrice",
              "type": "uint256"
            }
          ],
          "indexed": false,
          "internalType": "struct AsksV1_1.Ask",
          "name": "ask",
          "type": "tuple"
        }
      ],
      "name": "AskCreated",
      "type": "event"
    },
    {
      "anonymous": false,
      "inputs": [
        {
          "indexed": true,
          "internalType": "address",
          "name": "tokenContract",
          "type": "address"
        },
        {
          "indexed": true,
          "internalType": "uint256",
          "name": "tokenId",
          "type": "uint256"
        },
        {
          "indexed": true,
          "internalType": "address",
          "name": "buyer",
          "type": "address"
        },
        {
          "indexed": false,
          "internalType": "address",
          "name": "finder",
          "type": "address"
        },
        {
          "components": [
            {
              "internalType": "address",
              "name": "seller",
              "type": "address"
            },
            {
              "internalType": "address",
              "name": "sellerFundsRecipient",
              "type": "address"
            },
            {
              "internalType": "address",
              "name": "askCurrency",
              "type": "address"
            },
            {
              "internalType": "uint16",
              "name": "findersFeeBps",
              "type": "uint16"
            },
            {
              "internalType": "uint256",
              "name": "askPrice",
              "type": "uint256"
            }
          ],
          "indexed": false,
          "internalType": "struct AsksV1_1.Ask",
          "name": "ask",
          "type": "tuple"
        }
      ],
      "name": "AskFilled",
      "type": "event"
    },
    {
      "anonymous": false,
      "inputs": [
        {
          "indexed": true,
          "internalType": "address",
          "name": "tokenContract",
          "type": "address"
        },
        {
          "indexed": true,
          "internalType": "uint256",
          "name": "tokenId",
          "type": "uint256"
        },
        {
          "components": [
            {
              "internalType": "address",
              "name": "seller",
              "type": "address"
            },
            {
              "internalType": "address",
              "name": "sellerFundsRecipient",
              "type": "address"
            },
            {
              "internalType": "address",
              "name": "askCurrency",
              "type": "address"
            },
            {
              "internalType": "uint16",
              "name": "findersFeeBps",
              "type": "uint16"
            },
            {
              "internalType": "uint256",
              "name": "askPrice",
              "type": "uint256"
            }
          ],
          "indexed": false,
          "internalType": "struct AsksV1_1.Ask",
          "name": "ask",
          "type": "tuple"
        }
      ],
      "name": "AskPriceUpdated",
      "type": "event"
    },
    {
      "anonymous": false,
      "inputs": [
        {
          "indexed": true,
          "internalType": "address",
          "name": "userA",
          "type": "address"
        },
        {
          "indexed": true,
          "internalType": "address",
          "name": "userB",
          "type": "address"
        },
        {
          "components": [
            {
              "internalType": "address",
              "name": "tokenContract",
              "type": "address"
            },
            {
              "internalType": "uint256",
              "name": "tokenId",
              "type": "uint256"
            },
            {
              "internalType": "uint256",
              "name": "amount",
              "type": "uint256"
            }
          ],
          "indexed": false,
          "internalType": "struct UniversalExchangeEventV1.ExchangeDetails",
          "name": "a",
          "type": "tuple"
        },
        {
          "components": [
            {
              "internalType": "address",
              "name": "tokenContract",
              "type": "address"
            },
            {
              "internalType": "uint256",
              "name": "tokenId",
              "type": "uint256"
            },
            {
              "internalType": "uint256",
              "name": "amount",
              "type": "uint256"
            }
          ],
          "indexed": false,
          "internalType": "struct UniversalExchangeEventV1.ExchangeDetails",
          "name": "b",
          "type": "tuple"
        }
      ],
      "name": "ExchangeExecuted",
      "type": "event"
    },
    {
      "anonymous": false,
      "inputs": [
        {
          "indexed": true,
          "internalType": "address",
          "name": "tokenContract",
          "type": "address"
        },
        {
          "indexed": true,
          "internalType": "uint256",
          "name": "tokenId",
          "type": "uint256"
        },
        {
          "indexed": false,
          "internalType": "address",
          "name": "recipient",
          "type": "address"
        },
        {
          "indexed": false,
          "internalType": "uint256",
          "name": "amount",
          "type": "uint256"
        }
      ],
      "name": "RoyaltyPayout",
      "type": "event"
    },
    {
      "inputs": [
        {
          "internalType": "address",
          "name": "_tokenContract",
          "type": "address"
        },
        {
          "internalType": "uint256",
          "name": "_tokenId",
          "type": "uint256"
        },
        {
          "internalType": "uint256",
          "name": "_amount",
          "type": "uint256"
        },
        {
          "internalType": "address",
          "name": "_payoutCurrency",
          "type": "address"
        }
      ],
      "name": "_handleRoyaltyEnginePayout",
      "outputs": [
        {
          "internalType": "uint256",
          "name": "",
          "type": "uint256"
        }
      ],
      "stateMutability": "payable",
      "type": "function"
    },
    {
      "inputs": [
        {
          "internalType": "address",
          "name": "",
          "type": "address"
        },
        {
          "internalType": "uint256",
          "name": "",
          "type": "uint256"
        }
      ],
      "name": "askForNFT",
      "outputs": [
        {
          "internalType": "address",
          "name": "seller",
          "type": "address"
        },
        {
          "internalType": "address",
          "name": "sellerFundsRecipient",
          "type": "address"
        },
        {
          "internalType": "address",
          "name": "askCurrency",
          "type": "address"
        },
        {
          "internalType": "uint16",
          "name": "findersFeeBps",
          "type": "uint16"
        },
        {
          "internalType": "uint256",
          "name": "askPrice",
          "type": "uint256"
        }
      ],
      "stateMutability": "view",
      "type": "function"
    },
    {
      "inputs": [
        {
          "internalType": "address",
          "name": "_tokenContract",
          "type": "address"
        },
        {
          "internalType": "uint256",
          "name": "_tokenId",
          "type": "uint256"
        }
      ],
      "name": "cancelAsk",
      "outputs": [],
      "stateMutability": "nonpayable",
      "type": "function"
    },
    {
      "inputs": [
        {
          "internalType": "address",
          "name": "_tokenContract",
          "type": "address"
        },
        {
          "internalType": "uint256",
          "name": "_tokenId",
          "type": "uint256"
        },
        {
          "internalType": "uint256",
          "name": "_askPrice",
          "type": "uint256"
        },
        {
          "internalType": "address",
          "name": "_askCurrency",
          "type": "address"
        },
        {
          "internalType": "address",
          "name": "_sellerFundsRecipient",
          "type": "address"
        },
        {
          "internalType": "uint16",
          "name": "_findersFeeBps",
          "type": "uint16"
        }
      ],
      "name": "createAsk",
      "outputs": [],
      "stateMutability": "nonpayable",
      "type": "function"
    },
    {
      "inputs": [],
      "name": "erc20TransferHelper",
      "outputs": [
        {
          "internalType": "contract ERC20TransferHelper",
          "name": "",
          "type": "address"
        }
      ],
      "stateMutability": "view",
      "type": "function"
    },
    {
      "inputs": [],
      "name": "erc721TransferHelper",
      "outputs": [
        {
          "internalType": "contract ERC721TransferHelper",
          "name": "",
          "type": "address"
        }
      ],
      "stateMutability": "view",
      "type": "function"
    },
    {
      "inputs": [
        {
          "internalType": "address",
          "name": "_tokenContract",
          "type": "address"
        },
        {
          "internalType": "uint256",
          "name": "_tokenId",
          "type": "uint256"
        },
        {
          "internalType": "address",
          "name": "_fillCurrency",
          "type": "address"
        },
        {
          "internalType": "uint256",
          "name": "_fillAmount",
          "type": "uint256"
        },
        {
          "internalType": "address",
          "name": "_finder",
          "type": "address"
        }
      ],
      "name": "fillAsk",
      "outputs": [],
      "stateMutability": "payable",
      "type": "function"
    },
    {
      "inputs": [],
      "name": "name",
      "outputs": [
        {
          "internalType": "string",
          "name": "",
          "type": "string"
        }
      ],
      "stateMutability": "view",
      "type": "function"
    },
    {
      "inputs": [],
      "name": "registrar",
      "outputs": [
        {
          "internalType": "address",
          "name": "",
          "type": "address"
        }
      ],
      "stateMutability": "view",
      "type": "function"
    },
    {
      "inputs": [
        {
          "internalType": "address",
          "name": "_tokenContract",
          "type": "address"
        },
        {
          "internalType": "uint256",
          "name": "_tokenId",
          "type": "uint256"
        },
        {
          "internalType": "uint256",
          "name": "_askPrice",
          "type": "uint256"
        },
        {
          "internalType": "address",
          "name": "_askCurrency",
          "type": "address"
        }
      ],
      "name": "setAskPrice",
      "outputs": [],
      "stateMutability": "nonpayable",
      "type": "function"
    },
    {
      "inputs": [
        {
          "internalType": "address",
          "name": "_royaltyEngine",
          "type": "address"
        }
      ],
      "name": "setRoyaltyEngineAddress",
      "outputs": [],
      "stateMutability": "nonpayable",
      "type": "function"
    }
  ],
  "bytecode": {
    "object": "0x61012060405260016000553480156200001757600080fd5b5060405162003450380380620034508339810160408190526200003a916200024f565b6040518060400160405280600a81526020016941736b733a2076312e3160b01b815250838383876001600160a01b031663e3e606f06040518163ffffffff1660e01b8152600401602060405180830381865afa1580156200009f573d6000803e3d6000fd5b505050506040513d601f19601f82011682018060405250810190620000c59190620002cf565b6001600160a01b0316632b20e3976040518163ffffffff1660e01b8152600401602060405180830381865afa15801562000103573d6000803e3d6000fd5b505050506040513d601f19601f82011682018060405250810190620001299190620002cf565b6001600160a01b038a811660805291821660a052600180546001600160a01b0319169483169490941790935590811660e0521660c05280516200017490600290602084019062000190565b5050506001600160a01b03909216610100525062000333915050565b8280546200019e90620002f6565b90600052602060002090601f016020900481019282620001c257600085556200020d565b82601f10620001dd57805160ff19168380011785556200020d565b828001600101855582156200020d579182015b828111156200020d578251825591602001919060010190620001f0565b506200021b9291506200021f565b5090565b5b808211156200021b576000815560010162000220565b6001600160a01b03811681146200024c57600080fd5b50565b600080600080600060a086880312156200026857600080fd5b8551620002758162000236565b6020870151909550620002888162000236565b60408701519094506200029b8162000236565b6060870151909350620002ae8162000236565b6080870151909250620002c18162000236565b809150509295509295909350565b600060208284031215620002e257600080fd5b8151620002ef8162000236565b9392505050565b600181811c908216806200030b57607f821691505b602082108114156200032d57634e487b7160e01b600052602260045260246000fd5b50919050565b60805160a05160c05160e051610100516130a8620003a86000396000818161031001528181610aab015281816111c1015261131101526000818161210901526121b501526000818160fe01526119b70152600081816123b9015261245101526000818161025b0152611dfe01526130a86000f3fe6080604052600436106100bc5760003560e01c80638f9d325111610074578063b20075331161004e578063b2007533146102be578063b249bb30146102de578063f7cd1d9b146102fe57600080fd5b80638f9d3251146102495780639128c22c1461027d5780639e8471081461029e57600080fd5b806340b80746116100a557806340b8074614610145578063418f065614610167578063622dcbd71461023657600080fd5b806306fdde03146100c15780632b20e397146100ec575b600080fd5b3480156100cd57600080fd5b506100d6610332565b6040516100e39190612999565b60405180910390f35b3480156100f857600080fd5b506101207f000000000000000000000000000000000000000000000000000000000000000081565b60405173ffffffffffffffffffffffffffffffffffffffff90911681526020016100e3565b34801561015157600080fd5b50610165610160366004612a0f565b6103c0565b005b34801561017357600080fd5b506101ec610182366004612a0f565b60036020818152600093845260408085209091529183529120805460018201546002830154929093015473ffffffffffffffffffffffffffffffffffffffff918216938216929182169174010000000000000000000000000000000000000000900461ffff169085565b6040805173ffffffffffffffffffffffffffffffffffffffff96871681529486166020860152929094169183019190915261ffff166060820152608081019190915260a0016100e3565b610165610244366004612a3b565b6106b8565b34801561025557600080fd5b506101207f000000000000000000000000000000000000000000000000000000000000000081565b61029061028b366004612a9a565b610ca9565b6040519081526020016100e3565b3480156102aa57600080fd5b506101656102b9366004612af4565b610f4e565b3480156102ca57600080fd5b506101656102d9366004612a9a565b6117f9565b3480156102ea57600080fd5b506101656102f9366004612b64565b61199f565b34801561030a57600080fd5b506101207f000000000000000000000000000000000000000000000000000000000000000081565b6002805461033f90612b81565b80601f016020809104026020016040519081016040528092919081815260200182805461036b90612b81565b80156103b85780601f1061038d576101008083540402835291602001916103b8565b820191906000526020600020905b81548152906001019060200180831161039b57829003601f168201915b505050505081565b600054600114610431576040517f08c379a000000000000000000000000000000000000000000000000000000000815260206004820152600a60248201527f5245454e5452414e43590000000000000000000000000000000000000000000060448201526064015b60405180910390fd5b6002600090815573ffffffffffffffffffffffffffffffffffffffff838116825260036020908152604080842085855290915290912054166104cf576040517f08c379a000000000000000000000000000000000000000000000000000000000815260206004820152601b60248201527f63616e63656c41736b2061736b20646f65736e277420657869737400000000006044820152606401610428565b6040517f6352211e0000000000000000000000000000000000000000000000000000000081526004810182905260009073ffffffffffffffffffffffffffffffffffffffff841690636352211e90602401602060405180830381865afa15801561053d573d6000803e3d6000fd5b505050506040513d601f19601f820116820180604052508101906105619190612bd5565b90503373ffffffffffffffffffffffffffffffffffffffff8216148061061857506040517fe985e9c500000000000000000000000000000000000000000000000000000000815273ffffffffffffffffffffffffffffffffffffffff828116600483015233602483015284169063e985e9c590604401602060405180830381865afa1580156105f4573d6000803e3d6000fd5b505050506040513d601f19601f820116820180604052508101906106189190612bf2565b6106a4576040517f08c379a000000000000000000000000000000000000000000000000000000000815260206004820152602960248201527f63616e63656c41736b206d75737420626520746f6b656e206f776e6572206f7260448201527f206f70657261746f7200000000000000000000000000000000000000000000006064820152608401610428565b6106ae8383611b61565b5050600160005550565b600054600114610724576040517f08c379a000000000000000000000000000000000000000000000000000000000815260206004820152600a60248201527f5245454e5452414e4359000000000000000000000000000000000000000000006044820152606401610428565b6002600090815573ffffffffffffffffffffffffffffffffffffffff808716825260036020908152604080842088855290915290912080549091166107c5576040517f08c379a000000000000000000000000000000000000000000000000000000000815260206004820152601a60248201527f66696c6c41736b206d757374206265206163746976652061736b0000000000006044820152606401610428565b600281015473ffffffffffffffffffffffffffffffffffffffff858116911614610871576040517f08c379a000000000000000000000000000000000000000000000000000000000815260206004820152602d60248201527f66696c6c41736b205f66696c6c43757272656e6379206d757374206d6174636860448201527f2061736b2063757272656e6379000000000000000000000000000000000000006064820152608401610428565b82816003015414610904576040517f08c379a000000000000000000000000000000000000000000000000000000000815260206004820152602960248201527f66696c6c41736b205f66696c6c416d6f756e74206d757374206d61746368206160448201527f736b20616d6f756e7400000000000000000000000000000000000000000000006064820152608401610428565b6003810154600282015461092e919073ffffffffffffffffffffffffffffffffffffffff16611c61565b6003810154600282015460009161095f918991899173ffffffffffffffffffffffffffffffffffffffff1685611fb4565b50600283015490915061098990829073ffffffffffffffffffffffffffffffffffffffff166120ba565b905073ffffffffffffffffffffffffffffffffffffffff831615610a1e576002820154600090612710906109d99074010000000000000000000000000000000000000000900461ffff1684612c43565b6109e39190612c80565b6002840154909150610a10908590839073ffffffffffffffffffffffffffffffffffffffff16600061225a565b610a1a8183612cbb565b9150505b60018201546002830154610a4f9173ffffffffffffffffffffffffffffffffffffffff90811691849116600061225a565b81546040517f15dacbea00000000000000000000000000000000000000000000000000000000815273ffffffffffffffffffffffffffffffffffffffff89811660048301529182166024820152336044820152606481018890527f0000000000000000000000000000000000000000000000000000000000000000909116906315dacbea90608401600060405180830381600087803b158015610af157600080fd5b505af1158015610b05573d6000803e3d6000fd5b5050604080516060808201835273ffffffffffffffffffffffffffffffffffffffff808d16835260208084018d90526001848601528451928301855260028901548216835260009083015260038801548285015287549351929550909350339216907f1f432c9454edd444f55492be01e3fa82aa88bfa28e120a039be204253c10c36e90610b969086908690612cd2565b60405180910390a33373ffffffffffffffffffffffffffffffffffffffff16888a73ffffffffffffffffffffffffffffffffffffffff167f21a9d8e221211780696258a05c6225b1a24f428e2fd4d51708f1ab2be4224d398888604051610bfe929190612d3a565b60405180910390a450505073ffffffffffffffffffffffffffffffffffffffff909516600090815260036020818152604080842097845296905294812080547fffffffffffffffffffffffff00000000000000000000000000000000000000009081168255600180830180549092169091556002820180547fffffffffffffffffffff0000000000000000000000000000000000000000000016905595018190559390935550505050565b6000333014610d3a576040517f08c379a000000000000000000000000000000000000000000000000000000000815260206004820152602d60248201527f5f68616e646c65526f79616c7479456e67696e655061796f7574206f6e6c792060448201527f73656c662063616c6c61626c65000000000000000000000000000000000000006064820152608401610428565b6001546040517ff533b80200000000000000000000000000000000000000000000000000000000815273ffffffffffffffffffffffffffffffffffffffff87811660048301526024820187905260448201869052600092839291169063f533b802906064016000604051808303816000875af1158015610dbe573d6000803e3d6000fd5b505050506040513d6000823e601f3d9081017fffffffffffffffffffffffffffffffffffffffffffffffffffffffffffffffe0168201604052610e049190810190612ea3565b8151919350915080610e1b57859350505050610f46565b85600080805b84811015610f3c57868181518110610e3b57610e3b612f68565b60200260200101519250858181518110610e5757610e57612f68565b6020026020010151915081841015610ecb576040517f08c379a000000000000000000000000000000000000000000000000000000000815260206004820152600960248201527f696e736f6c76656e7400000000000000000000000000000000000000000000006044820152606401610428565b610ed983838b61c35061225a565b6040805173ffffffffffffffffffffffffffffffffffffffff8581168252602082018590528d92908f16917f866e6ef8682ddf5f1025e64dfdb45527077f7be70fa9ef680b7ffd8cf4ab9c50910160405180910390a39281900392600101610e21565b5091955050505050505b949350505050565b600054600114610fba576040517f08c379a000000000000000000000000000000000000000000000000000000000815260206004820152600a60248201527f5245454e5452414e4359000000000000000000000000000000000000000000006044820152606401610428565b600260009081556040517f6352211e0000000000000000000000000000000000000000000000000000000081526004810187905273ffffffffffffffffffffffffffffffffffffffff881690636352211e90602401602060405180830381865afa15801561102c573d6000803e3d6000fd5b505050506040513d601f19601f820116820180604052508101906110509190612bd5565b90503373ffffffffffffffffffffffffffffffffffffffff8216148061110757506040517fe985e9c500000000000000000000000000000000000000000000000000000000815273ffffffffffffffffffffffffffffffffffffffff828116600483015233602483015288169063e985e9c590604401602060405180830381865afa1580156110e3573d6000803e3d6000fd5b505050506040513d601f19601f820116820180604052508101906111079190612bf2565b611193576040517f08c379a000000000000000000000000000000000000000000000000000000000815260206004820152602960248201527f63726561746541736b206d75737420626520746f6b656e206f776e6572206f7260448201527f206f70657261746f7200000000000000000000000000000000000000000000006064820152608401610428565b6040517f72d276920000000000000000000000000000000000000000000000000000000081523360048201527f000000000000000000000000000000000000000000000000000000000000000073ffffffffffffffffffffffffffffffffffffffff16906372d2769290602401602060405180830381865afa15801561121d573d6000803e3d6000fd5b505050506040513d601f19601f820116820180604052508101906112419190612bf2565b6112cc576040517f08c379a0000000000000000000000000000000000000000000000000000000008152602060048201526024808201527f63726561746541736b206d75737420617070726f76652041736b735631206d6f60448201527f64756c65000000000000000000000000000000000000000000000000000000006064820152608401610428565b6040517fe985e9c500000000000000000000000000000000000000000000000000000000815273ffffffffffffffffffffffffffffffffffffffff82811660048301527f00000000000000000000000000000000000000000000000000000000000000008116602483015288169063e985e9c590604401602060405180830381865afa158015611360573d6000803e3d6000fd5b505050506040513d601f19601f820116820180604052508101906113849190612bf2565b611410576040517f08c379a000000000000000000000000000000000000000000000000000000000815260206004820152603760248201527f63726561746541736b206d75737420617070726f76652045524337323154726160448201527f6e7366657248656c706572206173206f70657261746f720000000000000000006064820152608401610428565b6127108261ffff1611156114a6576040517f08c379a000000000000000000000000000000000000000000000000000000000815260206004820152603d60248201527f63726561746541736b2066696e646572732066656520627073206d757374206260448201527f65206c657373207468616e206f7220657175616c20746f2031303030300000006064820152608401610428565b73ffffffffffffffffffffffffffffffffffffffff8316611549576040517f08c379a000000000000000000000000000000000000000000000000000000000815260206004820152602c60248201527f63726561746541736b206d7573742073706563696679205f73656c6c6572467560448201527f6e6473526563697069656e7400000000000000000000000000000000000000006064820152608401610428565b73ffffffffffffffffffffffffffffffffffffffff87811660009081526003602090815260408083208a8452909152902054161561158b5761158b8787611b61565b6040518060a001604052808273ffffffffffffffffffffffffffffffffffffffff1681526020018473ffffffffffffffffffffffffffffffffffffffff1681526020018573ffffffffffffffffffffffffffffffffffffffff1681526020018361ffff16815260200186815250600360008973ffffffffffffffffffffffffffffffffffffffff1673ffffffffffffffffffffffffffffffffffffffff168152602001908152602001600020600088815260200190815260200160002060008201518160000160006101000a81548173ffffffffffffffffffffffffffffffffffffffff021916908373ffffffffffffffffffffffffffffffffffffffff16021790555060208201518160010160006101000a81548173ffffffffffffffffffffffffffffffffffffffff021916908373ffffffffffffffffffffffffffffffffffffffff16021790555060408201518160020160006101000a81548173ffffffffffffffffffffffffffffffffffffffff021916908373ffffffffffffffffffffffffffffffffffffffff16021790555060608201518160020160146101000a81548161ffff021916908361ffff16021790555060808201518160030155905050858773ffffffffffffffffffffffffffffffffffffffff167f5b65b398e1d736436510f4da442eaec71466d2abee0816567088c892c4bcee70600360008b73ffffffffffffffffffffffffffffffffffffffff1673ffffffffffffffffffffffffffffffffffffffff16815260200190815260200160002060008a81526020019081526020016000206040516117e39190612f97565b60405180910390a3505060016000555050505050565b600054600114611865576040517f08c379a000000000000000000000000000000000000000000000000000000000815260206004820152600a60248201527f5245454e5452414e4359000000000000000000000000000000000000000000006044820152606401610428565b6002600090815573ffffffffffffffffffffffffffffffffffffffff808616825260036020908152604080842087855290915290912080549091163314611908576040517f08c379a000000000000000000000000000000000000000000000000000000000815260206004820152601a60248201527f73657441736b5072696365206d7573742062652073656c6c65720000000000006044820152606401610428565b600381018390556002810180547fffffffffffffffffffffffff00000000000000000000000000000000000000001673ffffffffffffffffffffffffffffffffffffffff8481169190911790915560405185918716907f1a24bcf5290feab70f35cfb4870c294ebf497e608d4262b0ec0debe0450081409061198b908590612f97565b60405180910390a350506001600055505050565b3373ffffffffffffffffffffffffffffffffffffffff7f00000000000000000000000000000000000000000000000000000000000000001614611a64576040517f08c379a000000000000000000000000000000000000000000000000000000000815260206004820152602660248201527f736574526f79616c7479456e67696e6541646472657373206f6e6c792072656760448201527f69737472617200000000000000000000000000000000000000000000000000006064820152608401610428565b611a8e817fcb23f816000000000000000000000000000000000000000000000000000000006124aa565b611b1a576040517f08c379a000000000000000000000000000000000000000000000000000000000815260206004820152603d60248201527f736574526f79616c7479456e67696e6541646472657373206d757374206d617460448201527f63682049526f79616c7479456e67696e65563120696e746572666163650000006064820152608401610428565b600180547fffffffffffffffffffffffff00000000000000000000000000000000000000001673ffffffffffffffffffffffffffffffffffffffff92909216919091179055565b73ffffffffffffffffffffffffffffffffffffffff821660008181526003602090815260408083208584529091529081902090518392917f871956abf85befb7c955eacd40fcabe7e01b1702d75764bf7f54bf481933fd3591611bc49190612f97565b60405180910390a373ffffffffffffffffffffffffffffffffffffffff909116600090815260036020818152604080842094845293905291812080547fffffffffffffffffffffffff0000000000000000000000000000000000000000908116825560018201805490911690556002810180547fffffffffffffffffffff0000000000000000000000000000000000000000000016905590910155565b73ffffffffffffffffffffffffffffffffffffffff8116611d105781341015611d0c576040517f08c379a000000000000000000000000000000000000000000000000000000000815260206004820152603b60248201527f5f68616e646c65496e636f6d696e675472616e73666572206d73672076616c7560448201527f65206c657373207468616e20657870656374656420616d6f756e7400000000006064820152608401610428565b5050565b6040517f70a08231000000000000000000000000000000000000000000000000000000008152306004820152819060009073ffffffffffffffffffffffffffffffffffffffff8316906370a0823190602401602060405180830381865afa158015611d7f573d6000803e3d6000fd5b505050506040513d601f19601f82011682018060405250810190611da39190612feb565b6040517fd9fc4b6100000000000000000000000000000000000000000000000000000000815273ffffffffffffffffffffffffffffffffffffffff8581166004830152336024830152306044830152606482018790529192507f00000000000000000000000000000000000000000000000000000000000000009091169063d9fc4b6190608401600060405180830381600087803b158015611e4457600080fd5b505af1158015611e58573d6000803e3d6000fd5b50506040517f70a082310000000000000000000000000000000000000000000000000000000081523060048201526000925073ffffffffffffffffffffffffffffffffffffffff851691506370a0823190602401602060405180830381865afa158015611ec9573d6000803e3d6000fd5b505050506040513d601f19601f82011682018060405250810190611eed9190612feb565b905080611efa8684613004565b14611fad576040517f08c379a000000000000000000000000000000000000000000000000000000000815260206004820152604c60248201527f5f68616e646c65496e636f6d696e675472616e7366657220746f6b656e20747260448201527f616e736665722063616c6c20646964206e6f74207472616e736665722065787060648201527f656374656420616d6f756e740000000000000000000000000000000000000000608482015260a401610428565b5050505050565b60008080831580611fc457505a84115b611fce5783611fd0565b5a5b6040517f9128c22c00000000000000000000000000000000000000000000000000000000815273ffffffffffffffffffffffffffffffffffffffff808b166004830152602482018a905260448201899052871660648201529091503090639128c22c90839060840160206040518083038160008887f193505050508015612092575060408051601f3d9081017fffffffffffffffffffffffffffffffffffffffffffffffffffffffffffffffe016820190925261208f91810190612feb565b60015b6120a35785600092509250506120b0565b9250600191506120b09050565b9550959350505050565b6040517f61b485f600000000000000000000000000000000000000000000000000000000815230600482015260248101839052600090819073ffffffffffffffffffffffffffffffffffffffff7f000000000000000000000000000000000000000000000000000000000000000016906361b485f690604401602060405180830381865afa158015612150573d6000803e3d6000fd5b505050506040513d601f19601f820116820180604052508101906121749190612feb565b9050806121845783915050612254565b6040517f86ab6fb90000000000000000000000000000000000000000000000000000000081523060048201526000907f000000000000000000000000000000000000000000000000000000000000000073ffffffffffffffffffffffffffffffffffffffff16906386ab6fb9906024016040805180830381865afa158015612210573d6000803e3d6000fd5b505050506040513d601f19601f82011682018060405250810190612234919061301c565b91505061224581838661c35061225a565b61224f8286612cbb565b925050505b92915050565b82158061227b575073ffffffffffffffffffffffffffffffffffffffff8416155b15612285576124a4565b73ffffffffffffffffffffffffffffffffffffffff82166124835782471015612330576040517f08c379a000000000000000000000000000000000000000000000000000000000815260206004820152602160248201527f5f68616e646c654f7574676f696e675472616e7366657220696e736f6c76656e60448201527f74000000000000000000000000000000000000000000000000000000000000006064820152608401610428565b600081158061233e57505a82115b612348578161234a565b5a5b905060008573ffffffffffffffffffffffffffffffffffffffff16858390604051600060405180830381858888f193505050503d80600081146123a9576040519150601f19603f3d011682016040523d82523d6000602084013e6123ae565b606091505b505090508061247c577f000000000000000000000000000000000000000000000000000000000000000073ffffffffffffffffffffffffffffffffffffffff1663d0e30db0866040518263ffffffff1660e01b81526004016000604051808303818588803b15801561241f57600080fd5b505af1158015612433573d6000803e3d6000fd5b5061247c93505073ffffffffffffffffffffffffffffffffffffffff7f0000000000000000000000000000000000000000000000000000000000000000169150889050876124cd565b50506124a4565b6124a473ffffffffffffffffffffffffffffffffffffffff831685856124cd565b50505050565b60006124b58361255f565b80156124c657506124c683836125c3565b9392505050565b6040805173ffffffffffffffffffffffffffffffffffffffff8416602482015260448082018490528251808303909101815260649091019091526020810180517bffffffffffffffffffffffffffffffffffffffffffffffffffffffff167fa9059cbb0000000000000000000000000000000000000000000000000000000017905261255a9084906126ff565b505050565b600061258b827f01ffc9a7000000000000000000000000000000000000000000000000000000006125c3565b801561225457506125bc827fffffffff000000000000000000000000000000000000000000000000000000006125c3565b1592915050565b604080517fffffffff00000000000000000000000000000000000000000000000000000000831660248083019190915282518083039091018152604490910182526020810180517bffffffffffffffffffffffffffffffffffffffffffffffffffffffff167f01ffc9a7000000000000000000000000000000000000000000000000000000001790529051600091908290819073ffffffffffffffffffffffffffffffffffffffff8716906175309061267d908690613056565b6000604051808303818686fa925050503d80600081146126b9576040519150601f19603f3d011682016040523d82523d6000602084013e6126be565b606091505b50915091506020815110156126d95760009350505050612254565b8180156126f55750808060200190518101906126f59190612bf2565b9695505050505050565b6000612761826040518060400160405280602081526020017f5361666545524332303a206c6f772d6c6576656c2063616c6c206661696c65648152508573ffffffffffffffffffffffffffffffffffffffff1661280b9092919063ffffffff16565b80519091501561255a578080602001905181019061277f9190612bf2565b61255a576040517f08c379a000000000000000000000000000000000000000000000000000000000815260206004820152602a60248201527f5361666545524332303a204552433230206f7065726174696f6e20646964206e60448201527f6f742073756363656564000000000000000000000000000000000000000000006064820152608401610428565b6060610f4684846000858573ffffffffffffffffffffffffffffffffffffffff85163b612894576040517f08c379a000000000000000000000000000000000000000000000000000000000815260206004820152601d60248201527f416464726573733a2063616c6c20746f206e6f6e2d636f6e74726163740000006044820152606401610428565b6000808673ffffffffffffffffffffffffffffffffffffffff1685876040516128bd9190613056565b60006040518083038185875af1925050503d80600081146128fa576040519150601f19603f3d011682016040523d82523d6000602084013e6128ff565b606091505b509150915061290f82828661291a565b979650505050505050565b606083156129295750816124c6565b8251156129395782518084602001fd5b816040517f08c379a00000000000000000000000000000000000000000000000000000000081526004016104289190612999565b60005b83811015612988578181015183820152602001612970565b838111156124a45750506000910152565b60208152600082518060208401526129b881604085016020870161296d565b601f017fffffffffffffffffffffffffffffffffffffffffffffffffffffffffffffffe0169190910160400192915050565b73ffffffffffffffffffffffffffffffffffffffff81168114612a0c57600080fd5b50565b60008060408385031215612a2257600080fd5b8235612a2d816129ea565b946020939093013593505050565b600080600080600060a08688031215612a5357600080fd5b8535612a5e816129ea565b9450602086013593506040860135612a75816129ea565b9250606086013591506080860135612a8c816129ea565b809150509295509295909350565b60008060008060808587031215612ab057600080fd5b8435612abb816129ea565b935060208501359250604085013591506060850135612ad9816129ea565b939692955090935050565b61ffff81168114612a0c57600080fd5b60008060008060008060c08789031215612b0d57600080fd5b8635612b18816129ea565b955060208701359450604087013593506060870135612b36816129ea565b92506080870135612b46816129ea565b915060a0870135612b5681612ae4565b809150509295509295509295565b600060208284031215612b7657600080fd5b81356124c6816129ea565b600181811c90821680612b9557607f821691505b60208210811415612bcf577f4e487b7100000000000000000000000000000000000000000000000000000000600052602260045260246000fd5b50919050565b600060208284031215612be757600080fd5b81516124c6816129ea565b600060208284031215612c0457600080fd5b815180151581146124c657600080fd5b7f4e487b7100000000000000000000000000000000000000000000000000000000600052601160045260246000fd5b6000817fffffffffffffffffffffffffffffffffffffffffffffffffffffffffffffffff0483118215151615612c7b57612c7b612c14565b500290565b600082612cb6577f4e487b7100000000000000000000000000000000000000000000000000000000600052601260045260246000fd5b500490565b600082821015612ccd57612ccd612c14565b500390565b825173ffffffffffffffffffffffffffffffffffffffff168152602080840151908201526040808401519082015260c08101825173ffffffffffffffffffffffffffffffffffffffff16606083015260208301516080830152604083015160a08301526124c6565b73ffffffffffffffffffffffffffffffffffffffff83811682528254811660208301526001830154811660408301526002830154908116606083015261ffff60a091821c16608083015260038301549082015260c081016124c6565b7f4e487b7100000000000000000000000000000000000000000000000000000000600052604160045260246000fd5b604051601f82017fffffffffffffffffffffffffffffffffffffffffffffffffffffffffffffffe016810167ffffffffffffffff81118282101715612e0c57612e0c612d96565b604052919050565b600067ffffffffffffffff821115612e2e57612e2e612d96565b5060051b60200190565b600082601f830112612e4957600080fd5b81516020612e5e612e5983612e14565b612dc5565b82815260059290921b84018101918181019086841115612e7d57600080fd5b8286015b84811015612e985780518352918301918301612e81565b509695505050505050565b60008060408385031215612eb657600080fd5b825167ffffffffffffffff80821115612ece57600080fd5b818501915085601f830112612ee257600080fd5b81516020612ef2612e5983612e14565b82815260059290921b84018101918181019089841115612f1157600080fd5b948201945b83861015612f38578551612f29816129ea565b82529482019490820190612f16565b91880151919650909350505080821115612f5157600080fd5b50612f5e85828601612e38565b9150509250929050565b7f4e487b7100000000000000000000000000000000000000000000000000000000600052603260045260246000fd5b815473ffffffffffffffffffffffffffffffffffffffff90811682526001830154811660208301526002830154908116604083015261ffff60a091821c166060830152600383015460808301528101612254565b600060208284031215612ffd57600080fd5b5051919050565b6000821982111561301757613017612c14565b500190565b6000806040838503121561302f57600080fd5b825161303a81612ae4565b602084015190925061304b816129ea565b809150509250929050565b6000825161306881846020870161296d565b919091019291505056fea26469706673582212208079419989b841891a12af22529673361791592f7d085a3094390816898cad8b64736f6c634300080a0033",
    "linkReferences": {}
  },
  "methodIdentifiers": {
    "_handleRoyaltyEnginePayout(address,uint256,uint256,address)": "9128c22c",
    "askForNFT(address,uint256)": "418f0656",
    "cancelAsk(address,uint256)": "40b80746",
    "createAsk(address,uint256,uint256,address,address,uint16)": "9e847108",
    "erc20TransferHelper()": "8f9d3251",
    "erc721TransferHelper()": "f7cd1d9b",
    "fillAsk(address,uint256,address,uint256,address)": "622dcbd7",
    "name()": "06fdde03",
    "registrar()": "2b20e397",
    "setAskPrice(address,uint256,uint256,address)": "b2007533",
    "setRoyaltyEngineAddress(address)": "b249bb30"
  },
  "id": 38
}