{
  "abi": [
    {
      "anonymous": false,
      "inputs": [
        {
          "indexed": false,
          "internalType": "address",
          "name": "recipient",
          "type": "address"
        },
        {
          "indexed": false,
          "internalType": "uint16",
          "name": "bps",
          "type": "uint16"
        }
      ],
      "name": "DefaultRoyaltySet",
      "type": "event"
    },
    {
      "anonymous": false,
      "inputs": [
        {
          "indexed": true,
          "internalType": "address",
          "name": "previousOwner",
          "type": "address"
        },
        {
          "indexed": true,
          "internalType": "address",
          "name": "newOwner",
          "type": "address"
        }
      ],
      "name": "OwnershipTransferred",
      "type": "event"
    },
    {
      "anonymous": false,
      "inputs": [
        {
          "indexed": false,
          "internalType": "uint256",
          "name": "tokenId",
          "type": "uint256"
        }
      ],
      "name": "TokenRoyaltyRemoved",
      "type": "event"
    },
    {
      "anonymous": false,
      "inputs": [
        {
          "indexed": false,
          "internalType": "uint256",
          "name": "tokenId",
          "type": "uint256"
        },
        {
          "indexed": false,
          "internalType": "address",
          "name": "recipient",
          "type": "address"
        },
        {
          "indexed": false,
          "internalType": "uint16",
          "name": "bps",
          "type": "uint16"
        }
      ],
      "name": "TokenRoyaltySet",
      "type": "event"
    },
    {
      "inputs": [],
      "name": "defaultRoyalty",
      "outputs": [
        {
          "internalType": "address",
          "name": "recipient",
          "type": "address"
        },
        {
          "internalType": "uint16",
          "name": "bps",
          "type": "uint16"
        }
      ],
      "stateMutability": "view",
      "type": "function"
    },
    {
      "inputs": [],
      "name": "getTokenRoyaltiesCount",
      "outputs": [
        {
          "internalType": "uint256",
          "name": "",
          "type": "uint256"
        }
      ],
      "stateMutability": "view",
      "type": "function"
    },
    {
      "inputs": [
        {
          "internalType": "uint256",
          "name": "index",
          "type": "uint256"
        }
      ],
      "name": "getTokenRoyaltyByIndex",
      "outputs": [
        {
          "components": [
            {
              "internalType": "uint256",
              "name": "tokenId",
              "type": "uint256"
            },
            {
              "internalType": "address",
              "name": "recipient",
              "type": "address"
            },
            {
              "internalType": "uint16",
              "name": "bps",
              "type": "uint16"
            }
          ],
          "internalType": "struct IEIP2981RoyaltyOverride.TokenRoyaltyConfig",
          "name": "",
          "type": "tuple"
        }
      ],
      "stateMutability": "view",
      "type": "function"
    },
    {
      "inputs": [],
      "name": "owner",
      "outputs": [
        {
          "internalType": "address",
          "name": "",
          "type": "address"
        }
      ],
      "stateMutability": "view",
      "type": "function"
    },
    {
      "inputs": [],
      "name": "renounceOwnership",
      "outputs": [],
      "stateMutability": "nonpayable",
      "type": "function"
    },
    {
      "inputs": [
        {
          "internalType": "uint256",
          "name": "tokenId",
          "type": "uint256"
        },
        {
          "internalType": "uint256",
          "name": "value",
          "type": "uint256"
        }
      ],
      "name": "royaltyInfo",
      "outputs": [
        {
          "internalType": "address",
          "name": "",
          "type": "address"
        },
        {
          "internalType": "uint256",
          "name": "",
          "type": "uint256"
        }
      ],
      "stateMutability": "view",
      "type": "function"
    },
    {
      "inputs": [
        {
          "components": [
            {
              "internalType": "address",
              "name": "recipient",
              "type": "address"
            },
            {
              "internalType": "uint16",
              "name": "bps",
              "type": "uint16"
            }
          ],
          "internalType": "struct IEIP2981RoyaltyOverride.TokenRoyalty",
          "name": "royalty",
          "type": "tuple"
        }
      ],
      "name": "setDefaultRoyalty",
      "outputs": [],
      "stateMutability": "nonpayable",
      "type": "function"
    },
    {
      "inputs": [
        {
          "components": [
            {
              "internalType": "uint256",
              "name": "tokenId",
              "type": "uint256"
            },
            {
              "internalType": "address",
              "name": "recipient",
              "type": "address"
            },
            {
              "internalType": "uint16",
              "name": "bps",
              "type": "uint16"
            }
          ],
          "internalType": "struct IEIP2981RoyaltyOverride.TokenRoyaltyConfig[]",
          "name": "royaltyConfigs",
          "type": "tuple[]"
        }
      ],
      "name": "setTokenRoyalties",
      "outputs": [],
      "stateMutability": "nonpayable",
      "type": "function"
    },
    {
      "inputs": [
        {
          "internalType": "bytes4",
          "name": "interfaceId",
          "type": "bytes4"
        }
      ],
      "name": "supportsInterface",
      "outputs": [
        {
          "internalType": "bool",
          "name": "",
          "type": "bool"
        }
      ],
      "stateMutability": "view",
      "type": "function"
    },
    {
      "inputs": [
        {
          "internalType": "address",
          "name": "newOwner",
          "type": "address"
        }
      ],
      "name": "transferOwnership",
      "outputs": [],
      "stateMutability": "nonpayable",
      "type": "function"
    }
  ],
  "bytecode": {
    "object": "0x608060405234801561001057600080fd5b5061001a3361001f565b610071565b600480546001600160a01b038381166001600160a01b0319831681179093556040519116919082907f8be0079c531659141344cd1fd0a4f28419497f9722a3daafe3b4186f6b6457e090600090a35050565b611222806100806000396000f3fe608060405234801561001057600080fd5b50600436106100be5760003560e01c80637885fdc7116100765780638da5cb5b1161005b5780638da5cb5b14610219578063ef60ceaf14610241578063f2fde38b1461025457600080fd5b80637885fdc7146101965780637e9803421461020357600080fd5b80632a55205a116100a75780632a55205a1461013a5780635136dcc714610179578063715018a61461018e57600080fd5b806301ffc9a7146100c35780630653aca5146100eb575b600080fd5b6100d66100d1366004610e29565b610267565b60405190151581526020015b60405180910390f35b6100fe6100f9366004610e6b565b61034c565b604080518251815260208084015173ffffffffffffffffffffffffffffffffffffffff16908201529181015161ffff16908201526060016100e2565b61014d610148366004610e84565b6103ef565b6040805173ffffffffffffffffffffffffffffffffffffffff90931683526020830191909152016100e2565b61018c610187366004610ea6565b61051b565b005b61018c610600565b6000546101d49073ffffffffffffffffffffffffffffffffffffffff81169074010000000000000000000000000000000000000000900461ffff1682565b6040805173ffffffffffffffffffffffffffffffffffffffff909316835261ffff9091166020830152016100e2565b61020b61068d565b6040519081526020016100e2565b60045460405173ffffffffffffffffffffffffffffffffffffffff90911681526020016100e2565b61018c61024f366004610f1b565b61069e565b61018c610262366004610f5c565b610739565b60007fffffffff0000000000000000000000000000000000000000000000000000000082167f2a55205a0000000000000000000000000000000000000000000000000000000014806102fa57507fffffffff0000000000000000000000000000000000000000000000000000000082167fc69dbd8f00000000000000000000000000000000000000000000000000000000145b8061034657507f01ffc9a7000000000000000000000000000000000000000000000000000000007fffffffff000000000000000000000000000000000000000000000000000000008316145b92915050565b6040805160608101825260008082526020820181905291810182905290610374600284610866565b60008181526001602090815260409182902082518084018452905473ffffffffffffffffffffffffffffffffffffffff808216835261ffff7401000000000000000000000000000000000000000090920482168385019081528551606081018752968752925116928501929092525116908201529392505050565b600082815260016020526040812054819073ffffffffffffffffffffffffffffffffffffffff161561047f5760008481526001602052604090205473ffffffffffffffffffffffffffffffffffffffff8116906127109061046c9074010000000000000000000000000000000000000000900461ffff1686610fa6565b6104769190610fe3565b91509150610514565b60005473ffffffffffffffffffffffffffffffffffffffff16158015906104c3575060005474010000000000000000000000000000000000000000900461ffff1615155b1561050d5760005473ffffffffffffffffffffffffffffffffffffffff8116906127109061046c9074010000000000000000000000000000000000000000900461ffff1686610fa6565b5060009050805b9250929050565b60045473ffffffffffffffffffffffffffffffffffffffff1633146105a1576040517f08c379a000000000000000000000000000000000000000000000000000000000815260206004820181905260248201527f4f776e61626c653a2063616c6c6572206973206e6f7420746865206f776e657260448201526064015b60405180910390fd5b6105fc8282808060200260200160405190810160405280939291908181526020016000905b828210156105f2576105e360608302860136819003810190611030565b815260200190600101906105c6565b5050505050610879565b5050565b60045473ffffffffffffffffffffffffffffffffffffffff163314610681576040517f08c379a000000000000000000000000000000000000000000000000000000000815260206004820181905260248201527f4f776e61626c653a2063616c6c6572206973206e6f7420746865206f776e65726044820152606401610598565b61068b6000610ad2565b565b60006106996002610b49565b905090565b60045473ffffffffffffffffffffffffffffffffffffffff16331461071f576040517f08c379a000000000000000000000000000000000000000000000000000000000815260206004820181905260248201527f4f776e61626c653a2063616c6c6572206973206e6f7420746865206f776e65726044820152606401610598565b610736610731368390038301836110bc565b610b53565b50565b60045473ffffffffffffffffffffffffffffffffffffffff1633146107ba576040517f08c379a000000000000000000000000000000000000000000000000000000000815260206004820181905260248201527f4f776e61626c653a2063616c6c6572206973206e6f7420746865206f776e65726044820152606401610598565b73ffffffffffffffffffffffffffffffffffffffff811661085d576040517f08c379a000000000000000000000000000000000000000000000000000000000815260206004820152602660248201527f4f776e61626c653a206e6577206f776e657220697320746865207a65726f206160448201527f64647265737300000000000000000000000000000000000000000000000000006064820152608401610598565b61073681610ad2565b60006108728383610ca5565b9392505050565b60005b81518110156105fc5760008282815181106108995761089961113e565b60200260200101519050612710816040015161ffff1610610916576040517f08c379a000000000000000000000000000000000000000000000000000000000815260206004820152600b60248201527f496e76616c6964206270730000000000000000000000000000000000000000006044820152606401610598565b602081015173ffffffffffffffffffffffffffffffffffffffff166109b4578051600090815260016020526040902080547fffffffffffffffffffff00000000000000000000000000000000000000000000169055805161097990600290610ccf565b5080516040519081527fa2870857763bd9ae76c957f869f16b31c18dd3bb4c7b4d3a4496dc5c57c657f99060200160405180910390a1610abf565b60408051808201825260208084015173ffffffffffffffffffffffffffffffffffffffff90811683528484015161ffff9081168385019081528651600090815260019094529490922092518354945190921674010000000000000000000000000000000000000000027fffffffffffffffffffff000000000000000000000000000000000000000000009094169116179190911790558051610a5890600290610cdb565b508051602080830151604080850151815194855273ffffffffffffffffffffffffffffffffffffffff9092169284019290925261ffff1682820152517f389b70fb0887f01e83784eb1c4c589f740eca53b00ed0f45e41db5d079719abb9181900360600190a15b5080610aca8161116d565b91505061087c565b6004805473ffffffffffffffffffffffffffffffffffffffff8381167fffffffffffffffffffffffff0000000000000000000000000000000000000000831681179093556040519116919082907f8be0079c531659141344cd1fd0a4f28419497f9722a3daafe3b4186f6b6457e090600090a35050565b6000610346825490565b612710816020015161ffff1610610bc6576040517f08c379a000000000000000000000000000000000000000000000000000000000815260206004820152600b60248201527f496e76616c6964206270730000000000000000000000000000000000000000006044820152606401610598565b604080518082018252825173ffffffffffffffffffffffffffffffffffffffff168082526020808501805161ffff169190930181905260008054740100000000000000000000000000000000000000009092027fffffffffffffffffffff000000000000000000000000000000000000000000009092169092171790558251905191517f2c5ea6e4103e78cb101e796fb2dace540362fc542cbff5145eaa24af7dd8fe4192610c9a929173ffffffffffffffffffffffffffffffffffffffff92909216825261ffff16602082015260400190565b60405180910390a150565b6000826000018281548110610cbc57610cbc61113e565b9060005260206000200154905092915050565b60006108728383610ce7565b60006108728383610dda565b60008181526001830160205260408120548015610dd0576000610d0b6001836111a6565b8554909150600090610d1f906001906111a6565b9050818114610d84576000866000018281548110610d3f57610d3f61113e565b9060005260206000200154905080876000018481548110610d6257610d6261113e565b6000918252602080832090910192909255918252600188019052604090208390555b8554869080610d9557610d956111bd565b600190038181906000526020600020016000905590558560010160008681526020019081526020016000206000905560019350505050610346565b6000915050610346565b6000818152600183016020526040812054610e2157508154600181810184556000848152602080822090930184905584548482528286019093526040902091909155610346565b506000610346565b600060208284031215610e3b57600080fd5b81357fffffffff000000000000000000000000000000000000000000000000000000008116811461087257600080fd5b600060208284031215610e7d57600080fd5b5035919050565b60008060408385031215610e9757600080fd5b50508035926020909101359150565b60008060208385031215610eb957600080fd5b823567ffffffffffffffff80821115610ed157600080fd5b818501915085601f830112610ee557600080fd5b813581811115610ef457600080fd5b866020606083028501011115610f0957600080fd5b60209290920196919550909350505050565b600060408284031215610f2d57600080fd5b50919050565b803573ffffffffffffffffffffffffffffffffffffffff81168114610f5757600080fd5b919050565b600060208284031215610f6e57600080fd5b61087282610f33565b7f4e487b7100000000000000000000000000000000000000000000000000000000600052601160045260246000fd5b6000817fffffffffffffffffffffffffffffffffffffffffffffffffffffffffffffffff0483118215151615610fde57610fde610f77565b500290565b600082611019577f4e487b7100000000000000000000000000000000000000000000000000000000600052601260045260246000fd5b500490565b803561ffff81168114610f5757600080fd5b60006060828403121561104257600080fd5b6040516060810181811067ffffffffffffffff8211171561108c577f4e487b7100000000000000000000000000000000000000000000000000000000600052604160045260246000fd5b6040528235815261109f60208401610f33565b60208201526110b06040840161101e565b60408201529392505050565b6000604082840312156110ce57600080fd5b6040516040810181811067ffffffffffffffff82111715611118577f4e487b7100000000000000000000000000000000000000000000000000000000600052604160045260246000fd5b60405261112483610f33565b81526111326020840161101e565b60208201529392505050565b7f4e487b7100000000000000000000000000000000000000000000000000000000600052603260045260246000fd5b60007fffffffffffffffffffffffffffffffffffffffffffffffffffffffffffffffff82141561119f5761119f610f77565b5060010190565b6000828210156111b8576111b8610f77565b500390565b7f4e487b7100000000000000000000000000000000000000000000000000000000600052603160045260246000fdfea2646970667358221220f6c8beb41664f54e3f61f292c90c0d39a5b5201ca8fcace086cf7d57f04ccc7a64736f6c634300080a0033",
    "linkReferences": {}
  },
  "methodIdentifiers": {
    "defaultRoyalty()": "7885fdc7",
    "getTokenRoyaltiesCount()": "7e980342",
    "getTokenRoyaltyByIndex(uint256)": "0653aca5",
    "owner()": "8da5cb5b",
    "renounceOwnership()": "715018a6",
    "royaltyInfo(uint256,uint256)": "2a55205a",
    "setDefaultRoyalty((address,uint16))": "ef60ceaf",
    "setTokenRoyalties((uint256,address,uint16)[])": "5136dcc7",
    "supportsInterface(bytes4)": "01ffc9a7",
    "transferOwnership(address)": "f2fde38b"
  },
  "id": 15
}