{
  "abi": [
    {
      "inputs": [
        {
          "internalType": "address",
          "name": "_erc20TransferHelper",
          "type": "address"
        },
        {
          "internalType": "address",
          "name": "_erc721TransferHelper",
          "type": "address"
        },
        {
          "internalType": "address",
          "name": "_erc1155TransferHelper",
          "type": "address"
        }
      ],
      "stateMutability": "nonpayable",
      "type": "constructor"
    },
    {
      "inputs": [
        {
          "internalType": "address",
          "name": "_tokenContract",
          "type": "address"
        },
        {
          "internalType": "address",
          "name": "_from",
          "type": "address"
        },
        {
          "internalType": "uint256",
          "name": "_amount",
          "type": "uint256"
        }
      ],
      "name": "depositERC20",
      "outputs": [],
      "stateMutability": "nonpayable",
      "type": "function"
    },
    {
      "inputs": [
        {
          "internalType": "address",
          "name": "_tokenContract",
          "type": "address"
        },
        {
          "internalType": "address",
          "name": "_from",
          "type": "address"
        },
        {
          "internalType": "uint256",
          "name": "_tokenId",
          "type": "uint256"
        }
      ],
      "name": "depositERC721",
      "outputs": [],
      "stateMutability": "nonpayable",
      "type": "function"
    },
    {
      "inputs": [
        {
          "internalType": "address",
          "name": "",
          "type": "address"
        },
        {
          "internalType": "address",
          "name": "",
          "type": "address"
        },
        {
          "internalType": "uint256[]",
          "name": "",
          "type": "uint256[]"
        },
        {
          "internalType": "uint256[]",
          "name": "",
          "type": "uint256[]"
        },
        {
          "internalType": "bytes",
          "name": "",
          "type": "bytes"
        }
      ],
      "name": "onERC1155BatchReceived",
      "outputs": [
        {
          "internalType": "bytes4",
          "name": "",
          "type": "bytes4"
        }
      ],
      "stateMutability": "nonpayable",
      "type": "function"
    },
    {
      "inputs": [
        {
          "internalType": "address",
          "name": "",
          "type": "address"
        },
        {
          "internalType": "address",
          "name": "",
          "type": "address"
        },
        {
          "internalType": "uint256",
          "name": "",
          "type": "uint256"
        },
        {
          "internalType": "uint256",
          "name": "",
          "type": "uint256"
        },
        {
          "internalType": "bytes",
          "name": "",
          "type": "bytes"
        }
      ],
      "name": "onERC1155Received",
      "outputs": [
        {
          "internalType": "bytes4",
          "name": "",
          "type": "bytes4"
        }
      ],
      "stateMutability": "nonpayable",
      "type": "function"
    },
    {
      "inputs": [
        {
          "internalType": "address",
          "name": "_tokenContract",
          "type": "address"
        },
        {
          "internalType": "address",
          "name": "_from",
          "type": "address"
        },
        {
          "internalType": "uint256[]",
          "name": "_tokenIds",
          "type": "uint256[]"
        },
        {
          "internalType": "uint256[]",
          "name": "_amounts",
          "type": "uint256[]"
        }
      ],
      "name": "safeBatchDepositERC1155",
      "outputs": [],
      "stateMutability": "nonpayable",
      "type": "function"
    },
    {
      "inputs": [
        {
          "internalType": "address",
          "name": "_tokenContract",
          "type": "address"
        },
        {
          "internalType": "address",
          "name": "_to",
          "type": "address"
        },
        {
          "internalType": "uint256[]",
          "name": "_tokenIds",
          "type": "uint256[]"
        },
        {
          "internalType": "uint256[]",
          "name": "_amounts",
          "type": "uint256[]"
        }
      ],
      "name": "safeBatchWithdrawERC1155",
      "outputs": [],
      "stateMutability": "nonpayable",
      "type": "function"
    },
    {
      "inputs": [
        {
          "internalType": "address",
          "name": "_tokenContract",
          "type": "address"
        },
        {
          "internalType": "address",
          "name": "_from",
          "type": "address"
        },
        {
          "internalType": "uint256",
          "name": "_tokenId",
          "type": "uint256"
        },
        {
          "internalType": "uint256",
          "name": "_amount",
          "type": "uint256"
        }
      ],
      "name": "safeDepositERC1155",
      "outputs": [],
      "stateMutability": "nonpayable",
      "type": "function"
    },
    {
      "inputs": [
        {
          "internalType": "address",
          "name": "_tokenContract",
          "type": "address"
        },
        {
          "internalType": "address",
          "name": "_from",
          "type": "address"
        },
        {
          "internalType": "uint256",
          "name": "_tokenId",
          "type": "uint256"
        }
      ],
      "name": "safeDepositERC721",
      "outputs": [],
      "stateMutability": "nonpayable",
      "type": "function"
    },
    {
      "inputs": [
        {
          "internalType": "address",
          "name": "_tokenContract",
          "type": "address"
        },
        {
          "internalType": "address",
          "name": "_to",
          "type": "address"
        },
        {
          "internalType": "uint256",
          "name": "_tokenId",
          "type": "uint256"
        },
        {
          "internalType": "uint256",
          "name": "_amount",
          "type": "uint256"
        }
      ],
      "name": "safeWithdrawERC1155",
      "outputs": [],
      "stateMutability": "nonpayable",
      "type": "function"
    },
    {
      "inputs": [
        {
          "internalType": "address",
          "name": "_tokenContract",
          "type": "address"
        },
        {
          "internalType": "address",
          "name": "_to",
          "type": "address"
        },
        {
          "internalType": "uint256",
          "name": "_tokenId",
          "type": "uint256"
        }
      ],
      "name": "safeWithdrawERC721",
      "outputs": [],
      "stateMutability": "nonpayable",
      "type": "function"
    },
    {
      "inputs": [
        {
          "internalType": "bytes4",
          "name": "interfaceId",
          "type": "bytes4"
        }
      ],
      "name": "supportsInterface",
      "outputs": [
        {
          "internalType": "bool",
          "name": "",
          "type": "bool"
        }
      ],
      "stateMutability": "view",
      "type": "function"
    },
    {
      "inputs": [
        {
          "internalType": "address",
          "name": "_tokenContract",
          "type": "address"
        },
        {
          "internalType": "address",
          "name": "_to",
          "type": "address"
        },
        {
          "internalType": "uint256",
          "name": "_amount",
          "type": "uint256"
        }
      ],
      "name": "withdrawERC20",
      "outputs": [],
      "stateMutability": "nonpayable",
      "type": "function"
    },
    {
      "inputs": [
        {
          "internalType": "address",
          "name": "_tokenContract",
          "type": "address"
        },
        {
          "internalType": "address",
          "name": "_to",
          "type": "address"
        },
        {
          "internalType": "uint256",
          "name": "_tokenId",
          "type": "uint256"
        }
      ],
      "name": "withdrawERC721",
      "outputs": [],
      "stateMutability": "nonpayable",
      "type": "function"
    }
  ],
  "bytecode": {
    "object": "0x608060405234801561001057600080fd5b50604051610d90380380610d9083398101604081905261002f9161008d565b600080546001600160a01b039485166001600160a01b0319918216179091556001805493851693821693909317909255600280549190931691161790556100d0565b80516001600160a01b038116811461008857600080fd5b919050565b6000806000606084860312156100a257600080fd5b6100ab84610071565b92506100b960208501610071565b91506100c760408501610071565b90509250925092565b610cb1806100df6000396000f3fe608060405234801561001057600080fd5b50600436106100df5760003560e01c806350507f8b1161008c578063bc197c8111610066578063bc197c81146101a6578063e988ad911461020f578063f205e63614610222578063f23a6e611461023557600080fd5b806350507f8b1461016d5780635956ab87146101805780638737d9bc1461019357600080fd5b8063331ded1a116100bd578063331ded1a146101345780634025feb21461014757806344004cc11461015a57600080fd5b806301ffc9a7146100e45780630fd46e0d1461010c5780631cad5a4014610121575b600080fd5b6100f76100f23660046107bf565b61026d565b60405190151581526020015b60405180910390f35b61011f61011a36600461092f565b610306565b005b61011f61012f3660046109b4565b61039c565b61011f6101423660046109b4565b61043c565b61011f6101553660046109b4565b6104a9565b61011f6101683660046109b4565b610516565b61011f61017b3660046109f0565b610583565b61011f61018e3660046109f0565b610605565b61011f6101a136600461092f565b610687565b6101de6101b4366004610ac0565b7fbc197c810000000000000000000000000000000000000000000000000000000095945050505050565b6040517fffffffff000000000000000000000000000000000000000000000000000000009091168152602001610103565b61011f61021d3660046109b4565b6106e5565b61011f6102303660046109b4565b610752565b6101de610243366004610b6a565b7ff23a6e610000000000000000000000000000000000000000000000000000000095945050505050565b60007fffffffff0000000000000000000000000000000000000000000000000000000082167f4e2312e000000000000000000000000000000000000000000000000000000000148061030057507f01ffc9a7000000000000000000000000000000000000000000000000000000007fffffffff000000000000000000000000000000000000000000000000000000008316145b92915050565b6002546040517f7ee7f69b00000000000000000000000000000000000000000000000000000000815273ffffffffffffffffffffffffffffffffffffffff90911690637ee7f69b906103649087908790309088908890600401610c0a565b600060405180830381600087803b15801561037e57600080fd5b505af1158015610392573d6000803e3d6000fd5b5050505050505050565b6000546040517fd9fc4b6100000000000000000000000000000000000000000000000000000000815273ffffffffffffffffffffffffffffffffffffffff85811660048301528481166024830152306044830152606482018490529091169063d9fc4b61906084015b600060405180830381600087803b15801561041f57600080fd5b505af1158015610433573d6000803e3d6000fd5b50505050505050565b6001546040517f15dacbea00000000000000000000000000000000000000000000000000000000815273ffffffffffffffffffffffffffffffffffffffff8581166004830152848116602483015230604483015260648201849052909116906315dacbea90608401610405565b6001546040517f15dacbea00000000000000000000000000000000000000000000000000000000815273ffffffffffffffffffffffffffffffffffffffff8581166004830152306024830152848116604483015260648201849052909116906315dacbea90608401610405565b6000546040517fd9fc4b6100000000000000000000000000000000000000000000000000000000815273ffffffffffffffffffffffffffffffffffffffff85811660048301523060248301528481166044830152606482018490529091169063d9fc4b6190608401610405565b6002546040517feb46c45b00000000000000000000000000000000000000000000000000000000815273ffffffffffffffffffffffffffffffffffffffff86811660048301528581166024830152306044830152606482018590526084820184905260c060a4830152600060c48301529091169063eb46c45b9060e401610364565b6002546040517feb46c45b00000000000000000000000000000000000000000000000000000000815273ffffffffffffffffffffffffffffffffffffffff86811660048301523060248301528581166044830152606482018590526084820184905260c060a4830152600060c48301529091169063eb46c45b9060e401610364565b6002546040517f7ee7f69b00000000000000000000000000000000000000000000000000000000815273ffffffffffffffffffffffffffffffffffffffff90911690637ee7f69b906103649087903090889088908890600401610c0a565b6001546040517fd9fc4b6100000000000000000000000000000000000000000000000000000000815273ffffffffffffffffffffffffffffffffffffffff85811660048301523060248301528481166044830152606482018490529091169063d9fc4b6190608401610405565b6001546040517fd9fc4b6100000000000000000000000000000000000000000000000000000000815273ffffffffffffffffffffffffffffffffffffffff85811660048301528481166024830152306044830152606482018490529091169063d9fc4b6190608401610405565b6000602082840312156107d157600080fd5b81357fffffffff000000000000000000000000000000000000000000000000000000008116811461080157600080fd5b9392505050565b803573ffffffffffffffffffffffffffffffffffffffff8116811461082c57600080fd5b919050565b7f4e487b7100000000000000000000000000000000000000000000000000000000600052604160045260246000fd5b604051601f82017fffffffffffffffffffffffffffffffffffffffffffffffffffffffffffffffe016810167ffffffffffffffff811182821017156108a7576108a7610831565b604052919050565b600082601f8301126108c057600080fd5b8135602067ffffffffffffffff8211156108dc576108dc610831565b8160051b6108eb828201610860565b928352848101820192828101908785111561090557600080fd5b83870192505b848310156109245782358252918301919083019061090b565b979650505050505050565b6000806000806080858703121561094557600080fd5b61094e85610808565b935061095c60208601610808565b9250604085013567ffffffffffffffff8082111561097957600080fd5b610985888389016108af565b9350606087013591508082111561099b57600080fd5b506109a8878288016108af565b91505092959194509250565b6000806000606084860312156109c957600080fd5b6109d284610808565b92506109e060208501610808565b9150604084013590509250925092565b60008060008060808587031215610a0657600080fd5b610a0f85610808565b9350610a1d60208601610808565b93969395505050506040820135916060013590565b600082601f830112610a4357600080fd5b813567ffffffffffffffff811115610a5d57610a5d610831565b610a8e60207fffffffffffffffffffffffffffffffffffffffffffffffffffffffffffffffe0601f84011601610860565b818152846020838601011115610aa357600080fd5b816020850160208301376000918101602001919091529392505050565b600080600080600060a08688031215610ad857600080fd5b610ae186610808565b9450610aef60208701610808565b9350604086013567ffffffffffffffff80821115610b0c57600080fd5b610b1889838a016108af565b94506060880135915080821115610b2e57600080fd5b610b3a89838a016108af565b93506080880135915080821115610b5057600080fd5b50610b5d88828901610a32565b9150509295509295909350565b600080600080600060a08688031215610b8257600080fd5b610b8b86610808565b9450610b9960208701610808565b93506040860135925060608601359150608086013567ffffffffffffffff811115610bc357600080fd5b610b5d88828901610a32565b600081518084526020808501945080840160005b83811015610bff57815187529582019590820190600101610be3565b509495945050505050565b600073ffffffffffffffffffffffffffffffffffffffff8088168352808716602084015280861660408401525060c06060830152610c4b60c0830185610bcf565b8281036080840152610c5d8185610bcf565b83810360a0909401939093525050600081526020019594505050505056fea2646970667358221220a8498457f5b69d3440c826f7df5585a268a623946e16d90e22c339ca993cc3df64736f6c634300080a0033",
    "linkReferences": {}
  },
  "methodIdentifiers": {
    "depositERC20(address,address,uint256)": "1cad5a40",
    "depositERC721(address,address,uint256)": "331ded1a",
    "onERC1155BatchReceived(address,address,uint256[],uint256[],bytes)": "bc197c81",
    "onERC1155Received(address,address,uint256,uint256,bytes)": "f23a6e61",
    "safeBatchDepositERC1155(address,address,uint256[],uint256[])": "0fd46e0d",
    "safeBatchWithdrawERC1155(address,address,uint256[],uint256[])": "8737d9bc",
    "safeDepositERC1155(address,address,uint256,uint256)": "50507f8b",
    "safeDepositERC721(address,address,uint256)": "f205e636",
    "safeWithdrawERC1155(address,address,uint256,uint256)": "5956ab87",
    "safeWithdrawERC721(address,address,uint256)": "e988ad91",
    "supportsInterface(bytes4)": "01ffc9a7",
    "withdrawERC20(address,address,uint256)": "44004cc1",
    "withdrawERC721(address,address,uint256)": "4025feb2"
  },
  "id": 84
}